:100000000C940C010C9434010C9434010C943401C4
:100010000C9434010C9434010C9434010C9434018C
:100020000C9434010C9493010C9434010C9434011D
:100030000C9434010C9434010C9434010C94C10BD5
:100040000C9434010C9434010C9434010C9434015C
:100050000C9434010C9434010C9434010C9434014C
:100060000C9434010C94030D0C9434010C94340161
:100070000C9434010C9434010C9434010C9434012C
:100080000C9434010C9434010C946F070C943401DB
:100090000C94B90C0C9434010C9434010C9434017C
:1000A0000C9434010C9434010C9434010C943401FC
:1000B0000C9434010C9434010C9434010C943401EC
:1000C0000C9434010C9434010C9434012E0C310C3A
:1000D000AC0CAC0C340C370C3A0C3D0CA20CAC0C38
:1000E000400C430C460CAC0CAC0CAC0CAC0CAC0C8B
:1000F000AC0C490C550C610CA20CA20C640CAC0CA1
:10010000AC0CAC0CAC0C700C7F0C930C890C696EB5
:100110006600494E46006E616E004E414E00004042
:100120007A10F35A00A0724E18090010A5D4E80006
:1001300000E87648170000E40B54020000CA9A3B1E
:10014000000000E1F50500008096980000004042A4
:100150000F000000A0860100000010270000000032
:10016000E803000000006400000000000A00000036
:1001700000000100000000002C76D888DC674F08E2
:1001800023DFC1DFAE59E1B1B796E5E3E453C63AE8
:10019000E651997696E8E6C28426EB898C9B62ED5F
:1001A000407C6FFCEFBC9C9F40F2BAA56FA5F49019
:1001B000055A2AF75C936B6CF9676DC11BFCE0E490
:1001C0000D47FEF520E6B500D0ED902E03009435E6
:1001D00077050080841E080000204E0A000000C839
:1001E0000C333333330F986E12831141EF8D21148A
:1001F000893BE65516CFFEE6DB18D1844B381BF75A
:100200007C1D901DA4BBE424203284725E228100F8
:10021000C9F124ECA1E53D2711241FBECFEFD1E2A7
:10022000DEBFCDBF14BE88E10FB6F89480936000A6
:10023000109260000FBE12E0A0E0B2E0EAE2FEE140
:1002400000E00BBF02C007900D92AA37B107D9F7A3
:1002500012E0AAE7B2E001C01D92A13BB107E1F7AD
:100260000E943E030C94130F0C94000080E090E079
:100270000895F894249A2C98EBE6F0E08081806150
:100280008083808180688083E8E6F0E080818160FF
:100290008083789408950F931F93082F112707FDEB
:1002A00010958FE790E0801B910B0E940808C80111
:1002B00081589F4F0E9431081F910F9108950F930D
:1002C0001F93082F10E001581F4FC8010E94080813
:1002D000C8010E9431081F910F9108950F931F9339
:1002E000992787FD90950FE710E0081B190BC801AF
:1002F0000E940808C8010E9431081F910F910895BB
:1003000080E090E06FEF70E00E941707089580E0B2
:1003100090E063E770E00E94170708950E942A08A2
:100320000E94530808951F920F920FB60F920BB6BA
:100330000F9211242F933F934F935F936F937F936B
:100340008F939F93AF93BF93EF93FF93F8940E9483
:100350008E010E94D1060E94C50680E092E00E94B4
:100360007D060E94C10686E092E00E947D0680EA3A
:1003700090E00E94080880EA90E00E9431088EEE2A
:1003800092E00E9466030E94D10680E00E946E0106
:100390007894FF91EF91BF91AF919F918F917F9151
:1003A0006F915F914F913F912F910F900BBE0F90E6
:1003B0000FBE0F901F901895FF920F931F930E94EE
:1003C000C50681E192E00E947D0682E30E946E01F3
:1003D00000E03DC080E090E00E946308182F81E0BB
:1003E00090E00E946308F82E81E090E062E070E007
:1003F0000E94B006812F90E00E944E0681E090E0BE
:1004000069E070E00E94B0068F2D90E00E944E06D9
:10041000133868F00E942A0881E090E062E070E002
:100420000E94B00682E292E00E947D06016082E8AE
:100430008F1568F40E94530881E090E069E070E055
:100440000E94B00682E292E00E947D0602600330C4
:1004500008F21F910F91FF900895DF92EF92FF92A3
:100460000F931F93D82EE62E0E94C50686E292E0D7
:100470000E947D0680E090E066E070E00E94B00699
:100480008E2D90E00E944E0687E392E00E94C10606
:1004900081E090E06BE070E00E94B00680E090E0C8
:1004A0000E944E0600E024C08D2D90E00E9463085B
:1004B000182F81E090E063E070E00E94B006812F89
:1004C00090E00E944E06FF2029F4133888F0FF24A4
:1004D000F3940EC0163408F40F5F81E090E06BE0F7
:1004E00070E00E94B006802F90E00E944E06FF242C
:1004F0000E15D1F61F910F91FF90EF90DF900895A8
:10050000DF92EF92FF920F931F93D82EE62E0E9458
:10051000C50686E292E00E947D0680E090E066E0FB
:1005200070E00E94B0068E2D90E00E944E0687E398
:1005300092E00E94C10681E090E06BE070E00E94D2
:10054000B00680E090E00E944E0600E024C08D2DB1
:1005500090E00E946308182F81E090E063E070E073
:100560000E94B006812F90E00E944E06FF2081F489
:10057000133888F00F5F81E090E06BE070E00E943C
:10058000B006802F90E00E944E06FF24F39403C033
:10059000163408F4FF240E15D1F61F910F91FF9029
:1005A000EF90DF900895F89488E70E946E0182E052
:1005B00064E00E948002789482E061E00E94800200
:1005C0000E948E0108950E948E010E94D1060E9411
:1005D000C5068CE392E00E947D0686E40E946E01CF
:1005E00082E062E00E94800288E20E944B0181E08A
:1005F00061E00E94800280E590E00E94080880E9A6
:1006000091E00E9466030E948E0180E50E946E01C7
:1006100082E061E00E94800208951F93182F8CE30E
:100620000E946E0182E061E00E9480020E948E01C1
:1006300088E20E944B0180E062E00E948002112368
:1006400039F08CE30E945F0188EC90E00E94660321
:100650000E94DC010E948E011F91089586E490E0C3
:100660000E94080880E590E00E94310882E061E085
:100670000E94800286E40E946E0108950E94060591
:10068000F8940E9439010E94D10685E492E00E940C
:100690007D060E94C10678940E9480030E942E036A
:1006A00081E00E940D030E94D30280E00E940D03AE
:1006B0000E94E30281E00E940D030E94D3020E9487
:1006C000D10688E592E00E947D06FFCF20EA3FE058
:1006D00004C0F9013197F1F701970097D1F7089518
:1006E00024E030E004C0F9013197F1F70197009759
:1006F000D1F7089589B182958F70809581700895A2
:100700004C99FECF8EE190E020EA3FE0F90131976D
:10071000F1F70197D9F74C9BFECF8EE190E020EAEC
:100720003FE0F9013197F1F70197D9F70895A29ABF
:100730000895A29808958230A8F1482F4250613060
:10074000710539F16130710528F06230710509F0E9
:100750004EC00FC081B121E030E002C0220F331F34
:100760004A95E2F72095822381B982B1282322B9E4
:10077000089531B181E090E002C0880F991F4A9539
:10078000E2F7282F2095232321B922B1822B82B9A9
:10079000089581B102C0660F771F4A95E2F7862B54
:1007A00081B90895813091F46130710569F061304B
:1007B000710520F062307105D1F403C027982F989D
:1007C000089527982F9A0895279A08956130710502
:1007D00069F06130710520F06230710541F403C0A9
:1007E00024982C98089524982C9A0895249A089572
:1007F000282F80FF02C0249A01C0249821FF02C044
:10080000279A01C02798969587959695879581B9DF
:100810000895249905C080FF02C02C9A01C02C982D
:10082000279905C081FF02C02F9A01C02F98969585
:1008300087959695879540E050E0682F70E0E1E05D
:10084000F0E081B190E0042E02C0959587950A945E
:10085000E2F780FD1FC0CB01042E02C0959587955D
:100860000A94E2F780FF0BC022B1CF01042E02C030
:10087000880F991F0A94E2F7282B22B90BC022B1E6
:10088000CF01042E02C0880F991F0A94E2F78095C9
:10089000822382B94F5F5F4F4830510591F608952A
:1008A0008230B0F040B1282F30E02250304081E05B
:1008B00090E0022E02C0880F991F0A94E2F750E0E0
:1008C0008423952302C0959587952A95E2F708958C
:1008D000813029F483B1881F8827881F089583B148
:1008E00090E08071907044E0959587954A95E1F786
:1008F00008956623B9F0823078F042B1282F30E0B5
:100900002250304081E090E002C0880F991F2A9564
:10091000E2F7482B42B90895813011F42F9A0895D7
:100920002C9A0895823080F042B1282F30E0225076
:10093000304081E090E002C0880F991F2A95E2F7CD
:100940008095842382B90895813011F42F980895F9
:100950002C9808959C01369527953695279522B9B0
:1009600045B190E09C012170307074E0220F331F7C
:100970007A95E1F74F76422B827090709595879526
:100980009695982F882797958795482B45B9089570
:1009900040B183B123B130E020713070B4E03595BF
:1009A0002795BA95E1F750E0440F551F440F551FA6
:1009B000242B352B881F8827881F90E0880F991FCC
:1009C000282B392BC9010895823068F0282F30E098
:1009D0002250304081E090E002C0880F991F2A9594
:1009E000E2F780B90895813011F480E801C080E118
:1009F00083B9089528E088E190E00FB6F894A895AF
:100A0000809360000FBE20936000FFCF54985C9AE3
:100A10009A9A559A8FEF87B90E94D9060E94EA07E1
:100A20000E9439070E945A080E94D80B0E94F70BB7
:100A30000E94B00B0895982F990F9A7A8695857524
:100A4000982B892F880F880F8C7C96959695937399
:100A5000892B8295F8945E9A88B981E090E00E9493
:100A600070035E98789408955F9A0E941B0582E354
:100A700090E00E94700308958F708A3010F4805DBA
:100A800001C0895C0E94340508950F931F938C0167
:100A9000812F82958F700E943C05812F0E943C051A
:100AA000802F82958F700E943C05802F0E943C050C
:100AB0001F910F9108951F93182F82958F700E9498
:100AC0003C05812F0E943C051F910895CF93DF9331
:100AD000EC018A309105D8F18436910558F183E014
:100AE000C83ED807D0F087E2C031D80748F0CE0121
:100AF00060E177E20E94590D862F805D0E943405E7
:100B0000CE0160E177E20E94590D68EE73E00E9429
:100B1000590D862F805D0E943405CE0168EE73E08A
:100B20000E94590D64E670E00E94590D862F805D89
:100B30000E943405CE0164E670E00E94590D6AE01F
:100B400070E00E94590D862F805D0E943405CE0111
:100B50006AE070E00E94590D805D0E943405DF91CB
:100B6000CF910895CF93DF93EC0197FD05C08BE201
:100B70000E943405CE0107C08DE20E94340588270B
:100B800099278C1B9D0B0E946605DF91CF910895DC
:100B90000F931F938C0160E177E20E94590D862F1D
:100BA000805D0E943405C80160E177E20E94590D22
:100BB00068EE73E00E94590D862F805D0E94340517
:100BC000C80168EE73E00E94590D64E670E00E946F
:100BD000590D862F805D0E943405C80164E670E0DF
:100BE0000E94590D6AE070E00E94590D862F805DC9
:100BF0000E943405C8016AE070E00E94590D805DD2
:100C00000E9434051F910F910895CF93DF93EC015B
:100C100097FD05C08BE20E943405CE0107C08DE22E
:100C20000E943405882799278C1B9D0B0E94C805BC
:100C3000DF91CF9108951F93182F8A3098F0843652
:100C400030F064E60E944D0D805D0E943405812FD6
:100C500064E60E944D0D892F6AE00E944D0D805D73
:100C60000E943405812F6AE00E944D0D892F805D1E
:100C70000E9434051F9108951F93182F87FD05C00A
:100C80008BE20E943405812F05C08DE20E9434055D
:100C9000812F81950E941B061F9108951F93182F85
:100CA00064E60E944D0D805D0E943405812F64E64C
:100CB0000E944D0D892F6AE00E944D0D805D0E94BB
:100CC0003405812F6AE00E944D0D892F805D0E94BE
:100CD00034051F9108951F93182F87FD05C08BE2DF
:100CE0000E943405812F05C08DE20E943405812FBA
:100CF00081950E944E061F9108951F93CF93DF9315
:100D0000EC0110E003C01F5F0E943405FE01E10FFB
:100D1000F11D80818823B9F7DF91CF911F9108954C
:100D2000AAE0B0E0E6E9F6E00C94790D7E010894C3
:100D3000E11CF11CA70123E030E000E010E00E947C
:100D4000AA0DC7010E947D062A96E6E00C94950D37
:100D50005F980E941B0584E690E00E94700308954E
:100D6000282F30E086E0220F331F8A95E1F7862F87
:100D700061E10E944D0D892F822B80680E94A80698
:100D8000089580EC0E94A806089580E80E94A806B5
:100D9000089588E00E94A80608958CE00E94A806A5
:100DA000089581E00E94A80684EE9CE00E947003F2
:100DB0000895569A579A5E988FE090E00E946603D5
:100DC00088E30E94A80684E293E10E94700388E30E
:100DD0000E94A80682E390E00E94700388E30E94CC
:100DE000A80688E30E94A8060E94C9060E94D106B0
:100DF00086E00E94A8060E94CD0608958830B0F4CF
:100E0000E82FF0E0EE0FFF1FDF01A158BD4F88EF84
:100E100091E111969C938E932D913C9188E893E1FA
:100E2000821B930BE157FD4F918380830895883097
:100E3000F8F42CE0629F9001112428543A4FE82FD7
:100E4000F0E0EE0FFF1FDF01A158BD4F4D915C9107
:100E500088E893E1841B950BF894DF01A158BD4FFE
:100E600011963C932E93E157FD4F918380837894A4
:100E7000089520E030E068EF71E148E853E1F901BE
:100E8000EE0FFF1FDF01A158BD4F11967C936E93AB
:100E90008D919C91DA01A81BB90BE157FD4FB183ED
:100EA000A0832F5F3F4F2830310549F78091910093
:100EB00082608093910080917100886080937100BE
:100EC0007894089588B981E0982F9A95F1F75D9A02
:100ED000982F9A95F1F75D988A95F1F708951F92EA
:100EE0000F920FB60F920BB60F9211242F933F93D0
:100EF0004F935F936F937F938F939F93AF93BF9322
:100F0000EF93FF9380917B028130C9F480E00E94CF
:100F1000620780919C0090919D00E0917A02F0E040
:100F2000EE0FFF1FE157FD4F20813181280F391F40
:100F300030939D0020939C0010927B0238C08091DA
:100F40007A028F5F80937A0280917A02883011F45E
:100F500010927A02E0917A02F0E0EE0FFF1FE15862
:100F6000FD4F80819181885F914159F020917A02F3
:100F700081E090E002C0880F991F2A95E2F70E9455
:100F8000620720919C0030919D00E0917A02F0E090
:100F9000EE0FFF1FE158FD4F80819181820F931F5B
:100FA00090939D0080939C0081E080937B02FF9151
:100FB000EF91BF91AF919F918F917F916F915F91D1
:100FC0004F913F912F910F900BBE0F900FBE0F903E
:100FD0001F901895E0E8F0E081E080838BE080933B
:100FE00081008DB1806C8DB9259A80818068808365
:100FF00010928900109288008DB18C608DB9269A6C
:1010000080818062808310928B0010928A00089504
:101010008F3729F4109288006D9A759808956D980D
:10102000759A282F30E087FF08C08EB18F738068D3
:101030008EB9822F880F8F5F0AC08EB18F73806444
:101040008EB98FE790E0821B930B880F991F8093D6
:10105000880008958FEF809388008EB18F738EB9CA
:1010600008958F3729F410928A006C9A7498089525
:101070006C98749A282F30E087FF08C08EB1837F68
:1010800084608EB9822F880F8F5F0AC08EB1837FF4
:1010900088608EB98FE790E0821B930B880F991FB1
:1010A00080938A0008958FEF80938A008EB1837FAA
:1010B0008EB9089580E680937C00EAE7F0E08081B5
:1010C000876880830895982F883010F08DEB0895FD
:1010D00080E680937C0080917C00892B80937C004B
:1010E00080917A00806480937A0080917A0086FDF6
:1010F000FCCF809179000895982F883018F02DEA60
:101100003BE01BC080E480937C0080917C00892BB5
:1011100080937C0080917A00806480937A00809133
:101120007A0086FDFCCF3091780020917900922FD3
:1011300080E0232F30E0282B392BC9010895E9EBFB
:10114000F0E080818D7F808380818160808382E177
:101150008093B800089584EA8093BC008091BC001D
:1011600087FFFCCF8091B900887F08958093BB00F2
:1011700084E88093BC008091BC0087FFFCCF809105
:10118000B900887F0895982F813011F484EC01C054
:1011900084E88093BC008091BC0087FFFCCF913035
:1011A00031F48091B900887F803559F407C09923C4
:1011B00029F48091B900887F883519F48091BB00AB
:1011C000089580E0089584E98093BC000895982FE5
:1011D00084EA8093BC008091BC0087FFFCCF8091A3
:1011E000B900887F883011F0803109F59093BB00F9
:1011F00084E88093BC008091BC0087FFFCCF809185
:10120000B900887F883199F46093BB0084E88093AB
:10121000BC008091BC0087FFFCCF8091B900887F23
:10122000883229F484E98093BC0081E0089580E04D
:101230000895982F84EA8093BC008091BC0087FFBA
:10124000FCCF8091B900887F883011F0803179F52A
:101250009093BB0084E88093BC008091BC0087FF22
:10126000FCCF8091B900887F883109F56093BB007D
:1012700084E88093BC008091BC0087FFFCCF809104
:10128000B900887F883299F47093BB0084E880931A
:10129000BC008091BC0087FFFCCF8091B900887FA3
:1012A000883229F484E98093BC0081E0089580E0CD
:1012B0000895982F84EA8093BC008091BC0087FF3A
:1012C000FCCF8091B900887F883011F08031B9F46B
:1012D0009F5F9093BB0084E88093BC008091BC002A
:1012E00087FFFCCF8091B900887F803441F480E093
:1012F0000E94C308982F84E98093BC0001C090E04D
:10130000892F0895982F84EA8093BC008091BC00B7
:1013100087FFFCCF8091B900887F883011F0803141
:1013200079F59093BB0084E88093BC008091BC0069
:1013300087FFFCCF8091B900887F883109F56093E1
:10134000BB0084E88093BC008091BC0087FFFCCF89
:101350008091B900887F883299F44093BB0084E87B
:101360008093BC008091BC0087FFFCCF8091B900C6
:10137000887F883229F484E98093BC0081E0089555
:1013800080E00895982F84EA8093BC008091BC008F
:1013900087FFFCCF8091B900887F883019F08031B9
:1013A00009F03FC09093BB0084E88093BC0080911B
:1013B000BC0087FFFCCF8091B900887F883189F518
:1013C0006093BB0084E88093BC008091BC0087FFE1
:1013D000FCCF8091B900887F883219F584EA809328
:1013E000BC008091BC0087FFFCCF8091B900887F52
:1013F000883011F08031A9F49F5F9093BB0084E89E
:101400008093BC008091BC0087FFFCCF8091B90025
:10141000887F803431F480E00E94C30894E990937F
:10142000BC000895982F84EA8093BC008091BC0092
:1014300087FFFCCF8091B900887F883011F0803120
:10144000B9F59093BB0084E88093BC008091BC0008
:1014500087FFFCCF8091B900887F883149F5609380
:10146000BB0084E88093BC008091BC0087FFFCCF68
:101470008091B900887F8832D9F4F90190E024E89E
:1014800010C080818093BB002093BC008091BC0081
:1014900087FFFCCF8091B9003196887F883241F474
:1014A0009F5F941770F384E98093BC0081E00895F6
:1014B00080E00895CF92DF92FF920F931F93CF9316
:1014C000DF93982F690184EA8093BC008091BC006F
:1014D00087FFFCCF8091B900887F883019F0803178
:1014E00009F057C09093BB0084E88093BC008091C2
:1014F000BC0087FFFCCF8091B900887F883109F05C
:1015000048C06093BB0084E88093BC008091BC001D
:1015100087FFFCCF8091B900887F8832D1F584EABB
:101520008093BC008091BC0087FFFCCF8091B90004
:10153000887F883011F0803161F59F5F9093BB0008
:1015400084E88093BC008091BC0087FFFCCF809131
:10155000B900887F8034E9F4FF24C42FD0E02197BC
:1015600006C081E00E94C308F8018083F3948F2DA8
:1015700090E08601080F191F8C179D0794F380E0F7
:101580000E94C308F801808384E98093BC0081E055
:1015900001C080E0DF91CF911F910F91FF90DF900C
:1015A000CF900895982F84EA8093BC008091BC006E
:1015B00087FFFCCF8091B900887F883019F0803197
:1015C00009F045C09093BB0084E88093BC008091F3
:1015D000BC0087FFFCCF8091B900887F8831B9F5C6
:1015E0007093BB0084E88093BC008091BC0087FFAF
:1015F000FCCF8091B900887F883249F56093BB00A9
:1016000084E88093BC008091BC0087FFFCCF809170
:10161000B900887F8832D9F4F90190E024E810C03D
:1016200080818093BB002093BC008091BC0087FF29
:10163000FCCF8091B9003196887F883241F49F5F5A
:10164000941770F384E98093BC0081E0089580E0F2
:101650000895CF92DF92FF920F931F93CF93DF9362
:10166000982F690184EA8093BC008091BC0087FFB9
:10167000FCCF8091B900887F883019F0803109F063
:1016800066C09093BB0084E88093BC008091BC004E
:1016900087FFFCCF8091B900887F883109F057C05F
:1016A0007093BB0084E88093BC008091BC0087FFEE
:1016B000FCCF8091B900887F883209F048C06093E0
:1016C000BB0084E88093BC008091BC0087FFFCCF06
:1016D0008091B900887F8832D1F584EA8093BC007C
:1016E0008091BC0087FFFCCF8091B900887F883053
:1016F00011F0803161F59F5F9093BB0084E8809387
:10170000BC008091BC0087FFFCCF8091B900887F2E
:101710008034E9F4FF24C42FD0E0219706C081E093
:101720000E94C308F8018083F3948F2D90E0860116
:10173000080F191F8C179D0794F380E00E94C308BF
:10174000F801808384E98093BC0081E001C080E0DF
:10175000DF91CF911F910F91FF90DF90CF9008956F
:1017600080E28093B60085E08093B10081E08093B1
:10177000700010927E0210927D021092B200789456
:1017800008951F920F920FB60F9211248F939F937B
:1017900080917D0290917E02019690937E028093CB
:1017A0007D029F918F910F900FBE0F901F90189503
:1017B000F89487E68093C4001092C5001092C00090
:1017C00086E08093C20088E98093C10078940895F0
:1017D0008091C00087FFFCCF8091C6000895982FAC
:1017E0008091C00085FFFCCF9093C6000895F894C7
:1017F00087E68093CC001092CD001092C80086E05E
:101800008093CA0088E98093C900789408958091F4
:10181000C80087FFFCCF8091CE000895982F80915B
:10182000C80085FFFCCF9093CE0008952091A002C0
:10183000922F80E02091A10230E0282B392BC901A2
:10184000089580919F0290E0FC013197E132F1050B
:1018500008F082C0EA59FF4F0C94A40D0E94970330
:1018600085C00E94990382C00E94CD067FC00E945D
:10187000C9067CC00E94D10679C00E94C50676C008
:101880000E94FA0473C00E942A0870C00E94530884
:101890006DC02091A002922F80E02091A10230E043
:1018A000822B932B0E94660361C02091A002922F8D
:1018B00080E02091A10230E0822B932B0E947003E4
:1018C00055C080EA92E050C02091A002922F80E0A3
:1018D0002091A10230E0822B932B0E94FE0646C08D
:1018E0002091A0026091A102922F80E070E0682B0D
:1018F000792B872F90E070E00E94170737C09091F6
:10190000A0028091A10220E0822B90E00E940808B2
:101910002DC09091A0028091A10220E0822B90E046
:101920000E94310823C02091A0026091A102922F51
:1019300080E070E0682B792B872F90E070E00E94A8
:10194000B00614C00E947A03982F8091C00085FFD2
:10195000FCCF9093C6000AC080E090E060E070E0A9
:101960000E94B00688E692E00E947D0610927C02FA
:1019700008951F920F920FB60F920BB60F9211247B
:101980002F933F934F935F936F937F938F939F9387
:10199000AF93BF93EF93FF939091C60080917C0229
:1019A000823118F010927C021BC080917C02E82FDB
:1019B000F0E0E156FD4F90838F5F80937C02809131
:1019C0009F02843158F080919F02863119F4992347
:1019D00039F404C080917C02833011F40E94210C00
:1019E000FF91EF91BF91AF919F918F917F916F91F7
:1019F0005F914F913F912F910F900BBE0F900FBEB3
:101A00000F901F9018951F920F920FB60F920BB662
:101A10000F9211242F933F934F935F936F937F9374
:101A20008F939F93AF93BF93EF93FF939091C600D3
:101A300080917C02823118F010927C021BC0809150
:101A40007C02E82FF0E0E156FD4F90838F5F80939A
:101A50007C0280919F02843158F080919F028631F0
:101A600019F4992339F404C080917C02833011F475
:101A70000E94210CFF91EF91BF91AF919F918F91A7
:101A80007F916F915F914F913F912F910F900BBE7E
:101A90000F900FBE0F901F901895991B79E004C00E
:101AA000991F961708F0961B881F7A95C9F780959D
:101AB0000895AA1BBB1B51E107C0AA1FBB1FA61795
:101AC000B70710F0A61BB70B881F991F5A95A9F7E7
:101AD00080959095BC01CD0108952F923F924F9231
:101AE0005F926F927F928F929F92AF92BF92CF92AE
:101AF000DF92EF92FF920F931F93CF93DF93CDB7B7
:101B0000DEB7CA1BDB0B0FB6F894DEBF0FBECDBF2E
:101B100009942A88398848885F846E847D848C84FF
:101B20009B84AA84B984C884DF80EE80FD800C8108
:101B30001B81AA81B981CE0FD11D0FB6F894DEBFEB
:101B40000FBECDBFED010895EE0FFF1F0590F4917C
:101B5000E02D0994DF92EF92FF920F931F93CF93A2
:101B6000DF937A01D02E122F283008F017E0A7015A
:101B7000212F00E00E94340E682FF7015191252F8C
:101B800050FF04C053FD02C08DE209C0D1FE02C067
:101B90008BE205C0D0FC02C0C70104C080E2D701BF
:101BA0008C93CF01482F392F23FF03C066E171E0EA
:101BB00004C022FF0BC06EE071E0D2FE02C06C5F79
:101BC0007F4F842F932F0E940C0F45C0F701218176
:101BD000DC012D93213309F05F7E1123A9F0E70189
:101BE000842F932FFC01912F2EE28A812183915023
:101BF00021963196282F9923C1F71150812F90E01B
:101C00000196A80FB91F2D93D2FC02C085E601C032
:101C100085E4962FFD01819367FF07C08DE2119641
:101C20008C93DF01119691950AC0662329F454FF25
:101C300003C0DF018DE202C0DF018BE28D9380E300
:101C400002C08F5F9A509A30E4F7FD018193905D56
:101C500011969C931182C701DF91CF911F910F9133
:101C6000FF90EF90DF900895283008F027E03327A9
:101C7000DA01990F311D87FD9160009661057105AC
:101C800039F432602E5F3D9330E32A95E1F70895F1
:101C90009F3F30F080387105610509F03C5F3C5F83
:101CA0003D93913008F08068911DDF93CF931F938F
:101CB0000F93FF92EF92192F987F9695E92F9695A3
:101CC0009695E90FFF27E858FE4F99273327EE2412
:101CD000FF24A701E70105900894079428F4360F24
:101CE000E71EF81E491F511D660F771F881F991F99
:101CF0000694A1F70590079428F4E70EF81E491FF3
:101D0000561FC11D770F881F991F661F0694A1F7E4
:101D10000590079428F4F80E491F561FC71FD11DC0
:101D2000880F991F661F771F0694A1F705900794E7
:101D300020F4490F561FC71FD81F990F661F771F22
:101D4000881F0694A9F784911095177041F0D695D5
:101D5000C79557954795F794E7941A95C1F7EEE123
:101D6000F1E06894159015913591659195910590E4
:101D70007FE27395E118F10A430B560BC90BD009AA
:101D8000C0F7E10CF11E431F561FC91FD01D7EF482
:101D9000703311F48A95E6CFE894015030F0080FC3
:101DA0000AF40027021708F4202F2395022F7A3314
:101DB00028F079E37D932A95E9F710C07D932A9561
:101DC00089F6069497956795379517951794E118B6
:101DD000F10A430B560BC90BD00998F023957E915D
:101DE00073957A3308F070E37C932013B8F77E91F3
:101DF00070617D9330F0839571E37D9370E32A9554
:101E0000E1F71124EF90FF900F911F91CF91DF9197
:101E1000992787FD90950895FB01DC0105900D92AF
:0A1E20000020E1F70895F894FFCFC9
:101E2A004F68204E6F004920616D20537475636BB3
:101E3A00004C65667420207C2020205269676874F3
:101E4A0020004F4E2000436F756E74202020202002
:101E5A00206C696E65730056616C3A005475726E37
:101E6A00696E6721002020202054617065426F74DA
:101E7A002056312E3020200059617920697420467D
:101E8A00696E697368656400434D4420556E7265D6
:0A1E9A00636F676E697A65640000EB
:00000001FF
