:100000000C940C010C9434010C9434010C943401C4
:100010000C9434010C9434010C9434010C9434018C
:100020000C9434010C9434010C9434010C9434017C
:100030000C9434010C9434010C9434010C94FE0A99
:100040000C9434010C9434010C9434010C9434015C
:100050000C9434010C9434010C9434010C9434014C
:100060000C9434010C94400C0C9434010C94340125
:100070000C9434010C9434010C9434010C9434012C
:100080000C9434010C9434010C94AC060C9434019F
:100090000C94F60B0C9434010C9434010C94340140
:1000A0000C9434010C9434010C9434010C943401FC
:1000B0000C9434010C9434010C9434010C943401EC
:1000C0000C9434010C9434010C9434016B0B6E0BC2
:1000D000E90BE90B710B740B770B7A0BDF0BE90B58
:1000E0007D0B800B830BE90BE90BE90BE90BE90BAB
:1000F000E90B860B920B9E0BDF0BDF0BA10BE90BC1
:10010000E90BE90BE90BAD0BBC0BD00BC60B696E11
:100110006600494E46006E616E004E414E00004042
:100120007A10F35A00A0724E18090010A5D4E80006
:1001300000E87648170000E40B54020000CA9A3B1E
:10014000000000E1F50500008096980000004042A4
:100150000F000000A0860100000010270000000032
:10016000E803000000006400000000000A00000036
:1001700000000100000000002C76D888DC674F08E2
:1001800023DFC1DFAE59E1B1B796E5E3E453C63AE8
:10019000E651997696E8E6C28426EB898C9B62ED5F
:1001A000407C6FFCEFBC9C9F40F2BAA56FA5F49019
:1001B000055A2AF75C936B6CF9676DC11BFCE0E490
:1001C0000D47FEF520E6B500D0ED902E03009435E6
:1001D00077050080841E080000204E0A000000C839
:1001E0000C333333330F986E12831141EF8D21148A
:1001F000893BE65516CFFEE6DB18D1844B381BF75A
:100200007C1D901DA4BBE424203284725E228100F8
:10021000C9F124ECA1E53D2711241FBECFEFD1E2A7
:10022000DEBFCDBF14BE88E10FB6F89480936000A6
:10023000109260000FBE12E0A0E0B2E0EEE6F4E241
:1002400000E00BBF02C007900D92AE3CB107D9F79A
:1002500013E0AEECB2E001C01D92A530B107E1F7AA
:100260000E9468020C9435120C940000F894249AB1
:100270002C98EBE6F0E0808180618083808180684B
:100280008083E8E6F0E0808181608083789408953F
:100290000895BF92CF92DF92EF92FF920F931F9338
:1002A0000E94020680E092E00E94BA0581E090E0A0
:1002B00062E070E00E94ED0580E090E00E948B0516
:1002C00081E090E066E070E00E94ED0580E090E063
:1002D0000E948B0581E090E06CE070E00E94ED05EB
:1002E00080E090E00E948B05DD24EE24FF2410E0E6
:1002F00081E090E00E94A007082F80E090E00E943B
:10030000A007B82E83E090E00E94A007C82E80E0EE
:1003100090E062E070E00E94ED058C2D90E00E947C
:100320008B0580E090E067E070E00E94ED05802F93
:1003300090E00E948B0580E090E06CE070E00E940D
:10034000ED058B2D90E00E948B05112371F584E65D
:100350008C1560F4D39481E090E062E070E00E943C
:10036000ED058D2D90E00E948B0514E0053660F0C0
:10037000E39481E090E067E070E00E94ED058E2D4F
:1003800090E00E948B05116084E68B1508F0B0CFD9
:10039000F39481E090E06CE070E00E94ED058F2D19
:1003A00090E00E948B051260A3CF113019F584E60E
:1003B0008B1560F4F39481E090E069E070E00E94B6
:1003C000ED058F2D90E00E948B0513E084E68C15DF
:1003D00060F4D39481E090E062E070E00E94ED056B
:1003E0008D2D90E00E948B051460023308F080CFC1
:1003F0001E7F7ECF123019F5053660F0E39481E060
:1004000090E063E070E00E94ED058E2D90E00E9488
:100410008B0513E084E68C1560F4D39481E090E0C2
:1004200062E070E00E94ED058D2D90E00E948B054A
:10043000146081E38B1508F45BCF1D7F59CF143016
:10044000F1F40B3A60F0E39481E090E067E070E053
:100450000E94ED058E2D90E00E948B0515E084E64C
:100460008B15A0F4F39481E090E06CE070E00E94C2
:10047000ED058F2D90E00E948B05126007C00233BE
:1004800008F41E7F81E38B1508F01D7F81E38C1536
:1004900008F42ECF1B7F2CCF81E090E060E070E06D
:1004A0000E945406089581E090E06CEA70E00E949A
:1004B0005406089580E090E06FEF70E00E945406CB
:1004C000089580E090E06EE670E00E945406089582
:1004D0000E944304F89480E090E060E070E00E94A5
:1004E000D80281E090E060E070E00E94D8020E94B3
:1004F0000E0680E192E00E94BA050E94FE05789403
:1005000080E090E06EE670E00E9454060E94BD021A
:1005100081E090E06CEA70E00E9454060E944D0E6B
:100520000E9438100E94DE0E81E090E060E070E0F2
:100530000E9454060E94D60F0E940E0683E292E0AB
:100540000E94BA05FFCF20EA3FE004C0F9013197CD
:10055000F1F701970097D1F7089524E030E004C047
:10056000F9013197F1F701970097D1F7089589B113
:1005700082958F708095817008954C99FECF8EE1A1
:1005800090E020EA3FE0F9013197F1F70197D9F7C0
:100590004C9BFECF8EE190E020EA3FE0F9013197DD
:1005A000F1F70197D9F70895A29A0895A2980895AE
:1005B0008230A8F1482F42506130710539F1613025
:1005C000710528F06230710509F04EC00FC081B18D
:1005D00021E030E002C0220F331F4A95E2F7209558
:1005E000822381B982B1282322B9089531B181E0F3
:1005F00090E002C0880F991F4A95E2F7282F2095B6
:10060000232321B922B1822B82B9089581B102C07E
:10061000660F771F4A95E2F7862B81B908958130DE
:1006200091F46130710569F06130710520F062303C
:100630007105D1F403C027982F98089527982F9A11
:100640000895279A08956130710569F06130710548
:1006500020F06230710541F403C024982C9808956D
:1006600024982C9A0895249A0895282F80FF02C078
:10067000249A01C0249821FF02C0279A01C027981C
:10068000969587959695879581B90895249905C083
:1006900080FF02C02C9A01C02C98279905C081FFC9
:1006A00002C02F9A01C02F989695879596958795A9
:1006B00040E050E0682F70E0E1E0F0E081B190E0D0
:1006C000042E02C0959587950A94E2F780FD1FC01D
:1006D000CB01042E02C0959587950A94E2F780FF1E
:1006E0000BC022B1CF01042E02C0880F991F0A94BB
:1006F000E2F7282B22B90BC022B1CF01042E02C091
:10070000880F991F0A94E2F78095822382B94F5F80
:100710005F4F4830510591F608958230B0F040B1F6
:10072000282F30E02250304081E090E0022E02C0BD
:10073000880F991F0A94E2F750E08423952302C0A2
:10074000959587952A95E2F70895813029F483B12C
:10075000881F8827881F089583B190E0807190706A
:1007600044E0959587954A95E1F708956623B9F099
:10077000823078F042B1282F30E02250304081E0C2
:1007800090E002C0880F991F2A95E2F7482B42B9E2
:100790000895813011F42F9A08952C9A089582308B
:1007A00080F042B1282F30E02250304081E090E0CC
:1007B00002C0880F991F2A95E2F78095842382B999
:1007C0000895813011F42F9808952C9808959C0174
:1007D000369527953695279522B945B190E09C012D
:1007E0002170307074E0220F331F7A95E1F74F7655
:1007F000422B82709070959587959695982F8827B3
:1008000097958795482B45B9089540B183B123B199
:1008100030E020713070B4E035952795BA95E1F756
:1008200050E0440F551F440F551F242B352B881FB4
:100830008827881F90E0880F991F282B392BC90122
:100840000895823068F0282F30E02250304081E057
:1008500090E002C0880F991F2A95E2F780B90895A9
:10086000813011F480E801C080E183B9089528E067
:1008700088E190E00FB6F894A895809360000FBED1
:1008800020936000FFCF54985C9A9A9A559A8FEF04
:1008900087B90E9416060E9427070E9476060E94CA
:1008A00097070E94150B0E94340B0E94ED0A0895D1
:1008B000982F990F9A7A86958575982B892F880F8E
:1008C000880F8C7C969596959373892B8295F894D6
:1008D0005E9A88B981E090E00E94AD025E987894BB
:1008E00008955F9A0E94580482E390E00E94AD024E
:1008F00008958F708A3010F4805D01C0895C0E9479
:10090000710408950F931F938C01812F82958F702E
:100910000E947904812F0E947904802F82958F7024
:100920000E947904802F0E9479041F910F910895ED
:100930001F93182F82958F700E947904812F0E9437
:1009400079041F910895CF93DF93EC018A309105CC
:10095000D8F18436910558F183E0C83ED807D0F02D
:1009600087E2C031D80748F0CE0160E177E20E940B
:100970006810862F805D0E947104CE0160E177E2ED
:100980000E94681068EE73E00E946810862F805DF8
:100990000E947104CE0168EE73E00E94681064E664
:1009A00070E00E946810862F805D0E947104CE0165
:1009B00064E670E00E9468106AE070E00E946810CF
:1009C000862F805D0E947104CE016AE070E00E9473
:1009D0006810805D0E947104DF91CF910895CF93DC
:1009E000DF93EC0197FD05C08BE20E947104CE01FC
:1009F00007C08DE20E947104882799278C1B9D0BEC
:100A00000E94A304DF91CF9108950F931F938C014F
:100A100060E177E20E946810862F805D0E94710479
:100A2000C80160E177E20E94681068EE73E00E94FE
:100A30006810862F805D0E947104C80168EE73E023
:100A40000E94681064E670E00E946810862F805D46
:100A50000E947104C80164E670E00E9468106AE0B8
:100A600070E00E946810862F805D0E947104C801AA
:100A70006AE070E00E946810805D0E9471041F911E
:100A80000F910895CF93DF93EC0197FD05C08BE2A2
:100A90000E947104CE0107C08DE20E947104882774
:100AA00099278C1B9D0B0E940505DF91CF9108951E
:100AB0001F93182F8A3098F0843630F064E60E9435
:100AC0005C10805D0E947104812F64E60E945C10BE
:100AD000892F6AE00E945C10805D0E947104812F62
:100AE0006AE00E945C10892F805D0E9471041F9152
:100AF00008951F93182F87FD05C08BE20E94710493
:100B0000812F05C08DE20E947104812F81950E9482
:100B100058051F9108951F93182F64E60E945C10DA
:100B2000805D0E947104812F64E60E945C10892F11
:100B30006AE00E945C10805D0E947104812F6AE06F
:100B40000E945C10892F805D0E9471041F9108959E
:100B50001F93182F87FD05C08BE20E947104812F1F
:100B600005C08DE20E947104812F81950E948B0542
:100B70001F9108951F93CF93DF93EC0110E003C002
:100B80001F5F0E947104FE01E10FF11D8081882327
:100B9000B9F7DF91CF911F910895AAE0B0E0E3ED9E
:100BA000F5E00C949B107E010894E11CF11CA70158
:100BB00023E030E000E010E00E94CC10C7010E946A
:100BC000BA052A96E6E00C94B7105F980E94580484
:100BD00084E690E00E94AD020895282F30E086E080
:100BE000220F331F8A95E1F7862F61E10E945C1086
:100BF000892F822B80680E94E505089580EC0E9471
:100C0000E505089580E80E94E505089588E00E94C2
:100C1000E50508958CE00E94E505089581E00E94B5
:100C2000E50584EE9CE00E94AD020895569A579A1D
:100C30005E988FE090E00E94A30288E30E94E505A1
:100C400084E293E10E94AD0288E30E94E50582E31D
:100C500090E00E94AD0288E30E94E50588E30E94CF
:100C6000E5050E9406060E940E0686E00E94E50544
:100C70000E940A0608958830B0F4E82FF0E0EE0FE5
:100C8000FF1FDF01AD52BD4F88EF91E111969C939C
:100C90008E932D913C9188E893E1821B930BED514B
:100CA000FD4F9183808308958830F8F42CE0629F93
:100CB0009001112428543A4FE82FF0E0EE0FFF1F67
:100CC000DF01AD52BD4F4D915C9188E893E1841BEB
:100CD000950BF894DF01AD52BD4F11963C932E93C6
:100CE000ED51FD4F918380837894089520E030E0AA
:100CF00068EF71E148E853E1F901EE0FFF1FDF01F2
:100D0000AD52BD4F11967C936E938D919C91DA01FB
:100D1000A81BB90BED51FD4FB183A0832F5F3F4F4F
:100D20002830310549F780919100826080939100CD
:100D3000809171008860809371007894089588B9DB
:100D400081E0982F9A95F1F75D9A982F9A95F1F78F
:100D50005D988A95F1F708951F920F920FB60F9242
:100D60000BB60F9211242F933F934F935F936F9382
:100D70007F938F939F93AF93BF93EF93FF93809154
:100D8000CF028130C9F480E00E949F0680919C00D0
:100D900090919D00E091CE02F0E0EE0FFF1FED512B
:100DA000FD4F20813181280F391F30939D00209302
:100DB0009C001092CF0238C08091CE028F5F80934A
:100DC000CE028091CE02883011F41092CE02E091D2
:100DD000CE02F0E0EE0FFF1FED52FD4F80819181BA
:100DE000885F914159F02091CE0281E090E002C0ED
:100DF000880F991F2A95E2F70E949F0620919C0078
:100E000030919D00E091CE02F0E0EE0FFF1FED5219
:100E1000FD4F80819181820F931F90939D0080935D
:100E20009C0081E08093CF02FF91EF91BF91AF9141
:100E30009F918F917F916F915F914F913F912F91F2
:100E40000F900BBE0F900FBE0F901F901895E0E80B
:100E5000F0E081E080838BE0809381008DB1806C35
:100E60008DB9259A808180688083109289001092C4
:100E700088008DB18C608DB9269A808180628083D4
:100E800010928B0010928A0008958F3729F41092E7
:100E900088006D9A759808956D98759A282F30E09E
:100EA00087FF08C08EB18F7380688EB9822F880F3C
:100EB0008F5F0AC08EB18F7380648EB98FE790E028
:100EC000821B930B880F991F8093880008958FEFE2
:100ED000809388008EB18F738EB908958F3729F46F
:100EE00010928A006C9A749808956C98749A282FBE
:100EF00030E087FF08C08EB1837F84608EB9822F77
:100F0000880F8F5F0AC08EB1837F88608EB98FE7AC
:100F100090E0821B930B880F991F80938A0008959D
:100F20008FEF80938A008EB1837F8EB9089580E61B
:100F300080937C00EAE7F0E08081876880830895F1
:100F4000982F883010F08DEB089580E680937C0018
:100F500080917C00892B80937C0080917A00806452
:100F600080937A0080917A0086FDFCCF8091790091
:100F70000895982F883018F02DEA3BE01BC080E4DC
:100F800080937C0080917C00892B80937C008091F1
:100F90007A00806480937A0080917A0086FDFCCF8D
:100FA0003091780020917900922F80E0232F30E05B
:100FB000282B392BC9010895E9EBF0E080818D7F62
:100FC000808380818160808382E18093B80008956E
:100FD00084EA8093BC008091BC0087FFFCCF8091A5
:100FE000B900887F08958093BB0084E88093BC009B
:100FF0008091BC0087FFFCCF8091B900887F089565
:10100000982F813011F484EC01C084E88093BC00F7
:101010008091BC0087FFFCCF913031F48091B90002
:10102000887F803559F407C0992329F48091B9004D
:10103000887F883519F48091BB00089580E0089579
:1010400084E98093BC000895982F84EA8093BC00C3
:101050008091BC0087FFFCCF8091B900887F8830E9
:1010600011F0803109F59093BB0084E88093BC00B7
:101070008091BC0087FFFCCF8091B900887F8831C8
:1010800099F46093BB0084E88093BC008091BC001D
:1010900087FFFCCF8091B900887F883229F484E9EA
:1010A0008093BC0081E0089580E00895982F84EA41
:1010B0008093BC008091BC0087FFFCCF8091B90079
:1010C000887F883011F0803179F59093BB0084E8F7
:1010D0008093BC008091BC0087FFFCCF8091B90059
:1010E000887F883109F56093BB0084E88093BC0059
:1010F0008091BC0087FFFCCF8091B900887F883247
:1011000099F47093BB0084E88093BC008091BC008C
:1011100087FFFCCF8091B900887F883229F484E969
:101120008093BC0081E0089580E00895982F84EAC0
:101130008093BC008091BC0087FFFCCF8091B900F8
:10114000887F883011F08031B9F49F5F9093BB00A5
:1011500084E88093BC008091BC0087FFFCCF809125
:10116000B900887F803441F480E00E940008982F05
:1011700084E98093BC0001C090E0892F0895982FE6
:1011800084EA8093BC008091BC0087FFFCCF8091F3
:10119000B900887F883011F0803179F59093BB00D9
:1011A00084E88093BC008091BC0087FFFCCF8091D5
:1011B000B900887F883109F56093BB0084E880938B
:1011C000BC008091BC0087FFFCCF8091B900887F74
:1011D000883299F44093BB0084E88093BC008091EE
:1011E000BC0087FFFCCF8091B900887F883229F44A
:1011F00084E98093BC0081E0089580E00895982FF1
:1012000084EA8093BC008091BC0087FFFCCF809172
:10121000B900887F883019F0803109F03FC0909381
:10122000BB0084E88093BC008091BC0087FFFCCFAA
:101230008091B900887F883189F56093BB0084E88C
:101240008093BC008091BC0087FFFCCF8091B900E7
:10125000887F883219F584EA8093BC008091BC00B5
:1012600087FFFCCF8091B900887F883011F08031F2
:10127000A9F49F5F9093BB0084E88093BC008091A9
:10128000BC0087FFFCCF8091B900887F803431F4A7
:1012900080E00E94000894E99093BC000895982F84
:1012A00084EA8093BC008091BC0087FFFCCF8091D2
:1012B000B900887F883011F08031B9F59093BB0078
:1012C00084E88093BC008091BC0087FFFCCF8091B4
:1012D000B900887F883149F56093BB0084E880932A
:1012E000BC008091BC0087FFFCCF8091B900887F53
:1012F0008832D9F4F90190E024E810C0808180930D
:10130000BB002093BC008091BC0087FFFCCF809184
:10131000B9003196887F883241F49F5F941770F34B
:1013200084E98093BC0081E0089580E00895CF9225
:10133000DF92FF920F931F93CF93DF93982F690152
:1013400084EA8093BC008091BC0087FFFCCF809131
:10135000B900887F883019F0803109F057C0909328
:10136000BB0084E88093BC008091BC0087FFFCCF69
:101370008091B900887F883109F048C06093BB0034
:1013800084E88093BC008091BC0087FFFCCF8091F3
:10139000B900887F8832D1F584EA8093BC008091BF
:1013A000BC0087FFFCCF8091B900887F883011F0A6
:1013B000803161F59F5F9093BB0084E88093BC000F
:1013C0008091BC0087FFFCCF8091B900887F80347A
:1013D000E9F4FF24C42FD0E0219706C081E00E94E9
:1013E0000008F8018083F3948F2D90E08601080FA8
:1013F000191F8C179D0794F380E00E940008F801E4
:10140000808384E98093BC0081E001C080E0DF91AB
:10141000CF911F910F91FF90DF90CF900895982F5B
:1014200084EA8093BC008091BC0087FFFCCF809150
:10143000B900887F883019F0803109F045C0909359
:10144000BB0084E88093BC008091BC0087FFFCCF88
:101450008091B900887F8831B9F57093BB0084E82A
:101460008093BC008091BC0087FFFCCF8091B900C5
:10147000887F883249F56093BB0084E88093BC0084
:101480008091BC0087FFFCCF8091B900887F8832B3
:10149000D9F4F90190E024E810C080818093BB006A
:1014A0002093BC008091BC0087FFFCCF8091B900E5
:1014B0003196887F883241F49F5F941770F384E9F6
:1014C0008093BC0081E0089580E00895CF92DF9280
:1014D000FF920F931F93CF93DF93982F690184EAB4
:1014E0008093BC008091BC0087FFFCCF8091B90045
:1014F000887F883019F0803109F066C09093BB0076
:1015000084E88093BC008091BC0087FFFCCF809171
:10151000B900887F883109F057C07093BB0084E818
:101520008093BC008091BC0087FFFCCF8091B90004
:10153000887F883209F048C06093BB0084E88093BC
:10154000BC008091BC0087FFFCCF8091B900887FF0
:101550008832D1F584EA8093BC008091BC0087FF7B
:10156000FCCF8091B900887F883011F0803161F51F
:101570009F5F9093BB0084E88093BC008091BC0087
:1015800087FFFCCF8091B900887F8034E9F4FF2485
:10159000C42FD0E0219706C081E00E940008F80126
:1015A0008083F3948F2D90E08601080F191F8C170C
:1015B0009D0794F380E00E940008F801808384E98D
:1015C0008093BC0081E001C080E0DF91CF911F914A
:1015D0000F91FF90DF90CF90089580E28093B60046
:1015E00085E08093B10081E0809370001092D20278
:1015F0001092D1021092B200789408951F920F9227
:101600000FB60F9211248F939F938091D1029091E6
:10161000D20201969093D2028093D1029F918F9132
:101620000F900FBE0F901F901895F89487E6809347
:10163000C4001092C5001092C00086E08093C200E2
:1016400088E98093C100789408958091C00087FF55
:10165000FCCF8091C6000895982F8091C00085FF2F
:10166000FCCF9093C6000895F89487E68093CC0051
:101670001092CD001092C80086E08093CA0088E9DD
:101680008093C900789408958091C80087FFFCCFAB
:101690008091CE000895982F8091C80085FFFCCFDF
:1016A0009093CE0008952091F402922F80E0209133
:1016B000F50230E0282B392BC90108958091F302FF
:1016C00090E0FC013197E132F10508F082C0EA595F
:1016D000FF4F0C94C6100E94D40285C00E94D6020F
:1016E00082C00E940A067FC00E9406067CC00E943B
:1016F0000E0679C00E94020676C00E94370473C0AD
:101700000E94670770C00E9490076DC02091F4028C
:10171000922F80E02091F50230E0822B932B0E94E3
:10172000A30261C02091F402922F80E02091F50283
:1017300030E0822B932B0E94AD0255C084EF92E0E3
:1017400050C02091F402922F80E02091F50230E009
:10175000822B932B0E943B0646C02091F40260919D
:10176000F502922F80E070E0682B792B872F90E0B4
:1017700070E00E94540637C09091F4028091F50207
:1017800020E0822B90E00E9445072DC09091F4024A
:101790008091F50220E0822B90E00E946E0723C02A
:1017A0002091F4026091F502922F80E070E0682BA6
:1017B000792B872F90E070E00E94ED0514C00E9405
:1017C000B702982F8091C00085FFFCCF9093C60090
:1017D0000AC080E090E060E070E00E94ED0581E3E7
:1017E00092E00E94BA051092D00208951F920F92C3
:1017F0000FB60F920BB60F9211242F933F934F9376
:101800005F936F937F938F939F93AF93BF93EF9368
:10181000FF939091C6008091D002823118F010920F
:10182000D0021BC08091D002E82FF0E0ED50FD4FB8
:1018300090838F5F8093D0028091F302843158F0BF
:101840008091F302863119F4992339F404C0809110
:10185000D002833011F40E945E0BFF91EF91BF9193
:10186000AF919F918F917F916F915F914F913F9138
:101870002F910F900BBE0F900FBE0F901F901895D9
:101880001F920F920FB60F920BB60F9211242F9347
:101890003F934F935F936F937F938F939F93AF93F8
:1018A000BF93EF93FF939091C6008091D002823155
:1018B00018F01092D0021BC08091D002E82FF0E007
:1018C000ED50FD4F90838F5F8093D0028091F302A3
:1018D000843158F08091F302863119F4992339F458
:1018E00004C08091D002833011F40E945E0BFF91FE
:1018F000EF91BF91AF919F918F917F916F915F9188
:101900004F913F912F910F900BBE0F900FBE0F90F4
:101910001F901895EF92FF920F931F93CF93DF9331
:10192000E82EF62E10E0C0E0D0E017C081E090E095
:101930000E94A30221968BE1C935D80781F08E2D34
:1019400090E00E94A007002329F4853630F01F5F45
:1019500001E003C0863408F400E01F1539F7CDB765
:10196000DEB7E6E00C94B710EF92FF920F931F934F
:10197000CF93DF93E82E00E0C0E0D0E081E090E07C
:101980000E94A30221968BE1C935D80729F180E096
:1019900090E00E94A007182F81E090E00E94A0072D
:1019A000F82E153650F0EE2019F00E94670704C09B
:1019B0008FE790E00E944507016084E68F1550F4A0
:1019C000EE2019F00E94900704C08FE790E00E947B
:1019D0006E070260033090F2CDB7DEB7E6E00C94FC
:1019E000B7100F931F9383E090E00E94A007082F89
:1019F00086E490E00E94450784E690E00E946E072E
:101A000080E991E00E94A30280EA90E00E946E07C4
:101A100010E01DC083E090E00E94A007082F8AE03C
:101A200090E00E94A3021B3F88F082E390E00E94B6
:101A3000171080E991E00E94A30280EA90E00E94E2
:101A40006E0786E490E00E94450710E01F5F0531B5
:101A500008F780E090E00E9426101F910F910895F2
:101A600084EB90E00E94450781E990E00E946E07B8
:101A700088EC90E00E94A30280E062E00E948A0C61
:101A80008CE390E00E9417108CE291E00E94A30288
:101A90008CE390E00E94261081E00E94B40C82E367
:101AA00090E00E94171088EC90E00E94A30282E36D
:101AB00090E00E94261081E00E94B40C0E94381031
:101AC00008951F93182FF89486E490E00E94261042
:101AD00082E390E00E946E0784E690E00E94A302F9
:101AE00081E0612F0E948A0C82E390E00E94A302B1
:101AF00081E00E94B40C82E390E00E94171088EC11
:101B000090E00E94A30282E390E00E94261081E010
:101B10000E94B40C78940E9438101F91089586E4B6
:101B200090E00E94261088EC90E00E94A30282E3DD
:101B300090E00E94261081E00E94B40C82E390E0C5
:101B40000E94171088EC90E00E94A30282E390E0CC
:101B50000E94261081E00E94B40C0E9438108CE391
:101B600090E00E94171088EC90E00E94A30280EAA7
:101B700090E00E94450788EC90E00E946E0780E0AC
:101B800061E00E948A0C81E00E94B40C82E390E044
:101B90000E94171088EC90E00E94A30286E490E077
:101BA0000E94261081E00E94B40C0E94381088EC3C
:101BB00090E00E94A30208951F938CE390E00E949E
:101BC00045078CE390E00E946E0782E090E00E945F
:101BD000A007182F83E090E00E94A0078D3250F4F8
:101BE000163418F48DE290E0EECF153650F38AE506
:101BF00090E0E9CF82E390E00E94A30283E090E0CE
:101C00000E94A0078D3208F30E9438101F9108959A
:101C10001F93182FF8948DE790E00E943D1083E009
:101C200090E00E94450781E090E00E946E0782E00C
:101C3000612F0E948A0C7894153059F488EC90E05A
:101C40000E94A30282E390E00E94261081E00E949D
:101C5000B40C0E9438101F9108950E940E0682E471
:101C600092E00E94BA050E948F0D0E940E068AE43F
:101C700092E00E94BA0582E00E94610D0E940E0669
:101C800085E592E00E94BA050E948F0D0E940E0623
:101C900080E692E00E94BA0508950E940E0681E057
:101CA00090E060E070E00E94BA0586E490E00E9457
:101CB000450780E590E00E946E0780E061E00E94A9
:101CC0008A0C86E490E00E94261008950E940E0679
:101CD0000E94020689E692E00E94BA0586E490E03E
:101CE0000E94261082E062E00E948A0C88E290E066
:101CF0000E94031080E061E00E948A0C0E9438106C
:101D000084EB90E00E946E0782E061E00E948A0C02
:101D10008CE390E00E94450781E490E00E946E070A
:101D20008CE291E00E94A30208951F93182F82E392
:101D300090E00E94261082E061E00E948A0C812FD0
:101D400090E00E94A3020E94381088E290E00E9476
:101D5000031080E062E00E948A0C8CE390E00E9415
:101D60001710112319F48EE591E002C084E690E08B
:101D70000E94A30288E290E00E94261081E00E9467
:101D8000B40C0E94381088E290E00E94031084E6B0
:101D900090E00E94A30282E390E00E9417108CE280
:101DA00091E00E94A30288E290E00E94261081E068
:101DB0000E94B40C0E9438101F9108950F931F9336
:101DC0000E940E0682E792E00E94BA0586E90E9410
:101DD000950E0E940E0680E892E00E94BA0585E00A
:101DE0000E94080E0E940E060DE812E0C8010E9433
:101DF000BA0580E00E94950E0E940E0682E492E0F1
:101E00000E94BA050E94660E0E940E06C8010E943A
:101E1000BA0584E60E94950E0E940E0683E992E0C0
:101E20000E94BA0585E00E94080E0E940E0688E90D
:101E300092E00E94BA0580E00E94950E1F910F91DA
:101E40000895EF92FF921F93CF93DF93F89487E367
:101E500090E00E946E078CE390E00E944507EE241C
:101E6000FF240FC081E090E00E94A30289EEE816F3
:101E700083E0F80619F4EE24FF240FC00894E11C57
:101E8000F11C80E090E00E948D03892B31F481E009
:101E900090E00E948D03892B29F380E090E00E945E
:101EA0008D03892B19F00E94900708C081E090E013
:101EB0000E948D03892B11F00E94670784EF91E047
:101EC0000E94A30282E390E00E941710C0E0D0E0DD
:101ED00010E08AE090E00E94A30280E090E00E947F
:101EE000A00785369105F4F082E390E00E94261069
:101EF0000CC081E090E00E94A30283E0C93ED807B5
:101F000018F0C0E0D0E00DC0219680E090E00E9483
:101F10008D03892B31F481E090E00E948D03892BA1
:101F200041F319E61F5F1436A0F2143621F0EF28B2
:101F300011F0CD2B31F40E94381080E0173680F577
:101F40002EC00E945A0288EE93E00E94A30283E210
:101F500090E00E94171084E690E00E94A30281E4C2
:101F600090E00E9426108CE291E00E94A3020E9461
:101F7000381080ED97E00E94A3020E94610280E980
:101F800091E00E94A3028CED90E00E94450788EC4E
:101F900090E00E946E0780E991E00E94A30281E038
:101FA000DF91CF911F91FF90EF9008951F930E94B2
:101FB0000E0685EA92E00E94BA050E94DC0D0E949E
:101FC0000E0682EB92E00E94BA050E94210F182FA4
:101FD0000E940E0687EB92E00E94BA050E94F10C67
:101FE000112329F30E940E0681EC92E00E94BA05AB
:101FF0000E94DC0D0E940E0687EB92E00E94BA055B
:102000000E94F10CD4CF0F931F93082F112707FDC7
:1020100010958FE790E0801B910B0E944507C80147
:1020200081589F4F0E946E071F910F9108950F9343
:102030001F93082F10E001581F4FC8010E94450749
:10204000C8010E946E071F910F9108950F931F936F
:10205000992787FD90950FE710E0081B190BC80121
:102060000E944507C8010E946E071F910F910895B5
:102070000E9467070E9490070895FF920F931F9395
:10208000F82E63E10E945C10082F11E00FC01F9D25
:10209000C0011124602F70E00E947C10862F0E94E6
:1020A000261083E190E00E94A3021F5F011778F7DA
:1020B0001F910F91FF900895991B79E004C0991F1B
:1020C000961708F0961B881F7A95C9F78095089592
:1020D000AA1BBB1B51E107C0AA1FBB1FA617B7074E
:1020E00010F0A61BB70B881F991F5A95A9F780956A
:1020F0009095BC01CD01089597FB092E07260AD0C3
:1021000077FD04D0E5DF06D000201AF470956195C4
:102110007F4F0895F6F7909581959F4F08952F92E0
:102120003F924F925F926F927F928F929F92AF9267
:10213000BF92CF92DF92EF92FF920F931F93CF93B4
:10214000DF93CDB7DEB7CA1BDB0B0FB6F894DEBF4B
:102150000FBECDBF09942A88398848885F846E8471
:102160007D848C849B84AA84B984C884DF80EE80BB
:10217000FD800C811B81AA81B981CE0FD11D0FB6C4
:10218000F894DEBF0FBECDBFED010895EE0FFF1F27
:102190000590F491E02D0994DF92EF92FF920F9356
:1021A0001F93CF93DF937A01D02E122F283008F09F
:1021B00017E0A701212F00E00E945611682FF701B8
:1021C0005191252F50FF04C053FD02C08DE209C07C
:1021D000D1FE02C08BE205C0D0FC02C0C70104C022
:1021E00080E2D7018C93CF01482F392F23FF03C002
:1021F00066E171E004C022FF0BC06EE071E0D2FE28
:1022000002C06C5F7F4F842F932F0E942E1245C017
:10221000F7012181DC012D93213309F05F7E112329
:10222000A9F0E701842F932FFC01912F2EE28A81E0
:102230002183915021963196282F9923C1F711506F
:10224000812F90E00196A80FB91F2D93D2FC02C0F8
:1022500085E601C085E4962FFD01819367FF07C0E5
:102260008DE211968C93DF01119691950AC0662339
:1022700029F454FF03C0DF018DE202C0DF018BE2CD
:102280008D9380E302C08F5F9A509A30E4F7FD018E
:102290008193905D11969C931182C701DF91CF913C
:1022A0001F910F91FF90EF90DF900895283008F074
:1022B00027E03327DA01990F311D87FD91600096E1
:1022C0006105710539F432602E5F3D9330E32A9544
:1022D000E1F708959F3F30F080387105610509F0FE
:1022E0003C5F3C5F3D93913008F08068911DDF9327
:1022F000CF931F930F93FF92EF92192F987F96958C
:10230000E92F96959695E90FFF27E858FE4F9927F4
:102310003327EE24FF24A701E701059008940794D2
:1023200028F4360FE71EF81E491F511D660F771F50
:10233000881F991F0694A1F70590079428F4E70ECB
:10234000F81E491F561FC11D770F881F991F661F52
:102350000694A1F70590079428F4F80E491F561F1C
:10236000C71FD11D880F991F661F771F0694A1F7FD
:102370000590079420F4490F561FC71FD81F990FC7
:10238000661F771F881F0694A9F784911095177010
:1023900041F0D695C79557954795F794E7941A95C8
:1023A000C1F7EEE1F1E068941590159135916591D2
:1023B000959105907FE27395E118F10A430B560B56
:1023C000C90BD009C0F7E10CF11E431F561FC91FEE
:1023D000D01D7EF4703311F48A95E6CFE894015055
:1023E00030F0080F0AF40027021708F4202F239575
:1023F000022F7A3328F079E37D932A95E9F710C00C
:102400007D932A9589F60694979567953795179544
:102410001794E118F10A430B560BC90BD00998F039
:1024200023957E9173957A3308F070E37C932013A3
:10243000B8F77E9170617D9330F0839571E37D9361
:1024400070E32A95E1F71124EF90FF900F911F910F
:10245000CF91DF91992787FD90950895FB01DC01CD
:0E24600005900D920020E1F70895F894FFCF4B
:10246E00463A202020523A2020204C3A20202000AC
:10247E002020202054617065426F742056312E301A
:10248E0020200054617065426F742057696E73216D
:10249E0000434D4420556E7265636F676E697A65B1
:1024AE00640052434F524E455200506C6F77204994
:1024BE006E6E6572005475726E20496E6E65720096
:1024CE00436F6E74696E7565005475726E696E67D2
:1024DE0021005354415254202D20525455524E0037
:1024EE00525455524E202D20504C4F570052545599
:1024FE00524E00504C4F5700504C4F57202D2052EB
:10250E005455524E004C696E6520466F6C6C6F7759
:10251E00310044756D70005475726E204F757431B4
:0E252E00004C696E6520466F6C6C6F77320052
:00000001FF
