:100000000C940C010C9434010C9434010C943401C4
:100010000C9434010C9434010C9434010C9434018C
:100020000C9434010C94CD0B0C9434010C943401D9
:100030000C9434010C9434010C9434010C94E809B0
:100040000C9434010C9434010C9434010C9434015C
:100050000C9434010C9434010C9434010C9434014C
:100060000C9434010C942A0B0C9434010C9434013C
:100070000C9434010C9434010C9434010C9434012C
:100080000C9434010C9434010C9496050C943401B6
:100090000C94E00A0C9434010C9434010C94340157
:1000A0000C9434010C9434010C9434010C943401FC
:1000B0000C9434010C9434010C9434010C943401EC
:1000C0000C9434010C9434010C943401550A580AF0
:1000D000D30AD30A5B0A5E0A610A640AC90AD30A10
:1000E000670A6A0A6D0AD30AD30AD30AD30AD30A63
:1000F000D30A700A7C0A880AC90AC90A8B0AD30A79
:10010000D30AD30AD30A970AA60ABA0AB00A696EB2
:100110006600494E46006E616E004E414E00004042
:100120007A10F35A00A0724E18090010A5D4E80006
:1001300000E87648170000E40B54020000CA9A3B1E
:10014000000000E1F50500008096980000004042A4
:100150000F000000A0860100000010270000000032
:10016000E803000000006400000000000A00000036
:1001700000000100000000002C76D888DC674F08E2
:1001800023DFC1DFAE59E1B1B796E5E3E453C63AE8
:10019000E651997696E8E6C28426EB898C9B62ED5F
:1001A000407C6FFCEFBC9C9F40F2BAA56FA5F49019
:1001B000055A2AF75C936B6CF9676DC11BFCE0E490
:1001C0000D47FEF520E6B500D0ED902E03009435E6
:1001D00077050080841E080000204E0A000000C839
:1001E0000C333333330F986E12831141EF8D21148A
:1001F000893BE65516CFFEE6DB18D1844B381BF75A
:100200007C1D901DA4BBE424203284725E228100F8
:10021000C9F124ECA1E53D2711241FBECFEFD1E2A7
:10022000DEBFCDBF14BE88E10FB6F89480936000A6
:10023000109260000FBE12E0A0E0B2E0EAE1F0E24E
:1002400000E00BBF02C007900D92AC3BB107D9F79D
:1002500012E0ACEBB2E001C01D92A33FB107E1F7A1
:100260000E9456010C940B100C940000F894249AF0
:100270002C98EBE6F0E0808180618083808180684B
:100280008083E8E6F0E0808181608083789408953F
:1002900080E090E06FEF70E00E943E05089580E0FE
:1002A00090E063E770E00E943E0508950E942D03F0
:1002B000F8940E9436010E94F80480E092E00E94C7
:1002C000A4040E94E804789480E090E063E770E082
:1002D0000E943E050E94A7010E94A50D0E94C80B26
:1002E0000E94620D0E94BD0D0E94A7010E94490C50
:1002F0000E94F80483E192E00E94A40480E090E070
:100300006FEF70E00E943E050E94A70180E090E040
:1003100063E770E00E943E05FFCF20EA3FE004C0A3
:10032000F9013197F1F701970097D1F7089524E08B
:1003300030E004C0F9013197F1F701970097D1F748
:10034000089589B182958F708095817008954C9938
:10035000FECF8EE190E020EA3FE0F9013197F1F71E
:100360000197D9F74C9BFECF8EE190E020EA3FE069
:10037000F9013197F1F70197D9F70895A29A0895F5
:10038000A29808958230A8F1482F4250613071053B
:1003900039F16130710528F06230710509F04EC005
:1003A0000FC081B121E030E002C0220F331F4A9517
:1003B000E2F72095822381B982B1282322B90895DA
:1003C00031B181E090E002C0880F991F4A95E2F7B1
:1003D000282F2095232321B922B1822B82B9089599
:1003E00081B102C0660F771F4A95E2F7862B81B96B
:1003F0000895813091F46130710569F061307105C3
:1004000020F062307105D1F403C027982F98089529
:1004100027982F9A0895279A08956130710569F0F9
:100420006130710520F06230710541F403C02498F9
:100430002C98089524982C9A0895249A0895282F8A
:1004400080FF02C0249A01C0249821FF02C0279A8D
:1004500001C02798969587959695879581B90895B7
:10046000249905C080FF02C02C9A01C02C982799BE
:1004700005C081FF02C02F9A01C02F9896958795DD
:100480009695879540E050E0682F70E0E1E0F0E05D
:1004900081B190E0042E02C0959587950A94E2F709
:1004A00080FD1FC0CB01042E02C0959587950A944C
:1004B000E2F780FF0BC022B1CF01042E02C0880FEB
:1004C000991F0A94E2F7282B22B90BC022B1CF0161
:1004D000042E02C0880F991F0A94E2F780958223A8
:1004E00082B94F5F5F4F4830510591F608958230D1
:1004F000B0F040B1282F30E02250304081E090E051
:10050000022E02C0880F991F0A94E2F750E084235C
:10051000952302C0959587952A95E2F70895813035
:1005200029F483B1881F8827881F089583B190E03C
:100530008071907044E0959587954A95E1F708950C
:100540006623B9F0823078F042B1282F30E0225093
:10055000304081E090E002C0880F991F2A95E2F7B1
:10056000482B42B90895813011F42F9A08952C9A9E
:100570000895823080F042B1282F30E02250304080
:1005800081E090E002C0880F991F2A95E2F78095DC
:10059000842382B90895813011F42F9808952C98FE
:1005A00008959C01369527953695279522B945B132
:1005B00090E09C012170307074E0220F331F7A9517
:1005C000E1F74F76422B82709070959587959695BE
:1005D000982F882797958795482B45B9089540B15E
:1005E00083B123B130E020713070B4E035952795A8
:1005F000BA95E1F750E0440F551F440F551F242BC7
:10060000352B881F8827881F90E0880F991F282B7B
:10061000392BC9010895823068F0282F30E022502C
:10062000304081E090E002C0880F991F2A95E2F7E0
:1006300080B90895813011F480E801C080E183B968
:10064000089528E088E190E00FB6F894A89580938B
:1006500060000FBE20936000FFCF54985C9A9A9A76
:10066000559A8FEF87B90E9400050E9411060E94DB
:1006700060050E9481060E94FF090E941E0A0E94D6
:10068000D7090895982F990F9A7A86958575982B92
:10069000892F880F880F8C7C969596959373892B5C
:1006A0008295F8945E9A88B981E090E00E94970163
:1006B0005E98789408955F9A0E94420382E390E0E6
:1006C0000E94970108958F708A3010F4805D01C0F8
:1006D000895C0E945B0308950F931F938C01812F07
:1006E00082958F700E946303812F0E946303802F85
:1006F00082958F700E946303802F0E9463031F9175
:100700000F9108951F93182F82958F700E94630395
:10071000812F0E9463031F910895CF93DF93EC0113
:100720008A309105D8F18436910558F183E0C83EAE
:10073000D807D0F087E2C031D80748F0CE0160E199
:1007400077E20E943E0E862F805D0E945B03CE0101
:1007500060E177E20E943E0E68EE73E00E943E0E7A
:10076000862F805D0E945B03CE0168EE73E00E94DD
:100770003E0E64E670E00E943E0E862F805D0E9471
:100780005B03CE0164E670E00E943E0E6AE070E01A
:100790000E943E0E862F805D0E945B03CE016AE0C0
:1007A00070E00E943E0E805D0E945B03DF91CF915E
:1007B0000895CF93DF93EC0197FD05C08BE20E9473
:1007C0005B03CE0107C08DE20E945B038827992757
:1007D0008C1B9D0B0E948D03DF91CF9108950F9389
:1007E0001F938C0160E177E20E943E0E862F805DB0
:1007F0000E945B03C80160E177E20E943E0E68EE52
:1008000073E00E943E0E862F805D0E945B03C8014C
:1008100068EE73E00E943E0E64E670E00E943E0EB9
:10082000862F805D0E945B03C80164E670E00E9431
:100830003E0E6AE070E00E943E0E862F805D0E94B0
:100840005B03C8016AE070E00E943E0E805D0E947A
:100850005B031F910F910895CF93DF93EC0197FDF8
:1008600005C08BE20E945B03CE0107C08DE20E94AF
:100870005B03882799278C1B9D0B0E94EF03DF9158
:10088000CF9108951F93182F8A3098F0843630F056
:1008900064E60E94320E805D0E945B03812F64E655
:1008A0000E94320E892F6AE00E94320E805D0E9403
:1008B0005B03812F6AE00E94320E892F805D0E94C7
:1008C0005B031F9108951F93182F87FD05C08BE2CE
:1008D0000E945B03812F05C08DE20E945B03812F84
:1008E00081950E9442041F9108951F93182F64E67A
:1008F0000E94320E805D0E945B03812F64E60E949D
:10090000320E892F6AE00E94320E805D0E945B03E6
:10091000812F6AE00E94320E892F805D0E945B0366
:100920001F9108951F93182F87FD05C08BE20E9429
:100930005B03812F05C08DE20E945B03812F8195AF
:100940000E9475041F9108951F93CF93DF93EC01CC
:1009500010E003C01F5F0E945B03FE01E10FF11D69
:1009600080818823B9F7DF91CF911F910895AAE084
:10097000B0E0EDEBF4E00C94710E7E010894E11C04
:10098000F11CA70123E030E000E010E00E94A20E7D
:10099000C7010E94A4042A96E6E00C948D0E5F988D
:1009A0000E94420384E690E00E9497010895282F58
:1009B00030E086E0220F331F8A95E1F7862F61E150
:1009C0000E94320E892F822B80680E94CF040895E6
:1009D00080EC0E94CF04089580E80E94CF0408951F
:1009E00088E00E94CF0408958CE00E94CF0408950F
:1009F00081E00E94CF0484EE9CE00E94970108955C
:100A0000569A579A5E988FE090E00E948D0188E395
:100A10000E94CF0484E293E10E94970188E30E9440
:100A2000CF0482E390E00E94970188E30E94CF0404
:100A300088E30E94CF040E94F0040E94F80486E03C
:100A40000E94CF040E94F40408958830B0F4E82F87
:100A5000F0E0EE0FFF1FDF01AF53BD4F88EF91E1D4
:100A600011969C938E932D913C9188E893E1821B83
:100A7000930BEF52FD4F9183808308958830F8F4F3
:100A80002CE0629F9001112428543A4FE82FF0E0A7
:100A9000EE0FFF1FDF01AF53BD4F4D915C9188E812
:100AA00093E1841B950BF894DF01AF53BD4F119672
:100AB0003C932E93EF52FD4F918380837894089559
:100AC00020E030E068EF71E148E853E1F901EE0F12
:100AD000FF1FDF01AF53BD4F11967C936E938D9135
:100AE0009C91DA01A81BB90BEF52FD4FB183A08393
:100AF0002F5F3F4F2830310549F780919100826088
:100B00008093910080917100886080937100789447
:100B1000089588B981E0982F9A95F1F75D9A982FFA
:100B20009A95F1F75D988A95F1F708951F920F92C3
:100B30000FB60F920BB60F9211242F933F934F9342
:100B40005F936F937F938F939F93AF93BF93EF9335
:100B5000FF938091BD028130C9F480E00E94890535
:100B600080919C0090919D00E091BC02F0E0EE0F1E
:100B7000FF1FEF52FD4F20813181280F391F309325
:100B80009D0020939C001092BD0238C08091BC0251
:100B90008F5F8093BC028091BC02883011F4109268
:100BA000BC02E091BC02F0E0EE0FFF1FEF53FD4FDF
:100BB00080819181885F914159F02091BC0281E050
:100BC00090E002C0880F991F2A95E2F70E948905DC
:100BD00020919C0030919D00E091BC02F0E0EE0F6E
:100BE000FF1FEF53FD4F80819181820F931F9093E0
:100BF0009D0080939C0081E08093BD02FF91EF9166
:100C0000BF91AF919F918F917F916F915F914F9124
:100C10003F912F910F900BBE0F900FBE0F901F9022
:100C20001895E0E8F0E081E080838BE0809381001C
:100C30008DB1806C8DB9259A8081806880831092F7
:100C40008900109288008DB18C608DB9269A8081C0
:100C50008062808310928B0010928A0008958F37F3
:100C600029F4109288006D9A759808956D98759A78
:100C7000282F30E087FF08C08EB18F7380688EB94F
:100C8000822F880F8F5F0AC08EB18F7380648EB9F8
:100C90008FE790E0821B930B880F991F8093880049
:100CA00008958FEF809388008EB18F738EB9089569
:100CB0008F3729F410928A006C9A749808956C9872
:100CC000749A282F30E087FF08C08EB1837F84603C
:100CD0008EB9822F880F8F5F0AC08EB1837F8860A4
:100CE0008EB98FE790E0821B930B880F991F80933A
:100CF0008A0008958FEF80938A008EB1837F8EB92A
:100D0000089580E680937C00EAE7F0E080818768C0
:100D100080830895982F883010F08DEB089580E639
:100D200080937C0080917C00892B80937C00809153
:100D30007A00806480937A0080917A0086FDFCCFEF
:100D4000809179000895982F883018F02DEA3BE0C3
:100D50001BC080E480937C0080917C00892B809371
:100D60007C0080917A00806480937A0080917A0080
:100D700086FDFCCF3091780020917900922F80E0A1
:100D8000232F30E0282B392BC9010895E9EBF0E03F
:100D900080818D7F808380818160808382E18093E8
:100DA000B800089584EA8093BC008091BC0087FF5E
:100DB000FCCF8091B900887F08958093BB0084E8C0
:100DC0008093BC008091BC0087FFFCCF8091B9006C
:100DD000887F0895982F813011F484EC01C084E855
:100DE0008093BC008091BC0087FFFCCF913031F430
:100DF0008091B900887F803559F407C0992329F480
:100E00008091B900887F883519F48091BB000895DE
:100E100080E0089584E98093BC000895982F84EAC7
:100E20008093BC008091BC0087FFFCCF8091B9000B
:100E3000887F883011F0803109F59093BB0084E8F9
:100E40008093BC008091BC0087FFFCCF8091B900EB
:100E5000887F883199F46093BB0084E88093BC005C
:100E60008091BC0087FFFCCF8091B900887F8832D9
:100E700029F484E98093BC0081E0089580E008951E
:100E8000982F84EA8093BC008091BC0087FFFCCF40
:100E90008091B900887F883011F0803179F5909386
:100EA000BB0084E88093BC008091BC0087FFFCCF2E
:100EB0008091B900887F883109F56093BB0084E890
:100EC0008093BC008091BC0087FFFCCF8091B9006B
:100ED000887F883299F47093BB0084E88093BC00CB
:100EE0008091BC0087FFFCCF8091B900887F883259
:100EF00029F484E98093BC0081E0089580E008959E
:100F0000982F84EA8093BC008091BC0087FFFCCFBF
:100F10008091B900887F883011F08031B9F49F5FEB
:100F20009093BB0084E88093BC008091BC0087FF55
:100F3000FCCF8091B900887F803441F480E00E942A
:100F4000EA06982F84E98093BC0001C090E0892FC5
:100F50000895982F84EA8093BC008091BC0087FF9D
:100F6000FCCF8091B900887F883011F0803179F50D
:100F70009093BB0084E88093BC008091BC0087FF05
:100F8000FCCF8091B900887F883109F56093BB0060
:100F900084E88093BC008091BC0087FFFCCF8091E7
:100FA000B900887F883299F44093BB0084E880932D
:100FB000BC008091BC0087FFFCCF8091B900887F86
:100FC000883229F484E98093BC0081E0089580E0B0
:100FD0000895982F84EA8093BC008091BC0087FF1D
:100FE000FCCF8091B900887F883019F0803109F0FA
:100FF0003FC09093BB0084E88093BC008091BC000C
:1010000087FFFCCF8091B900887F883189F5609394
:10101000BB0084E88093BC008091BC0087FFFCCFBC
:101020008091B900887F883219F584EA8093BC00EA
:101030008091BC0087FFFCCF8091B900887F883009
:1010400011F08031A9F49F5F9093BB0084E88093F6
:10105000BC008091BC0087FFFCCF8091B900887FE5
:10106000803431F480E00E94EA0694E99093BC0059
:101070000895982F84EA8093BC008091BC0087FF7C
:10108000FCCF8091B900887F883011F08031B9F5AC
:101090009093BB0084E88093BC008091BC0087FFE4
:1010A000FCCF8091B900887F883149F56093BB00FF
:1010B00084E88093BC008091BC0087FFFCCF8091C6
:1010C000B900887F8832D9F4F90190E024E810C093
:1010D00080818093BB002093BC008091BC0087FF7F
:1010E000FCCF8091B9003196887F883241F49F5FB0
:1010F000941770F384E98093BC0081E0089580E048
:101100000895CF92DF92FF920F931F93CF93DF93B7
:10111000982F690184EA8093BC008091BC0087FF0E
:10112000FCCF8091B900887F883019F0803109F0B8
:1011300057C09093BB0084E88093BC008091BC00B2
:1011400087FFFCCF8091B900887F883109F048C0C3
:101150006093BB0084E88093BC008091BC0087FF53
:10116000FCCF8091B900887F8832D1F584EA8093E2
:10117000BC008091BC0087FFFCCF8091B900887FC4
:10118000883011F0803161F59F5F9093BB0084E857
:101190008093BC008091BC0087FFFCCF8091B90098
:1011A000887F8034E9F4FF24C42FD0E0219706C063
:1011B00081E00E94EA06F8018083F3948F2D90E08D
:1011C0008601080F191F8C179D0794F380E00E9479
:1011D000EA06F801808384E98093BC0081E001C0C5
:1011E00080E0DF91CF911F910F91FF90DF90CF9022
:1011F0000895982F84EA8093BC008091BC0087FFFB
:10120000FCCF8091B900887F883019F0803109F0D7
:1012100045C09093BB0084E88093BC008091BC00E3
:1012200087FFFCCF8091B900887F8831B9F5709332
:10123000BB0084E88093BC008091BC0087FFFCCF9A
:101240008091B900887F883249F56093BB0084E8BB
:101250008093BC008091BC0087FFFCCF8091B900D7
:10126000887F8832D9F4F90190E024E810C08081A9
:101270008093BB002093BC008091BC0087FFFCCF13
:101280008091B9003196887F883241F49F5F94172E
:1012900070F384E98093BC0081E0089580E00895B4
:1012A000CF92DF92FF920F931F93CF93DF93982FEC
:1012B000690184EA8093BC008091BC0087FFFCCF69
:1012C0008091B900887F883019F0803109F066C0BC
:1012D0009093BB0084E88093BC008091BC0087FFA2
:1012E000FCCF8091B900887F883109F057C0709396
:1012F000BB0084E88093BC008091BC0087FFFCCFDA
:101300008091B900887F883209F048C06093BB00A3
:1013100084E88093BC008091BC0087FFFCCF809163
:10132000B900887F8832D1F584EA8093BC0080912F
:10133000BC0087FFFCCF8091B900887F883011F016
:10134000803161F59F5F9093BB0084E88093BC007F
:101350008091BC0087FFFCCF8091B900887F8034EA
:10136000E9F4FF24C42FD0E0219706C081E00E9459
:10137000EA06F8018083F3948F2D90E08601080F30
:10138000191F8C179D0794F380E00E94EA06F8016C
:10139000808384E98093BC0081E001C080E0DF911C
:1013A000CF911F910F91FF90DF90CF90089580E231
:1013B0008093B60085E08093B10081E08093700057
:1013C0001092C0021092BF021092B2007894089559
:1013D0001F920F920FB60F9211248F939F938091BB
:1013E000BF029091C00201969093C0028093BF0209
:1013F0009F918F910F900FBE0F901F901895F894AA
:1014000087E68093C4001092C5001092C00086E069
:101410008093C20088E98093C100789408958091F8
:10142000C00087FFFCCF8091C6000895982F80915F
:10143000C00085FFFCCF9093C6000895F89487E61E
:101440008093CC001092CD001092C80086E080936B
:10145000CA0088E98093C900789408958091C800F3
:1014600087FFFCCF8091CE000895982F8091C8000F
:1014700085FFFCCF9093CE0008952091E202922F39
:1014800080E02091E30230E0282B392BC901089538
:101490008091E10290E0FC013197E132F10508F022
:1014A00082C0EA59FF4F0C949C0E0E94BE0185C079
:1014B0000E94C00182C00E94F4047FC00E94F00418
:1014C0007CC00E94F80479C00E94EC0476C00E949F
:1014D000210373C00E94510670C00E947A066DC03D
:1014E0002091E202922F80E02091E30230E0822BF3
:1014F000932B0E948D0161C02091E202922F80E027
:101500002091E30230E0822B932B0E94970155C07B
:1015100082EE92E050C02091E202922F80E0209172
:10152000E30230E0822B932B0E94250546C02091D8
:10153000E2026091E302922F80E070E0682B792B49
:10154000872F90E070E00E943E0537C09091E20244
:101550008091E30220E0822B90E00E942F062DC0B4
:101560009091E2028091E30220E0822B90E00E94C1
:10157000580623C02091E2026091E302922F80E09E
:1015800070E0682B792B872F90E070E00E94D704E1
:1015900014C00E94A101982F8091C00085FFFCCF4C
:1015A0009093C6000AC080E090E060E070E00E9486
:1015B000D70481E292E00E94A4041092BE02089532
:1015C0001F920F920FB60F920BB60F9211242F930A
:1015D0003F934F935F936F937F938F939F93AF93BB
:1015E000BF93EF93FF939091C6008091BE0282312A
:1015F00018F01092BE021BC08091BE02E82FF0E0EE
:10160000EF51FD4F90838F5F8093BE028091E10286
:10161000843158F08091E102863119F4992339F42C
:1016200004C08091BE02833011F40E94480AFF91E9
:10163000EF91BF91AF919F918F917F916F915F914A
:101640004F913F912F910F900BBE0F900FBE0F90B7
:101650001F9018951F920F920FB60F920BB60F9214
:1016600011242F933F934F935F936F937F938F93A7
:101670009F93AF93BF93EF93FF939091C600809198
:10168000BE02823118F01092BE021BC08091BE02D1
:10169000E82FF0E0EF51FD4F90838F5F8093BE0203
:1016A0008091E102843158F08091E102863119F491
:1016B000992339F404C08091BE02833011F40E9452
:1016C000480AFF91EF91BF91AF919F918F917F91C8
:1016D0006F915F914F913F912F910F900BBE0F90A3
:1016E0000FBE0F901F9018950F931F93082F11276F
:1016F00007FD10958FE790E0801B910B0E942F064D
:10170000C80181589F4F0E9458061F910F9108955C
:101710000F931F93082F10E001581F4FC8010E941C
:101720002F06C8010E9458061F910F9108950F932C
:101730001F93992787FD90950FE710E0081B190B61
:10174000C8010E942F06C8010E9458061F910F91E0
:101750000895FF920F931F93F82E63E10E94320EBB
:10176000082F11E00FC01F9DC0011124602F70E0F1
:101770000E94520E862F0E94970B83E190E00E94F8
:101780008D011F5F011778F71F910F91FF9008954A
:101790000E9451060E947A0608951F920F920FB67A
:1017A0000F920BB60F9211242F933F934F935F9399
:1017B0006F937F938F939F93AF93BF93EF93FF9319
:1017C000F8940E94C80B0E94F8040E94EC0482E383
:1017D00092E00E94A4040E94E80488E392E00E9440
:1017E000A40488EE93E00E948D010E94F80480E03A
:1017F0000E94970BFFCFEF92FF920F931F93E82E5B
:1018000000E023C080E090E00E948A06182F81E06B
:1018100090E00E948A06F82E153650F0EE2019F05E
:101820000E94510604C08FE790E00E942F060160DD
:1018300084E68F1550F4EE2019F00E947A0604C059
:101840008FE790E00E94580602600330D8F21F91A3
:101850000F91FF90EF900895EF92FF920F931F93D7
:10186000E82EF62E10E00EC08E2D90E00E948A0623
:10187000002329F4853630F01F5F01E003C0863471
:1018800008F400E01F1581F71F910F91FF90EF9072
:10189000089588ED0E94740B88EC90E00E948D0101
:1018A00081E061E00E942C0C8CE30E94880B8CE2AA
:1018B00091E00E948D0181E00E94FB0B0E94C80B09
:1018C00008951F93182FF89486E40E94970B82E3E3
:1018D00090E00E94580684E690E00E948D0181E02D
:1018E000612F0E942C0C82E390E00E948D0181E028
:1018F0000E94FB0B82E30E94880B88EC90E00E9420
:101900008D0182E30E94970B81E00E94FB0B78948B
:101910000E94C80B1F9108951F93182FF89488E711
:101920000E94A90B87E090E00E942F0685E090E0DE
:101930000E94580682E0612F0E942C0C78940E942D
:10194000C80B153031F482E30E94970B81E00E94AE
:10195000FB0B1F91089586E40E94970B88EC90E0A2
:101960000E948D0182E30E94970B81E00E94FB0B95
:1019700082E30E94880B88EC90E00E948D0182E354
:101980000E94970B81E00E94FB0B0E94C80B8CE326
:101990000E94880B88EC90E00E948D0180EA90E024
:1019A0000E942F0688EC90E00E94580680E061E0DB
:1019B0000E942C0C81E00E94FB0B82E30E94880BAA
:1019C00088EC90E00E948D0186E40E94970B81E0F4
:1019D0000E94FB0B0E94C80B88EC90E00E948D01D6
:1019E00008950E94F8040E94EC0483E492E00E94AF
:1019F000A40486E40E94970B82E062E00E942C0C13
:101A000088E20E94740B80E061E00E942C0C0E942E
:101A1000C80B84EB90E00E94580682E061E00E94CF
:101A20002C0C8CE30E94970B8CE291E00E948D01BC
:101A30000E94C80B08951F93182F82E30E94970BF2
:101A400082E061E00E942C0C812F90E00E948D01C9
:101A50000E94C80B88E20E94740B80E062E00E9442
:101A60002C0C8CE30E94880B133341F482ED90E040
:101A70000E94580680E991E00E948D0186E990E07D
:101A80000E948D0188E20E94970B81E00E94FB0B6F
:101A90000E94C80B88E20E94740B84E690E00E94CA
:101AA0008D0182E30E94880B8CE291E00E948D01FF
:101AB00088E20E94970B81E00E94FB0B0E94C80BFA
:101AC0001F9108950F931F930E94F8048CE492E0F5
:101AD0000E94A40486E90E941B0D0E94F8048AE576
:101AE00092E00E94A40485E00E948C0C0E94F804FD
:101AF00007E612E0C8010E94A40480E00E941B0DCA
:101B00000E94F8048DE692E00E94A4040E94F10C69
:101B10000E94F804C8010E94A40486E90E941B0DDB
:101B20000E94F80485E792E00E94A40484E00E94E9
:101B30008C0C0E94F8048AE792E00E94A40483E3DC
:101B40000E941B0D1F910F9108950E94F80481E0DF
:101B500090E060E070E00E94A40486E490E00E94BF
:101B60002F068BE490E00E94580680E061E00E941E
:101B70002C0C86E40E94970B08950E94F8048DE6D1
:101B800092E00E94A4040E94AB0C0E94F80487E833
:101B900092E00E94A40482E00E94610C0E94F8047A
:101BA00082E992E00E94A4040E94AB0C0E94F80417
:101BB0008DE992E00E94A4040E94A7010895DF929B
:101BC000EF92FF920F931F93D82EE62E0E94EC0403
:101BD00086EA92E00E94A40480E090E066E070E073
:101BE0000E94D7048E2D90E00E94750487EB92E04E
:101BF0000E94E80481E090E06BE070E00E94D7046E
:101C000080E090E00E94750400E024C08D2D90E0FB
:101C10000E948A06182F81E090E063E070E00E9445
:101C2000D704812F90E00E947504FF2029F4153617
:101C300088F0FF24F3940EC0163408F40F5F81E09F
:101C400090E06BE070E00E94D704802F90E00E944B
:101C50007504FF240E15D1F61F910F91FF90EF90A0
:101C6000DF900895991B79E004C0991F961708F03A
:101C7000961B881F7A95C9F780950895AA1BBB1BF0
:101C800051E107C0AA1FBB1FA617B70710F0A61B7C
:101C9000B70B881F991F5A95A9F780959095BC019D
:101CA000CD01089597FB092E07260AD077FD04D0B1
:101CB000E5DF06D000201AF4709561957F4F0895F6
:101CC000F6F7909581959F4F08952F923F924F92EE
:101CD0005F926F927F928F929F92AF92BF92CF92BC
:101CE000DF92EF92FF920F931F93CF93DF93CDB7C5
:101CF000DEB7CA1BDB0B0FB6F894DEBF0FBECDBF3D
:101D000009942A88398848885F846E847D848C840D
:101D10009B84AA84B984C884DF80EE80FD800C8116
:101D20001B81AA81B981CE0FD11D0FB6F894DEBFF9
:101D30000FBECDBFED010895EE0FFF1F0590F4918A
:101D4000E02D0994DF92EF92FF920F931F93CF93B0
:101D5000DF937A01D02E122F283008F017E0A70168
:101D6000212F00E00E942C0F682FF7015191252FA1
:101D700050FF04C053FD02C08DE209C0D1FE02C075
:101D80008BE205C0D0FC02C0C70104C080E2D701CD
:101D90008C93CF01482F392F23FF03C066E171E0F8
:101DA00004C022FF0BC06EE071E0D2FE02C06C5F87
:101DB0007F4F842F932F0E94041045C0F70121818B
:101DC000DC012D93213309F05F7E1123A9F0E70197
:101DD000842F932FFC01912F2EE28A812183915031
:101DE00021963196282F9923C1F71150812F90E029
:101DF0000196A80FB91F2D93D2FC02C085E601C041
:101E000085E4962FFD01819367FF07C08DE211964F
:101E10008C93DF01119691950AC0662329F454FF33
:101E200003C0DF018DE202C0DF018BE28D9380E30E
:101E300002C08F5F9A509A30E4F7FD018193905D64
:101E400011969C931182C701DF91CF911F910F9141
:101E5000FF90EF90DF900895283008F027E03327B7
:101E6000DA01990F311D87FD9160009661057105BA
:101E700039F432602E5F3D9330E32A95E1F70895FF
:101E80009F3F30F080387105610509F03C5F3C5F91
:101E90003D93913008F08068911DDF93CF931F939D
:101EA0000F93FF92EF92192F987F9695E92F9695B1
:101EB0009695E90FFF27E858FE4F99273327EE2420
:101EC000FF24A701E70105900894079428F4360F32
:101ED000E71EF81E491F511D660F771F881F991FA7
:101EE0000694A1F70590079428F4E70EF81E491F01
:101EF000561FC11D770F881F991F661F0694A1F7F3
:101F00000590079428F4F80E491F561FC71FD11DCE
:101F1000880F991F661F771F0694A1F705900794F5
:101F200020F4490F561FC71FD81F990F661F771F30
:101F3000881F0694A9F784911095177041F0D695E3
:101F4000C79557954795F794E7941A95C1F7EEE131
:101F5000F1E06894159015913591659195910590F2
:101F60007FE27395E118F10A430B560BC90BD009B8
:101F7000C0F7E10CF11E431F561FC91FD01D7EF490
:101F8000703311F48A95E6CFE894015030F0080FD1
:101F90000AF40027021708F4202F2395022F7A3322
:101FA00028F079E37D932A95E9F710C07D932A956F
:101FB00089F6069497956795379517951794E118C4
:101FC000F10A430B560BC90BD00998F023957E916B
:101FD00073957A3308F070E37C932013B8F77E9101
:101FE00070617D9330F0839571E37D9370E32A9562
:101FF000E1F71124EF90FF900F911F91CF91DF91A6
:10200000992787FD90950895FB01DC0105900D92BD
:0A2010000020E1F70895F894FFCFD7
:10201A002020202054617065426F742056312E3082
:10202A0020200054617065426F742057696E7321D5
:10203A0000434D4420556E7265636F676E697A6519
:10204A0064004F68204E6F004920616D20537475FB
:10205A00636B005475726E696E6721005354415266
:10206A0054202D20525455524E00525455524E204F
:10207A002D20504C4F5700525455524E0052434F48
:10208A00524E455200504C4F5700504C4F57202D3E
:10209A0020525455524E00506C6F7720496E6E652F
:1020AA0072005475726E20496E6E657200436F6ECF
:1020BA0074696E756500436F756E74202020202048
:0C20CA00206C696E65730056616C3A0072
:00000001FF
