:100000000C940C010C9434010C9434010C943401C4
:100010000C9434010C9434010C9434010C9434018C
:100020000C9434010C946E010C9434010C94340142
:100030000C9434010C9434010C9434010C940D0B89
:100040000C9434010C9434010C9434010C9434015C
:100050000C9434010C9434010C9434010C9434014C
:100060000C9434010C944F0C0C9434010C94340116
:100070000C9434010C9434010C9434010C9434012C
:100080000C9434010C9434010C94B4060C94340197
:100090000C94050C0C9434010C9434010C94340130
:1000A0000C9434010C9434010C9434010C943401FC
:1000B0000C9434010C9434010C9434010C943401EC
:1000C0000C9434010C9434010C9434017A0B7D0BA4
:1000D000F80BF80B800B830B860B890BEE0BF80BE0
:1000E0008C0B8F0B920BF80BF80BF80BF80BF80B33
:1000F000F80B950BA10BAD0BEE0BEE0BB00BF80B49
:10010000F80BF80BF80BBC0BCB0BDF0BD50B696EA8
:100110006600494E46006E616E004E414E00004042
:100120007A10F35A00A0724E18090010A5D4E80006
:1001300000E87648170000E40B54020000CA9A3B1E
:10014000000000E1F50500008096980000004042A4
:100150000F000000A0860100000010270000000032
:10016000E803000000006400000000000A00000036
:1001700000000100000000002C76D888DC674F08E2
:1001800023DFC1DFAE59E1B1B796E5E3E453C63AE8
:10019000E651997696E8E6C28426EB898C9B62ED5F
:1001A000407C6FFCEFBC9C9F40F2BAA56FA5F49019
:1001B000055A2AF75C936B6CF9676DC11BFCE0E490
:1001C0000D47FEF520E6B500D0ED902E03009435E6
:1001D00077050080841E080000204E0A000000C839
:1001E0000C333333330F986E12831141EF8D21148A
:1001F000893BE65516CFFEE6DB18D1844B381BF75A
:100200007C1D901DA4BBE424203284725E228100F8
:10021000C9F124ECA1E53D2711241FBECFEFD1E2A7
:10022000DEBFCDBF14BE88E10FB6F89480936000A6
:10023000109260000FBE12E0A0E0B2E0EAEBFCE139
:1002400000E00BBF02C007900D92AA34B107D9F7A6
:1002500012E0AAE4B2E001C01D92A138B107E1F7B3
:100260000E9487020C945B0E0C94000080E090E0EA
:100270000895F894249A2C98EBE6F0E08081806150
:100280008083E8E6F0E0808181608083789408953F
:100290000F931F93082F112707FD10958FE790E00C
:1002A000801B910B0E945407C80181589F4F0E94E8
:1002B0007D071F910F9108950F931F93992787FD35
:1002C00090950FE710E0081B190BC8010E94540716
:1002D000C8010E947D071F910F9108951F920F92F0
:1002E0000FB60F920BB60F9211242F933F934F939B
:1002F0005F936F937F938F939F93AF93BF93EF938E
:10030000FF9380EA90E00E94540780EA90E00E9408
:100310007D078EEE92E00E94AB0282E30E944801CC
:100320008EEE92E00E94AB02FF91EF91BF91AF91F0
:100330009F918F917F916F915F914F913F912F91FD
:100340000F900BBE0F900FBE0F901F90189586E474
:1003500090E00E9454078AE590E00E947D078CE2BD
:1003600091E00E94AB0286E40E945C0184E690E08A
:100370000E94AB0208950E9476070E949F0708958D
:10038000DF92EF92FF920F931F93D82EE62E0E94DA
:100390000A0680E092E00E94C20580E090E066E0FC
:1003A00070E00E94F5058E2D90E00E94930581E19A
:1003B00092E00E94060681E090E06BE070E00E940F
:1003C000F50580E090E00E94930500E024C08D2DAB
:1003D00090E00E94AF07182F81E090E063E070E0AA
:1003E0000E94F505812F90E00E949305FF2029F4DB
:1003F000153688F0FF24F3940EC0163408F40F5F0E
:1004000081E090E06BE070E00E94F505802F90E0C5
:100410000E949305FF240E15D1F61F910F91FF90B6
:10042000EF90DF900895DF92EF92FF920F931F936A
:10043000D82EE62E0E940A0680E092E00E94C205B5
:1004400080E090E066E070E00E94F5058E2D90E07F
:100450000E94930581E192E00E94060681E090E00F
:100460006BE070E00E94F50580E090E00E9493054B
:1004700000E024C08D2D90E00E94AF07182F81E08E
:1004800090E063E070E00E94F505812F90E00E940B
:100490009305FF2081F4153688F00F5F81E090E02E
:1004A0006BE070E00E94F505802F90E00E949305BC
:1004B000FF24F39403C0163408F4FF240E15D1F67C
:1004C0001F910F91FF90EF90DF9008958CE30E94B1
:1004D0005C0182E062E00E94130284E690E00E94E8
:1004E000AB020E94BB0188E20E94480180E062E00A
:1004F0000E9413020E94BB018AE590E00E947D07E2
:1005000081E061E00E9413020E94BB0108950E94F5
:100510004B04F8940E94160686E192E00E94C20500
:100520000E94060678940E94C5020E94A7010E94BC
:1005300066020E94C50286E40E945C0180ED97E09D
:100540000E94AB020E94BB010E94160689E292E063
:100550000E94C205FFCF20EA3FE004C0F9013197B5
:10056000F1F701970097D1F7089524E030E004C037
:10057000F9013197F1F701970097D1F7089589B103
:1005800082958F708095817008954C99FECF8EE191
:1005900090E020EA3FE0F9013197F1F70197D9F7B0
:1005A0004C9BFECF8EE190E020EA3FE0F9013197CD
:1005B000F1F70197D9F70895A29A0895A29808959E
:1005C0008230A8F1482F42506130710539F1613015
:1005D000710528F06230710509F04EC00FC081B17D
:1005E00021E030E002C0220F331F4A95E2F7209548
:1005F000822381B982B1282322B9089531B181E0E3
:1006000090E002C0880F991F4A95E2F7282F2095A5
:10061000232321B922B1822B82B9089581B102C06E
:10062000660F771F4A95E2F7862B81B908958130CE
:1006300091F46130710569F06130710520F062302C
:100640007105D1F403C027982F98089527982F9A01
:100650000895279A08956130710569F06130710538
:1006600020F06230710541F403C024982C9808955D
:1006700024982C9A0895249A0895282F80FF02C068
:10068000249A01C0249821FF02C0279A01C027980C
:10069000969587959695879581B90895249905C073
:1006A00080FF02C02C9A01C02C98279905C081FFB9
:1006B00002C02F9A01C02F98969587959695879599
:1006C00040E050E0682F70E0E1E0F0E081B190E0C0
:1006D000042E02C0959587950A94E2F780FD1FC00D
:1006E000CB01042E02C0959587950A94E2F780FF0E
:1006F0000BC022B1CF01042E02C0880F991F0A94AB
:10070000E2F7282B22B90BC022B1CF01042E02C080
:10071000880F991F0A94E2F78095822382B94F5F70
:100720005F4F4830510591F608958230B0F040B1E6
:10073000282F30E02250304081E090E0022E02C0AD
:10074000880F991F0A94E2F750E08423952302C092
:10075000959587952A95E2F70895813029F483B11C
:10076000881F8827881F089583B190E0807190705A
:1007700044E0959587954A95E1F708956623B9F089
:10078000823078F042B1282F30E02250304081E0B2
:1007900090E002C0880F991F2A95E2F7482B42B9D2
:1007A0000895813011F42F9A08952C9A089582307B
:1007B00080F042B1282F30E02250304081E090E0BC
:1007C00002C0880F991F2A95E2F78095842382B989
:1007D0000895813011F42F9808952C9808959C0164
:1007E000369527953695279522B945B190E09C011D
:1007F0002170307074E0220F331F7A95E1F74F7645
:10080000422B82709070959587959695982F8827A2
:1008100097958795482B45B9089540B183B123B189
:1008200030E020713070B4E035952795BA95E1F746
:1008300050E0440F551F440F551F242B352B881FA4
:100840008827881F90E0880F991F282B392BC90112
:100850000895823068F0282F30E02250304081E047
:1008600090E002C0880F991F2A95E2F780B9089599
:10087000813011F480E801C080E183B9089528E057
:1008800088E190E00FB6F894A895809360000FBEC1
:1008900020936000FFCF54985C9A9A9A559A8FEFF4
:1008A00087B90E941E060E9436070E947E060E949B
:1008B000A6070E94240B0E94430B0E94FC0A089585
:1008C000982F990F9A7A86958575982B892F880F7E
:1008D000880F8C7C969596959373892B8295F894C6
:1008E0005E9A88B981E090E00E94B5025E987894A3
:1008F00008955F9A0E94600482E390E00E94B5022E
:1009000008958F708A3010F4805D01C0895C0E9468
:10091000790408950F931F938C01812F82958F7016
:100920000E948104812F0E948104802F82958F7004
:100930000E948104802F0E9481041F910F910895CD
:100940001F93182F82958F700E948104812F0E941F
:1009500081041F910895CF93DF93EC018A309105B4
:10096000D8F18436910558F183E0C83ED807D0F01D
:1009700087E2C031D80748F0CE0160E177E20E94FB
:100980000A0E862F805D0E947904CE0160E177E235
:100990000E940A0E68EE73E00E940A0E862F805DA8
:1009A0000E947904CE0168EE73E00E940A0E64E6AC
:1009B00070E00E940A0E862F805D0E947904CE01AD
:1009C00064E670E00E940A0E6AE070E00E940A0E7F
:1009D000862F805D0E947904CE016AE070E00E945B
:1009E0000A0E805D0E947904DF91CF910895CF9324
:1009F000DF93EC0197FD05C08BE20E947904CE01E4
:100A000007C08DE20E947904882799278C1B9D0BD3
:100A10000E94AB04DF91CF9108950F931F938C0137
:100A200060E177E20E940A0E862F805D0E947904C1
:100A3000C80160E177E20E940A0E68EE73E00E944E
:100A40000A0E862F805D0E947904C80168EE73E06B
:100A50000E940A0E64E670E00E940A0E862F805DF6
:100A60000E947904C80164E670E00E940A0E6AE000
:100A700070E00E940A0E862F805D0E947904C801F2
:100A80006AE070E00E940A0E805D0E9479041F9166
:100A90000F910895CF93DF93EC0197FD05C08BE292
:100AA0000E947904CE0107C08DE20E947904882754
:100AB00099278C1B9D0B0E940D05DF91CF91089506
:100AC0001F93182F8A3098F0843630F064E60E9425
:100AD000FE0D805D0E947904812F64E60E94FE0D68
:100AE000892F6AE00E94FE0D805D0E947904812FAB
:100AF0006AE00E94FE0D892F805D0E9479041F919B
:100B000008951F93182F87FD05C08BE20E9479047A
:100B1000812F05C08DE20E947904812F81950E946A
:100B200060051F9108951F93182F64E60E94FE0D23
:100B3000805D0E947904812F64E60E94FE0D892F5A
:100B40006AE00E94FE0D805D0E947904812F6AE0B8
:100B50000E94FE0D892F805D0E9479041F910895E7
:100B60001F93182F87FD05C08BE20E947904812F07
:100B700005C08DE20E947904812F81950E94930522
:100B80001F9108951F93CF93DF93EC0110E003C0F2
:100B90001F5F0E947904FE01E10FF11D808188230F
:100BA000B9F7DF91CF911F910895AAE0B0E0EBED86
:100BB000F5E00C942A0E7E010894E11CF11CA701BB
:100BC00023E030E000E010E00E94990CC7010E9491
:100BD000C2052A96E6E00C94460E5F980E946004D7
:100BE00084E690E00E94B5020895282F30E086E068
:100BF000220F331F8A95E1F7862F61E10E94FE0DD7
:100C0000892F822B80680E94ED05089580EC0E9458
:100C1000ED05089580E80E94ED05089588E00E94A2
:100C2000ED0508958CE00E94ED05089581E00E9495
:100C3000ED0584EE9CE00E94B5020895569A579AFD
:100C40005E988FE090E00E94AB0288E30E94ED0581
:100C500084E293E10E94B50288E30E94ED0582E3FD
:100C600090E00E94B50288E30E94ED0588E30E94AF
:100C7000ED050E940E060E94160686E00E94ED0514
:100C80000E94120608958830B0F4E82FF0E0EE0FCD
:100C9000FF1FDF01A15BBD4F88EF91E111969C938F
:100CA0008E932D913C9188E893E1821B930BE15A3E
:100CB000FD4F9183808308958830F8F42CE0629F83
:100CC0009001112428543A4FE82FF0E0EE0FFF1F57
:100CD000DF01A15BBD4F4D915C9188E893E1841BDE
:100CE000950BF894DF01A15BBD4F11963C932E93B9
:100CF000E15AFD4F918380837894089520E030E09D
:100D000068EF71E148E853E1F901EE0FFF1FDF01E1
:100D1000A15BBD4F11967C936E938D919C91DA01EE
:100D2000A81BB90BE15AFD4FB183A0832F5F3F4F42
:100D30002830310549F780919100826080939100BD
:100D4000809171008860809371007894089588B9CB
:100D500081E0982F9A95F1F75D9A982F9A95F1F77F
:100D60005D988A95F1F708951F920F920FB60F9232
:100D70000BB60F9211242F933F938F939F93EF9372
:100D8000FF9390914B02913011F518B8892F8A95F5
:100D9000F1F75D9A892F8A95F1F75D98892F8A95E9
:100DA000F1F780919C0090919D00E0914A02F0E063
:100DB000EE0FFF1FE15AFD4F20813181280F391FAF
:100DC00030939D0020939C0010924B0242C0809172
:100DD0004A028F5F80934A0280914A02883011F460
:100DE00010924A02E0914A02F0E0EE0FFF1FE15B31
:100DF000FD4F80819181885F9141A9F080914A02E5
:100E000021E030E002C0220F331F8A95E2F728B9B3
:100E100081E0982F9A95F1F75D9A982F9A95F1F7BE
:100E20005D988A95F1F720919C0030919D00E091AA
:100E30004A02F0E0EE0FFF1FE15BFD4F80819181E0
:100E4000820F931F90939D0080939C0081E080937C
:100E50004B02FF91EF919F918F913F912F910F90B6
:100E60000BBE0F900FBE0F901F901895E0E8F0E0BA
:100E700081E080838BE0809381008DB1806C8DB99F
:100E8000259A808180688083109289001092880062
:100E90008DB18C608DB9269A80818062808310929A
:100EA0008B0010928A0008958F3729F410928800E1
:100EB0006D9A759808956D98759A282F30E087FF80
:100EC00008C08EB18F7380688EB9822F880F8F5FB4
:100ED0000AC08EB18F7380648EB98FE790E0821B59
:100EE000930B880F991F8093880008958FEF80934C
:100EF00088008EB18F738EB908958F3729F41092C0
:100F00008A006C9A749808956C98749A282F30E02F
:100F100087FF08C08EB1837F84608EB9822F880FCF
:100F20008F5F0AC08EB1837F88608EB98FE790E0B3
:100F3000821B930B880F991F80938A0008958FEF6F
:100F400080938A008EB1837F8EB9089580E6809366
:100F50007C00EAE7F0E08081876880830895982F1D
:100F6000883010F08DEB089580E680937C008091AE
:100F70007C00892B80937C0080917A008064809330
:100F80007A0080917A0086FDFCCF809179000895E7
:100F9000982F883018F02DEA3BE01BC080E4809346
:100FA0007C0080917C00892B80937C0080917A006A
:100FB000806480937A0080917A0086FDFCCF309126
:100FC000780020917900922F80E0232F30E0282BA9
:100FD000392BC9010895E9EBF0E080818D7F808392
:100FE00080818160808382E18093B800089584EAE3
:100FF0008093BC008091BC0087FFFCCF8091B9003A
:10100000887F08958093BB0084E88093BC00809122
:10101000BC0087FFFCCF8091B900887F0895982F8E
:10102000813011F484EC01C084E88093BC0080918D
:10103000BC0087FFFCCF913031F48091B900887FEC
:10104000803559F407C0992329F48091B900887F2D
:10105000883519F48091BB00089580E0089584E9F3
:101060008093BC000895982F84EA8093BC008091FF
:10107000BC0087FFFCCF8091B900887F883011F0D9
:10108000803109F59093BB0084E88093BC00809187
:10109000BC0087FFFCCF8091B900887F883199F42C
:1010A0006093BB0084E88093BC008091BC0087FF04
:1010B000FCCF8091B900887F883229F484E980933D
:1010C000BC0081E0089580E00895982F84EA809321
:1010D000BC008091BC0087FFFCCF8091B900887F65
:1010E000883011F0803179F59093BB0084E88093CB
:1010F000BC008091BC0087FFFCCF8091B900887F45
:10110000883109F56093BB0084E88093BC0080912E
:10111000BC0087FFFCCF8091B900887F883299F4AA
:101120007093BB0084E88093BC008091BC0087FF73
:10113000FCCF8091B900887F883229F484E98093BC
:10114000BC0081E0089580E00895982F84EA8093A0
:10115000BC008091BC0087FFFCCF8091B900887FE4
:10116000883011F08031B9F49F5F9093BB0084E820
:101170008093BC008091BC0087FFFCCF8091B900B8
:10118000887F803441F480E00E940F08982F84E922
:101190008093BC0001C090E0892F0895982F84EAC5
:1011A0008093BC008091BC0087FFFCCF8091B90088
:1011B000887F883011F0803179F59093BB0084E806
:1011C0008093BC008091BC0087FFFCCF8091B90068
:1011D000887F883109F56093BB0084E88093BC0068
:1011E0008091BC0087FFFCCF8091B900887F883256
:1011F00099F44093BB0084E88093BC008091BC00CC
:1012000087FFFCCF8091B900887F883229F484E978
:101210008093BC0081E0089580E00895982F84EACF
:101220008093BC008091BC0087FFFCCF8091B90007
:10123000887F883019F0803109F03FC09093BB005F
:1012400084E88093BC008091BC0087FFFCCF809134
:10125000B900887F883189F56093BB0084E880936A
:10126000BC008091BC0087FFFCCF8091B900887FD3
:10127000883219F584EA8093BC008091BC0087FF16
:10128000FCCF8091B900887F883011F08031A9F4BB
:101290009F5F9093BB0084E88093BC008091BC006A
:1012A00087FFFCCF8091B900887F803431F480E0E3
:1012B0000E940F0894E99093BC000895982F84EA47
:1012C0008093BC008091BC0087FFFCCF8091B90067
:1012D000887F883011F08031B9F59093BB0084E8A5
:1012E0008093BC008091BC0087FFFCCF8091B90047
:1012F000887F883149F56093BB0084E88093BC0007
:101300008091BC0087FFFCCF8091B900887F883234
:10131000D9F4F90190E024E810C080818093BB00EB
:101320002093BC008091BC0087FFFCCF8091B90066
:101330003196887F883241F49F5F941770F384E977
:101340008093BC0081E0089580E00895CF92DF9201
:10135000FF920F931F93CF93DF93982F690184EA35
:101360008093BC008091BC0087FFFCCF8091B900C6
:10137000887F883019F0803109F057C09093BB0006
:1013800084E88093BC008091BC0087FFFCCF8091F3
:10139000B900887F883109F048C06093BB0084E8B9
:1013A0008093BC008091BC0087FFFCCF8091B90086
:1013B000887F8832D1F584EA8093BC008091BC009C
:1013C00087FFFCCF8091B900887F883011F0803191
:1013D00061F59F5F9093BB0084E88093BC0080918F
:1013E000BC0087FFFCCF8091B900887F8034E9F48E
:1013F000FF24C42FD0E0219706C081E00E940F088F
:10140000F8018083F3948F2D90E08601080F191F57
:101410008C179D0794F380E00E940F08F8018083E9
:1014200084E98093BC0081E001C080E0DF91CF912E
:101430001F910F91FF90DF90CF900895982F84EA2D
:101440008093BC008091BC0087FFFCCF8091B900E5
:10145000887F883019F0803109F045C09093BB0037
:1014600084E88093BC008091BC0087FFFCCF809112
:10147000B900887F8831B9F57093BB0084E8809308
:10148000BC008091BC0087FFFCCF8091B900887FB1
:10149000883249F56093BB0084E88093BC0080915A
:1014A000BC0087FFFCCF8091B900887F8832D9F4D7
:1014B000F90190E024E810C080818093BB00209364
:1014C000BC008091BC0087FFFCCF8091B9003196B1
:1014D000887F883241F49F5F941770F384E980938A
:1014E000BC0081E0089580E00895CF92DF92FF92E2
:1014F0000F931F93CF93DF93982F690184EA809312
:10150000BC008091BC0087FFFCCF8091B900887F30
:10151000883019F0803109F066C09093BB0084E8F0
:101520008093BC008091BC0087FFFCCF8091B90004
:10153000887F883109F057C07093BB0084E880939E
:10154000BC008091BC0087FFFCCF8091B900887FF0
:10155000883209F048C06093BB0084E88093BC00E7
:101560008091BC0087FFFCCF8091B900887F8832D2
:10157000D1F584EA8093BC008091BC0087FFFCCF4A
:101580008091B900887F883011F0803161F59F5FCC
:101590009093BB0084E88093BC008091BC0087FFDF
:1015A000FCCF8091B900887F8034E9F4FF24C42FF8
:1015B000D0E0219706C081E00E940F08F8018083E7
:1015C000F3948F2D90E08601080F191F8C179D074B
:1015D00094F380E00E940F08F801808384E98093EF
:1015E000BC0081E001C080E0DF91CF911F910F919D
:1015F000FF90DF90CF90089580E28093B60085E061
:101600008093B10081E08093700010924E0210929E
:101610004D021092B200789408951F920F920FB667
:101620000F9211248F939F9380914D0290914E02BF
:10163000019690934E0280934D029F918F910F904F
:101640000FBE0F901F901895F89487E68093C40002
:101650001092C5001092C00086E08093C20088E915
:101660008093C100789408958091C00087FFFCCFDB
:101670008091C6000895982F8091C00085FFFCCF0F
:101680009093C6000895F89487E68093CC0010925A
:10169000CD001092C80086E08093CA0088E980934C
:1016A000C900789408958091C80087FFFCCF80918D
:1016B000CE000895982F8091C80085FFFCCF9093AD
:1016C000CE00089520917002922F80E02091710247
:1016D00030E0282B392BC901089580916F0290E0EA
:1016E000FC013197E132F10508F082C0EA59FF4F61
:1016F0000C94550E0E94DC0285C00E94DE0282C05E
:101700000E9412067FC00E940E067CC00E94160630
:1017100079C00E940A0676C00E943F0473C00E94EE
:10172000760770C00E949F076DC020917002922FB3
:1017300080E02091710230E0822B932B0E94AB025B
:1017400061C020917002922F80E02091710230E000
:10175000822B932B0E94B50255C080E792E050C0C7
:1017600020917002922F80E02091710230E0822B54
:10177000932B0E94430646C0209170026091710233
:10178000922F80E070E0682B792B872F90E070E03B
:101790000E945C0637C0909170028091710220E037
:1017A000822B90E00E9454072DC09091700280918E
:1017B000710220E0822B90E00E947D0723C02091DF
:1017C000700260917102922F80E070E0682B792B9B
:1017D000872F90E070E00E94F50514C00E94BF02C0
:1017E000982F8091C00085FFFCCF9093C6000AC05F
:1017F00080E090E060E070E00E94F50589E392E00F
:101800000E94C20510924C0208951F920F920FB6CB
:101810000F920BB60F9211242F933F934F935F9328
:101820006F937F938F939F93AF93BF93EF93FF93A8
:101830009091C60080914C02823118F010924C02B7
:101840001BC080914C02E82FF0E0E159FD4F9083DE
:101850008F5F80934C0280916F02843158F08091A9
:101860006F02863119F4992339F404C080914C0237
:10187000833011F40E946D0BFF91EF91BF91AF91F6
:101880009F918F917F916F915F914F913F912F9198
:101890000F900BBE0F900FBE0F901F9018951F92C8
:1018A0000F920FB60F920BB60F9211242F933F9306
:1018B0004F935F936F937F938F939F93AF93BF9358
:1018C000EF93FF939091C60080914C02823118F003
:1018D00010924C021BC080914C02E82FF0E0E159BD
:1018E000FD4F90838F5F80934C0280916F02843113
:1018F00058F080916F02863119F4992339F404C0AD
:1019000080914C02833011F40E946D0BFF91EF9196
:10191000BF91AF919F918F917F916F915F914F9107
:101920003F912F910F900BBE0F900FBE0F901F9005
:101930001895A0E0B0E0EFE9FCE00C94290E7A01E4
:10194000D02E122F283008F017E0A701212F00E039
:101950000E941F0D682FF7015191252F50FF04C0E1
:1019600053FD02C08DE209C0D1FE02C08BE205C06A
:10197000D0FC02C0C70104C080E2D7018C93CF0124
:10198000482F392F23FF03C066E171E004C022FF16
:101990000BC06EE071E0D2FE02C06C5F7F4F842FFF
:1019A000932F0E94F70D45C0F7012181DC012D9393
:1019B000213309F05F7E1123A9F0E701842F932FD3
:1019C000FC01912F2EE28A8121839150219631963C
:1019D000282F9923C1F71150812F90E00196A80F6D
:1019E000B91F2D93D2FC02C085E601C085E4962F75
:1019F000FD01819367FF07C08DE211968C93DF0193
:101A0000119691950AC0662329F454FF03C0DF01A3
:101A10008DE202C0DF018BE28D9380E302C08F5F15
:101A20009A509A30E4F7FD018193905D11969C9352
:101A30001182C701CDB7DEB7E7E00C94450E283020
:101A400008F027E03327DA01990F311D87FD9160F7
:101A500000966105710539F432602E5F3D9330E3E5
:101A60002A95E1F708959F3F30F0803871056105B0
:101A700009F03C5F3C5F3D93913008F08068911D18
:101A8000DF93CF931F930F93FF92EF92192F987FBD
:101A90009695E92F96959695E90FFF27E858FE4F02
:101AA00099273327EE24FF24A701E7010590089426
:101AB000079428F4360FE71EF81E491F511D660FC4
:101AC000771F881F991F0694A1F70590079428F4A3
:101AD000E70EF81E491F561FC11D770F881F991F5B
:101AE000661F0694A1F70590079428F4F80E491F85
:101AF000561FC71FD11D880F991F661F771F069499
:101B0000A1F70590079420F4490F561FC71FD81F4F
:101B1000990F661F771F881F0694A9F78491109567
:101B2000177041F0D695C79557954795F794E79468
:101B30001A95C1F7EEE1F1E0689415901591359191
:101B40006591959105907FE27395E118F10A430B39
:101B5000560BC90BD009C0F7E10CF11E431F561FED
:101B6000C91FD01D7EF4703311F48A95E6CFE89436
:101B7000015030F0080F0AF40027021708F4202F54
:101B80002395022F7A3328F079E37D932A95E9F79C
:101B900010C07D932A9589F6069497956795379599
:101BA00017951794E118F10A430B560BC90BD0098E
:101BB00098F023957E9173957A3308F070E37C93C7
:101BC0002013B8F77E9170617D9330F0839571E3B7
:101BD0007D9370E32A95E1F71124EF90FF900F9128
:101BE0001F91CF91DF91992787FD90950895FB0173
:101BF000DC0105900D920020E1F70895991B79E032
:101C000004C0991F961708F0961B881F7A95C9F78C
:101C100080950895AA1BBB1B51E107C0AA1FBB1FDB
:101C2000A617B70710F0A61BB70B881F991F5A9568
:101C3000A9F780959095BC01CD0108952F923F9210
:101C40004F925F926F927F928F929F92AF92BF92CC
:101C5000CF92DF92EF92FF920F931F93CF93DF9378
:101C6000CDB7DEB7CA1BDB0B0FB6F894DEBF0FBED5
:101C7000CDBF09942A88398848885F846E847D8422
:101C80008C849B84AA84B984C884DF80EE80FD8024
:101C90000C811B81AA81B981CE0FD11D0FB6F8949A
:101CA000DEBF0FBECDBFED010895EE0FFF1F059003
:0A1CB000F491E02D0994F894FFCFA1
:101CBA00436F756E742020202020206C696E657336
:101CCA000056616C3A002020202054617065426FF2
:101CDA00742056312E3020200059617920697420F1
:101CEA0046696E697368656400434D4420556E7297
:0A1CFA0065636F676E697A65640028
:00000001FF
