:100000000C940C010C9434010C9434010C943401C4
:100010000C9434010C9434010C9434010C9434018C
:100020000C9434010C94720B0C9434010C94340134
:100030000C9434010C9434010C9434010C94E609B2
:100040000C9434010C9434010C9434010C9434015C
:100050000C9434010C9434010C9434010C9434014C
:100060000C9434010C94280B0C9434010C9434013E
:100070000C9434010C9434010C9434010C9434012C
:100080000C9434010C9434010C9494050C943401B8
:100090000C94DE0A0C9434010C9434010C94340159
:1000A0000C9434010C9434010C9434010C943401FC
:1000B0000C9434010C9434010C9434010C943401EC
:1000C0000C9434010C9434010C943401530A560AF4
:1000D000D10AD10A590A5C0A5F0A620AC70AD10A20
:1000E000650A680A6B0AD10AD10AD10AD10AD10A73
:1000F000D10A6E0A7A0A860AC70AC70A890AD10A89
:10010000D10AD10AD10A950AA40AB80AAE0A696EC0
:100110006600494E46006E616E004E414E00004042
:100120007A10F35A00A0724E18090010A5D4E80006
:1001300000E87648170000E40B54020000CA9A3B1E
:10014000000000E1F50500008096980000004042A4
:100150000F000000A0860100000010270000000032
:10016000E803000000006400000000000A00000036
:1001700000000100000000002C76D888DC674F08E2
:1001800023DFC1DFAE59E1B1B796E5E3E453C63AE8
:10019000E651997696E8E6C28426EB898C9B62ED5F
:1001A000407C6FFCEFBC9C9F40F2BAA56FA5F49019
:1001B000055A2AF75C936B6CF9676DC11BFCE0E490
:1001C0000D47FEF520E6B500D0ED902E03009435E6
:1001D00077050080841E080000204E0A000000C839
:1001E0000C333333330F986E12831141EF8D21148A
:1001F000893BE65516CFFEE6DB18D1844B381BF75A
:100200007C1D901DA4BBE424203284725E228100F8
:10021000C9F124ECA1E53D2711241FBECFEFD1E2A7
:10022000DEBFCDBF14BE88E10FB6F89480936000A6
:10023000109260000FBE12E0A0E0B2E0E4EDFFE13A
:1002400000E00BBF02C007900D92A63AB107D9F7A4
:1002500012E0A6EAB2E001C01D92AD3DB107E1F7A0
:100260000E9456010C94E80F0C940000F894249A14
:100270002C98EBE6F0E0808180618083808180684B
:100280008083E8E6F0E0808181608083789408953F
:1002900080E090E06FEF70E00E943C05089580E000
:1002A00090E063E770E00E943C0508950E942B03F4
:1002B000F8940E9436010E94F60480E092E00E94C9
:1002C000A2040E94E604789480E090E063E770E086
:1002D0000E943C050E94A5010E94EF0B0E94EB0DBD
:1002E0000E94730D0E94B70C0E94390C0E94F60404
:1002F00083E192E00E94A20480E090E06FEF70E062
:100300000E943C050E94A50180E090E063E770E058
:100310000E943C05FFCF20EA3FE004C0F90131977D
:10032000F1F701970097D1F7089524E030E004C079
:10033000F9013197F1F701970097D1F7089589B145
:1003400082958F708095817008954C99FECF8EE1D3
:1003500090E020EA3FE0F9013197F1F70197D9F7F2
:100360004C9BFECF8EE190E020EA3FE0F90131970F
:10037000F1F70197D9F70895A29A0895A2980895E0
:100380008230A8F1482F42506130710539F1613057
:10039000710528F06230710509F04EC00FC081B1BF
:1003A00021E030E002C0220F331F4A95E2F720958A
:1003B000822381B982B1282322B9089531B181E025
:1003C00090E002C0880F991F4A95E2F7282F2095E8
:1003D000232321B922B1822B82B9089581B102C0B1
:1003E000660F771F4A95E2F7862B81B90895813011
:1003F00091F46130710569F06130710520F062306F
:100400007105D1F403C027982F98089527982F9A43
:100410000895279A08956130710569F0613071057A
:1004200020F06230710541F403C024982C9808959F
:1004300024982C9A0895249A0895282F80FF02C0AA
:10044000249A01C0249821FF02C0279A01C027984E
:10045000969587959695879581B90895249905C0B5
:1004600080FF02C02C9A01C02C98279905C081FFFB
:1004700002C02F9A01C02F989695879596958795DB
:1004800040E050E0682F70E0E1E0F0E081B190E002
:10049000042E02C0959587950A94E2F780FD1FC04F
:1004A000CB01042E02C0959587950A94E2F780FF50
:1004B0000BC022B1CF01042E02C0880F991F0A94ED
:1004C000E2F7282B22B90BC022B1CF01042E02C0C3
:1004D000880F991F0A94E2F78095822382B94F5FB3
:1004E0005F4F4830510591F608958230B0F040B129
:1004F000282F30E02250304081E090E0022E02C0F0
:10050000880F991F0A94E2F750E08423952302C0D4
:10051000959587952A95E2F70895813029F483B15E
:10052000881F8827881F089583B190E0807190709C
:1005300044E0959587954A95E1F708956623B9F0CB
:10054000823078F042B1282F30E02250304081E0F4
:1005500090E002C0880F991F2A95E2F7482B42B914
:100560000895813011F42F9A08952C9A08958230BD
:1005700080F042B1282F30E02250304081E090E0FE
:1005800002C0880F991F2A95E2F78095842382B9CB
:100590000895813011F42F9808952C9808959C01A6
:1005A000369527953695279522B945B190E09C015F
:1005B0002170307074E0220F331F7A95E1F74F7687
:1005C000422B82709070959587959695982F8827E5
:1005D00097958795482B45B9089540B183B123B1CC
:1005E00030E020713070B4E035952795BA95E1F789
:1005F00050E0440F551F440F551F242B352B881FE7
:100600008827881F90E0880F991F282B392BC90154
:100610000895823068F0282F30E02250304081E089
:1006200090E002C0880F991F2A95E2F780B90895DB
:10063000813011F480E801C080E183B9089528E099
:1006400088E190E00FB6F894A895809360000FBE03
:1006500020936000FFCF54985C9A9A9A559A8FEF36
:1006600087B90E94FE040E940F060E945E050E9448
:100670007F060E94FD090E941C0A0E94D509089568
:10068000982F990F9A7A86958575982B892F880FC0
:10069000880F8C7C969596959373892B8295F89408
:1006A0005E9A88B981E090E00E9495015E98789406
:1006B00008955F9A0E94400382E390E00E949501B2
:1006C00008958F708A3010F4805D01C0895C0E94AB
:1006D000590308950F931F938C01812F82958F707A
:1006E0000E946103812F0E946103802F82958F7089
:1006F0000E946103802F0E9461031F910F91089552
:100700001F93182F82958F700E946103812F0E9482
:1007100061031F910895CF93DF93EC018A30910517
:10072000D8F18436910558F183E0C83ED807D0F05F
:1007300087E2C031D80748F0CE0160E177E20E943D
:100740001B0E862F805D0E945903CE0160E177E287
:100750000E941B0E68EE73E00E941B0E862F805DC8
:100760000E945903CE0168EE73E00E941B0E64E6FE
:1007700070E00E941B0E862F805D0E945903CE01FF
:1007800064E670E00E941B0E6AE070E00E941B0E9F
:10079000862F805D0E945903CE016AE070E00E94BE
:1007A0001B0E805D0E945903DF91CF910895CF9376
:1007B000DF93EC0197FD05C08BE20E945903CE0147
:1007C00007C08DE20E945903882799278C1B9D0B37
:1007D0000E948B03DF91CF9108950F931F938C019B
:1007E00060E177E20E941B0E862F805D0E94590314
:1007F000C80160E177E20E941B0E68EE73E00E9480
:100800001B0E862F805D0E945903C80168EE73E0BD
:100810000E941B0E64E670E00E941B0E862F805D16
:100820000E945903C80164E670E00E941B0E6AE052
:1008300070E00E941B0E862F805D0E945903C80144
:100840006AE070E00E941B0E805D0E9459031F91B8
:100850000F910895CF93DF93EC0197FD05C08BE2D4
:100860000E945903CE0107C08DE20E9459038827D8
:1008700099278C1B9D0B0E94ED03DF91CF9108956A
:100880001F93182F8A3098F0843630F064E60E9467
:100890000F0E805D0E945903812F64E60E940F0EA7
:1008A000892F6AE00E940F0E805D0E945903812FFC
:1008B0006AE00E940F0E892F805D0E9459031F91EC
:1008C00008951F93182F87FD05C08BE20E945903DE
:1008D000812F05C08DE20E945903812F81950E94CE
:1008E00040041F9108951F93182F64E60E940F0E75
:1008F000805D0E945903812F64E60E940F0E892FAC
:100900006AE00E940F0E805D0E945903812F6AE009
:100910000E940F0E892F805D0E9459031F91089538
:100920001F93182F87FD05C08BE20E945903812F6A
:1009300005C08DE20E945903812F81950E947304A6
:100940001F9108951F93CF93DF93EC0110E003C034
:100950001F5F0E945903FE01E10FF11D8081882372
:10096000B9F7DF91CF911F910895AAE0B0E0EBEBCA
:10097000F4E00C944E0E7E010894E11CF11CA701DA
:1009800023E030E000E010E00E947F0EC7010E94EB
:10099000A2042A96E6E00C946A0E5F980E94400337
:1009A00084E690E00E9495010895282F30E086E0CB
:1009B000220F331F8A95E1F7862F61E10E940F0E07
:1009C000892F822B80680E94CD04089580EC0E94BC
:1009D000CD04089580E80E94CD04089588E00E9427
:1009E000CD0408958CE00E94CD04089581E00E941A
:1009F000CD0484EE9CE00E9495010895569A579A82
:100A00005E988FE090E00E948B0188E30E94CD0405
:100A100084E293E10E94950188E30E94CD0482E381
:100A200090E00E94950188E30E94CD0488E30E9433
:100A3000CD040E94EE040E94F60486E00E94CD04DC
:100A40000E94F20408958830B0F4E82FF0E0EE0F31
:100A5000FF1FDF01A555BD4F88EF91E111969C93D3
:100A60008E932D913C9188E893E1821B930BE55482
:100A7000FD4F9183808308958830F8F42CE0629FC5
:100A80009001112428543A4FE82FF0E0EE0FFF1F99
:100A9000DF01A555BD4F4D915C9188E893E1841B22
:100AA000950BF894DF01A555BD4F11963C932E93FD
:100AB000E554FD4F918380837894089520E030E0E1
:100AC00068EF71E148E853E1F901EE0FFF1FDF0124
:100AD000A555BD4F11967C936E938D919C91DA0133
:100AE000A81BB90BE554FD4FB183A0832F5F3F4F87
:100AF0002830310549F78091910082608093910000
:100B0000809171008860809371007894089588B90D
:100B100081E0982F9A95F1F75D9A982F9A95F1F7C1
:100B20005D988A95F1F708951F920F920FB60F9274
:100B30000BB60F9211242F933F934F935F936F93B4
:100B40007F938F939F93AF93BF93EF93FF93809186
:100B5000A7028130C9F480E00E94870580919C0043
:100B600090919D00E091A602F0E0EE0FFF1FE5548A
:100B7000FD4F20813181280F391F30939D00209334
:100B80009C001092A70238C08091A6028F5F8093CC
:100B9000A6028091A602883011F41092A602E0917C
:100BA000A602F0E0EE0FFF1FE555FD4F8081918119
:100BB000885F914159F02091A60281E090E002C047
:100BC000880F991F2A95E2F70E94870520919C00C3
:100BD00030919D00E091A602F0E0EE0FFF1FE55579
:100BE000FD4F80819181820F931F90939D00809390
:100BF0009C0081E08093A702FF91EF91BF91AF919C
:100C00009F918F917F916F915F914F913F912F9124
:100C10000F900BBE0F900FBE0F901F901895E0E83D
:100C2000F0E081E080838BE0809381008DB1806C67
:100C30008DB9259A808180688083109289001092F6
:100C400088008DB18C608DB9269A80818062808306
:100C500010928B0010928A0008958F3729F4109219
:100C600088006D9A759808956D98759A282F30E0D0
:100C700087FF08C08EB18F7380688EB9822F880F6E
:100C80008F5F0AC08EB18F7380648EB98FE790E05A
:100C9000821B930B880F991F8093880008958FEF14
:100CA000809388008EB18F738EB908958F3729F4A1
:100CB00010928A006C9A749808956C98749A282FF0
:100CC00030E087FF08C08EB1837F84608EB9822FA9
:100CD000880F8F5F0AC08EB1837F88608EB98FE7DF
:100CE00090E0821B930B880F991F80938A000895D0
:100CF0008FEF80938A008EB1837F8EB9089580E64E
:100D000080937C00EAE7F0E0808187688083089523
:100D1000982F883010F08DEB089580E680937C004A
:100D200080917C00892B80937C0080917A00806484
:100D300080937A0080917A0086FDFCCF80917900C3
:100D40000895982F883018F02DEA3BE01BC080E40E
:100D500080937C0080917C00892B80937C00809123
:100D60007A00806480937A0080917A0086FDFCCFBF
:100D70003091780020917900922F80E0232F30E08D
:100D8000282B392BC9010895E9EBF0E080818D7F94
:100D9000808380818160808382E18093B8000895A0
:100DA00084EA8093BC008091BC0087FFFCCF8091D7
:100DB000B900887F08958093BB0084E88093BC00CD
:100DC0008091BC0087FFFCCF8091B900887F089597
:100DD000982F813011F484EC01C084E88093BC002A
:100DE0008091BC0087FFFCCF913031F48091B90035
:100DF000887F803559F407C0992329F48091B90080
:100E0000887F883519F48091BB00089580E00895AB
:100E100084E98093BC000895982F84EA8093BC00F5
:100E20008091BC0087FFFCCF8091B900887F88301B
:100E300011F0803109F59093BB0084E88093BC00E9
:100E40008091BC0087FFFCCF8091B900887F8831FA
:100E500099F46093BB0084E88093BC008091BC004F
:100E600087FFFCCF8091B900887F883229F484E91C
:100E70008093BC0081E0089580E00895982F84EA73
:100E80008093BC008091BC0087FFFCCF8091B900AB
:100E9000887F883011F0803179F59093BB0084E829
:100EA0008093BC008091BC0087FFFCCF8091B9008B
:100EB000887F883109F56093BB0084E88093BC008B
:100EC0008091BC0087FFFCCF8091B900887F883279
:100ED00099F47093BB0084E88093BC008091BC00BF
:100EE00087FFFCCF8091B900887F883229F484E99C
:100EF0008093BC0081E0089580E00895982F84EAF3
:100F00008093BC008091BC0087FFFCCF8091B9002A
:100F1000887F883011F08031B9F49F5F9093BB00D7
:100F200084E88093BC008091BC0087FFFCCF809157
:100F3000B900887F803441F480E00E94E806982F51
:100F400084E98093BC0001C090E0892F0895982F18
:100F500084EA8093BC008091BC0087FFFCCF809125
:100F6000B900887F883011F0803179F59093BB000B
:100F700084E88093BC008091BC0087FFFCCF809107
:100F8000B900887F883109F56093BB0084E88093BD
:100F9000BC008091BC0087FFFCCF8091B900887FA6
:100FA000883299F44093BB0084E88093BC00809120
:100FB000BC0087FFFCCF8091B900887F883229F47C
:100FC00084E98093BC0081E0089580E00895982F23
:100FD00084EA8093BC008091BC0087FFFCCF8091A5
:100FE000B900887F883019F0803109F03FC09093B4
:100FF000BB0084E88093BC008091BC0087FFFCCFDD
:101000008091B900887F883189F56093BB0084E8BE
:101010008093BC008091BC0087FFFCCF8091B90019
:10102000887F883219F584EA8093BC008091BC00E7
:1010300087FFFCCF8091B900887F883011F0803124
:10104000A9F49F5F9093BB0084E88093BC008091DB
:10105000BC0087FFFCCF8091B900887F803431F4D9
:1010600080E00E94E80694E99093BC000895982FD0
:1010700084EA8093BC008091BC0087FFFCCF809104
:10108000B900887F883011F08031B9F59093BB00AA
:1010900084E88093BC008091BC0087FFFCCF8091E6
:1010A000B900887F883149F56093BB0084E880935C
:1010B000BC008091BC0087FFFCCF8091B900887F85
:1010C0008832D9F4F90190E024E810C0808180933F
:1010D000BB002093BC008091BC0087FFFCCF8091B7
:1010E000B9003196887F883241F49F5F941770F37E
:1010F00084E98093BC0081E0089580E00895CF9258
:10110000DF92FF920F931F93CF93DF93982F690184
:1011100084EA8093BC008091BC0087FFFCCF809163
:10112000B900887F883019F0803109F057C090935A
:10113000BB0084E88093BC008091BC0087FFFCCF9B
:101140008091B900887F883109F048C06093BB0066
:1011500084E88093BC008091BC0087FFFCCF809125
:10116000B900887F8832D1F584EA8093BC008091F1
:10117000BC0087FFFCCF8091B900887F883011F0D8
:10118000803161F59F5F9093BB0084E88093BC0041
:101190008091BC0087FFFCCF8091B900887F8034AC
:1011A000E9F4FF24C42FD0E0219706C081E00E941B
:1011B000E806F8018083F3948F2D90E08601080FF4
:1011C000191F8C179D0794F380E00E94E806F80130
:1011D000808384E98093BC0081E001C080E0DF91DE
:1011E000CF911F910F91FF90DF90CF900895982F8E
:1011F00084EA8093BC008091BC0087FFFCCF809183
:10120000B900887F883019F0803109F045C090938B
:10121000BB0084E88093BC008091BC0087FFFCCFBA
:101220008091B900887F8831B9F57093BB0084E85C
:101230008093BC008091BC0087FFFCCF8091B900F7
:10124000887F883249F56093BB0084E88093BC00B6
:101250008091BC0087FFFCCF8091B900887F8832E5
:10126000D9F4F90190E024E810C080818093BB009C
:101270002093BC008091BC0087FFFCCF8091B90017
:101280003196887F883241F49F5F941770F384E928
:101290008093BC0081E0089580E00895CF92DF92B2
:1012A000FF920F931F93CF93DF93982F690184EAE6
:1012B0008093BC008091BC0087FFFCCF8091B90077
:1012C000887F883019F0803109F066C09093BB00A8
:1012D00084E88093BC008091BC0087FFFCCF8091A4
:1012E000B900887F883109F057C07093BB0084E84B
:1012F0008093BC008091BC0087FFFCCF8091B90037
:10130000887F883209F048C06093BB0084E88093EE
:10131000BC008091BC0087FFFCCF8091B900887F22
:101320008832D1F584EA8093BC008091BC0087FFAD
:10133000FCCF8091B900887F883011F0803161F551
:101340009F5F9093BB0084E88093BC008091BC00B9
:1013500087FFFCCF8091B900887F8034E9F4FF24B7
:10136000C42FD0E0219706C081E00E94E806F80172
:101370008083F3948F2D90E08601080F191F8C173E
:101380009D0794F380E00E94E806F801808384E9D9
:101390008093BC0081E001C080E0DF91CF911F917C
:1013A0000F91FF90DF90CF90089580E28093B60078
:1013B00085E08093B10081E0809370001092AA02D2
:1013C0001092A9021092B200789408951F920F9281
:1013D0000FB60F9211248F939F938091A902909141
:1013E000AA0201969093AA028093A9029F918F91DD
:1013F0000F900FBE0F901F901895F89487E680937A
:10140000C4001092C5001092C00086E08093C20014
:1014100088E98093C100789408958091C00087FF87
:10142000FCCF8091C6000895982F8091C00085FF61
:10143000FCCF9093C6000895F89487E68093CC0083
:101440001092CD001092C80086E08093CA0088E90F
:101450008093C900789408958091C80087FFFCCFDD
:101460008091CE000895982F8091C80085FFFCCF11
:101470009093CE0008952091CC02922F80E020918D
:10148000CD0230E0282B392BC90108958091CB0281
:1014900090E0FC013197E132F10508F082C0EA5991
:1014A000FF4F0C94790E0E94BC0185C00E94BE01C2
:1014B00082C00E94F2047FC00E94EE047CC00E94A1
:1014C000F60479C00E94EA0476C00E941F0373C02C
:1014D0000E944F0670C00E9478066DC02091CC0219
:1014E000922F80E02091CD0230E0822B932B0E943E
:1014F0008B0161C02091CC02922F80E02091CD021F
:1015000030E0822B932B0E94950155C08CEC92E029
:1015100050C02091CC02922F80E02091CD0230E08B
:10152000822B932B0E94230546C02091CC02609110
:10153000CD02922F80E070E0682B792B872F90E00E
:1015400070E00E943C0537C09091CC028091CD02A2
:1015500020E0822B90E00E942D062DC09091CC02BD
:101560008091CD0220E0822B90E00E94560623C09D
:101570002091CC026091CD02922F80E070E0682B28
:10158000792B872F90E070E00E94D50414C00E9450
:101590009F01982F8091C00085FFFCCF9093C600DB
:1015A0000AC080E090E060E070E00E94D50481E233
:1015B00092E00E94A2041092A80208951F920F9236
:1015C0000FB60F920BB60F9211242F933F934F93A8
:1015D0005F936F937F938F939F93AF93BF93EF939B
:1015E000FF939091C6008091A802823118F010926A
:1015F000A8021BC08091A802E82FF0E0E553FD4F40
:1016000090838F5F8093A8028091CB02843158F041
:101610008091CB02863119F4992339F404C080916A
:10162000A802833011F40E94460AFF91EF91BF9106
:10163000AF919F918F917F916F915F914F913F916A
:101640002F910F900BBE0F900FBE0F901F9018950B
:101650001F920F920FB60F920BB60F9211242F9379
:101660003F934F935F936F937F938F939F93AF932A
:10167000BF93EF93FF939091C6008091A8028231AF
:1016800018F01092A8021BC08091A802E82FF0E089
:10169000E553FD4F90838F5F8093A8028091CB022A
:1016A000843158F08091CB02863119F4992339F4B2
:1016B00004C08091A802833011F40E94460AFF9171
:1016C000EF91BF91AF919F918F917F916F915F91BA
:1016D0004F913F912F910F900BBE0F900FBE0F9027
:1016E0001F9018951F920F920FB60F920BB60F9284
:1016F00011242F933F934F935F936F937F938F9317
:101700009F93AF93BF93EF93FF93F8940E94EB0DD9
:101710000E94F6040E94EA0482E392E00E94A2047E
:101720000E94E60488E392E00E94A20488EE93E01F
:101730000E948B010E94F60480E090E00E94D90D87
:10174000FFCFEF92FF920F931F93E82EF62E10E03B
:101750000EC08E2D90E00E948806002329F4853665
:1017600030F01F5F01E003C0863408F400E01F156D
:1017700081F71F910F91FF90EF900895EF92FF92E4
:101780000F931F93E82E00E023C080E090E00E94BA
:101790008806182F81E090E00E948806F82E153602
:1017A00050F0EE2019F00E944F0604C08FE790E041
:1017B0000E942D06016084E68F1550F4EE2019F08A
:1017C0000E94780604C08FE790E00E9456060260EF
:1017D0000330D8F21F910F91FF90EF9008950E946F
:1017E000F60481E090E060E070E00E94A20486E4EC
:1017F00090E00E942D068BE490E00E94560680E067
:1018000061E00E94A10B86E490E00E94D90D08954A
:1018100087EA90E00E942D0681E990E00E9456063A
:1018200088EC90E00E948B0180E062E00E94A10BB6
:101830008CE390E00E94CA0D8CE291E00E948B0143
:101840008CE390E00E94D90D81E00E94BE0B82E300
:1018500090E00E94CA0D88EC90E00E948B0182E328
:1018600090E00E94D90D81E00E94BE0B0E94EB0D1A
:1018700008950E94080C08951F93182FF89486E489
:1018800090E00E94D90D82E390E00E94560684E623
:1018900090E00E948B0181E0612F0E94A10B82E306
:1018A00090E00E948B0181E00E94BE0B82E390E0F9
:1018B0000E94CA0D88EC90E00E948B0182E390E0C8
:1018C0000E94D90D81E00E94BE0B78940E94EB0D1E
:1018D0001F91089586E490E00E94D90D88EC90E075
:1018E0000E948B0182E390E00E94D90D81E00E946A
:1018F000BE0B82E390E00E94CA0D88EC90E00E944B
:101900008B0182E390E00E94D90D81E00E94BE0B22
:101910000E94EB0D8CE390E00E94CA0D88EC90E0F1
:101920000E948B0180EA90E00E942D0688EC90E0F6
:101930000E94560680E061E00E94A10B81E00E94B7
:10194000BE0B82E390E00E94CA0D88EC90E00E94FA
:101950008B0186E490E00E94D90D81E00E94BE0BCD
:101960000E94EB0D88EC90E00E948B0108950E948C
:10197000F60483E492E00E94A2040E946A0C0E9492
:10198000F6048BE492E00E94A20482E00E943C0CE8
:101990000E94F60486E592E00E94A2040E946A0C6E
:1019A0000E94F60481E692E00E94A20408951F932B
:1019B000182FF89488E790E00E94F00D87E090E0FF
:1019C0000E942D0685E090E00E94560682E0612F7D
:1019D0000E94A10B78940E94EB0D153039F482E33C
:1019E00090E00E94D90D81E00E94BE0B1F910895E6
:1019F0000E94F6040E94EA048AE692E00E94A20491
:101A000086E490E00E94D90D82E062E00E94A10B82
:101A100088E290E00E94B60D80E061E00E94A10B98
:101A20000E94EB0D84EB90E00E94560682E061E09C
:101A30000E94A10B8CE390E00E94D90D8CE291E012
:101A40000E948B010E94EB0D08951F93182F82E3D3
:101A500090E00E94D90D82E061E00E94A10B812FED
:101A600090E00E948B010E94EB0D88E290E00E94C2
:101A7000B60D80E062E00E94A10B8CE390E00E9432
:101A8000CA0D133341F48AEA90E00E94560688ECAE
:101A900090E00E948B0186E990E00E948B0188E231
:101AA00090E00E94D90D81E00E94BE0B0E94EB0DD8
:101AB00088E290E00E94B60D84E690E00E948B01DF
:101AC00082E390E00E94CA0D8CE291E00E948B01BB
:101AD00088E290E00E94D90D81E00E94BE0B0E9436
:101AE000EB0D1F9108950F931F930E94F60483E757
:101AF00092E00E94A20486E90E94250D0E94F6044D
:101B000081E892E00E94A20485E00E94D70C0E9426
:101B1000F6040EE812E0C8010E94A20480E00E94D0
:101B2000250D0E94F60483E492E00E94A2040E9424
:101B3000F80C0E94F604C8010E94A20486E90E94E3
:101B4000250D0E94F60484E992E00E94A20484E03C
:101B50000E94D70C0E94F60489E992E00E94A20438
:101B600083E30E94250D1F910F9108950F931F93FA
:101B7000082F112707FD10958FE790E0801B910B30
:101B80000E942D06C80181589F4F0E9456061F9142
:101B90000F9108950F931F93082F10E001581F4FC6
:101BA000C8010E942D06C8010E9456061F910F9180
:101BB00008950F931F93992787FD90950FE710E0E5
:101BC000081B190BC8010E942D06C8010E94560669
:101BD0001F910F9108950E944F060E947806089564
:101BE000FF920F931F93F82E63E10E940F0E082FB0
:101BF00011E00FC01F9DC0011124602F70E00E94F2
:101C00002F0E862F0E94D90D83E190E00E948B0158
:101C10001F5F011778F71F910F91FF900895991B8F
:101C200079E004C0991F961708F0961B881F7A95D3
:101C3000C9F780950895AA1BBB1B51E107C0AA1FD5
:101C4000BB1FA617B70710F0A61BB70B881F991F5D
:101C50005A95A9F780959095BC01CD01089597FB01
:101C6000092E07260AD077FD04D0E5DF06D0002034
:101C70001AF4709561957F4F0895F6F790958195C8
:101C80009F4F08952F923F924F925F926F927F9253
:101C90008F929F92AF92BF92CF92DF92EF92FF927C
:101CA0000F931F93CF93DF93CDB7DEB7CA1BDB0B28
:101CB0000FB6F894DEBF0FBECDBF09942A883988CD
:101CC00048885F846E847D848C849B84AA84B984D4
:101CD000C884DF80EE80FD800C811B81AA81B981E0
:101CE000CE0FD11D0FB6F894DEBF0FBECDBFED01F4
:101CF0000895EE0FFF1F0590F491E02D0994DF92F7
:101D0000EF92FF920F931F93CF93DF937A01D02E20
:101D1000122F283008F017E0A701212F00E00E94C1
:101D2000090F682FF7015191252F50FF04C053FD73
:101D300002C08DE209C0D1FE02C08BE205C0D0FC1A
:101D400002C0C70104C080E2D7018C93CF01482FA5
:101D5000392F23FF03C066E171E004C022FF0BC0EE
:101D60006EE071E0D2FE02C06C5F7F4F842F932F34
:101D70000E94E10F45C0F7012181DC012D93213341
:101D800009F05F7E1123A9F0E701842F932FFC0156
:101D9000912F2EE28A812183915021963196282F0E
:101DA0009923C1F71150812F90E00196A80FB91F18
:101DB0002D93D2FC02C085E601C085E4962FFD017B
:101DC000819367FF07C08DE211968C93DF01119616
:101DD00091950AC0662329F454FF03C0DF018DE208
:101DE00002C0DF018BE28D9380E302C08F5F9A50C7
:101DF0009A30E4F7FD018193905D11969C931182D6
:101E0000C701DF91CF911F910F91FF90EF90DF906D
:101E10000895283008F027E03327DA01990F311DA3
:101E200087FD916000966105710539F432602E5F7F
:101E30003D9330E32A95E1F708959F3F30F08038D5
:101E40007105610509F03C5F3C5F3D93913008F0FE
:101E50008068911DDF93CF931F930F93FF92EF92B2
:101E6000192F987F9695E92F96959695E90FFF275C
:101E7000E858FE4F99273327EE24FF24A701E701F6
:101E800005900894079428F4360FE71EF81E491FA2
:101E9000511D660F771F881F991F0694A1F70590A3
:101EA000079428F4E70EF81E491F561FC11D770F2F
:101EB000881F991F661F0694A1F70590079428F4C0
:101EC000F80E491F561FC71FD11D880F991F661F87
:101ED000771F0694A1F70590079420F4490F561F29
:101EE000C71FD81F990F661F771F881F0694A9F771
:101EF00084911095177041F0D695C79557954795E1
:101F0000F794E7941A95C1F7EEE1F1E06894159023
:101F1000159135916591959105907FE27395E11842
:101F2000F10A430B560BC90BD009C0F7E10CF11EA7
:101F3000431F561FC91FD01D7EF4703311F48A95BC
:101F4000E6CFE894015030F0080F0AF4002702179A
:101F500008F4202F2395022F7A3328F079E37D931C
:101F60002A95E9F710C07D932A9589F606949795EE
:101F70006795379517951794E118F10A430B560B9F
:101F8000C90BD00998F023957E9173957A3308F0A8
:101F900070E37C932013B8F77E9170617D9330F0ED
:101FA000839571E37D9370E32A95E1F71124EF9017
:101FB000FF900F911F91CF91DF91992787FD909509
:101FC0000895FB01DC0105900D920020E1F70895D2
:041FD000F894FFCFB3
:101FD4002020202054617065426F742056312E30C9
:101FE40020200054617065426F742057696E73211C
:101FF40000434D4420556E7265636F676E697A6560
:1020040064004F68204E6F004920616D2053747541
:10201400636B0052434F524E455200506C6F772011
:10202400496E6E6572005475726E20496E6E6572EB
:1020340000436F6E74696E7565005475726E696ED7
:102044006721005354415254202D20525455524E6E
:1020540000525455524E202D20504C4F570052548C
:1020640055524E00504C4F5700504C4F57202D2086
:06207400525455524E00CB
:00000001FF
