:100000000C940C010C9434010C9434010C943401C4
:100010000C9434010C9434010C9434010C9434018C
:100020000C9434010C94E60B0C9434010C943401C0
:100030000C9434010C9434010C9434010C94200A77
:100040000C9434010C9434010C9434010C9434015C
:100050000C9434010C9434010C9434010C9434014C
:100060000C9434010C94620B0C9434010C94340104
:100070000C9434010C9434010C9434010C9434012C
:100080000C9434010C9434010C94CE050C9434017E
:100090000C94180B0C9434010C9434010C9434011E
:1000A0000C9434010C9434010C9434010C943401FC
:1000B0000C9434010C9434010C9434010C943401EC
:1000C0000C9434010C9434010C9434018D0A900A80
:1000D0000B0B0B0B930A960A990A9C0A010B0B0B4C
:1000E0009F0AA20AA50A0B0B0B0B0B0B0B0B0B0B9E
:1000F0000B0BA80AB40AC00A010B010BC30A0B0BB5
:100100000B0B0B0B0B0BCF0ADE0AF20AE80A696E27
:100110006600494E46006E616E004E414E00004042
:100120007A10F35A00A0724E18090010A5D4E80006
:1001300000E87648170000E40B54020000CA9A3B1E
:10014000000000E1F50500008096980000004042A4
:100150000F000000A0860100000010270000000032
:10016000E803000000006400000000000A00000036
:1001700000000100000000002C76D888DC674F08E2
:1001800023DFC1DFAE59E1B1B796E5E3E453C63AE8
:10019000E651997696E8E6C28426EB898C9B62ED5F
:1001A000407C6FFCEFBC9C9F40F2BAA56FA5F49019
:1001B000055A2AF75C936B6CF9676DC11BFCE0E490
:1001C0000D47FEF520E6B500D0ED902E03009435E6
:1001D00077050080841E080000204E0A000000C839
:1001E0000C333333330F986E12831141EF8D21148A
:1001F000893BE65516CFFEE6DB18D1844B381BF75A
:100200007C1D901DA4BBE424203284725E228100F8
:10021000C9F124ECA1E53D2711241FBECFEFD1E2A7
:10022000DEBFCDBF14BE88E10FB6F89480936000A6
:10023000109260000FBE12E0A0E0B2E0E4E0FFE147
:1002400000E00BBF02C007900D92A23BB107D9F7A7
:1002500012E0A2EBB2E001C01D92A93EB107E1F7A6
:100260000E9456010C94800F0C940000F894249A7C
:100270002C98EBE6F0E0808180618083808180684B
:100280008083E8E6F0E0808181608083789408953F
:1002900080E090E06FEF70E00E947605089580E0C6
:1002A00090E063E770E00E94760508950E94650380
:1002B000F8940E9436010E94300580E092E00E948E
:1002C000DC040E942005789480E090E063E770E011
:1002D0000E9476050E94DF010E941A0D0E94E10B28
:1002E0000E94300583E192E00E94DC0483E090E00C
:1002F0000E947D0D0E94300581E292E00E94DC04A4
:100300000E942A0D0E9430058EE292E00E94DC04D9
:1003100081E090E00E947D0D0E94300584E392E030
:100320000E94DC040E944C0D0E9430058EE292E097
:100330000E94DC0483E090E00E947D0D0E94300565
:100340008CE392E00E94DC040E942A0D0E9430059A
:1003500081E492E00E94DC0483E090E00E947D0D45
:100360000E9430058EE492E00E94DC0480E090E080
:100370006FEF70E00E9476050E94DF0180E090E060
:1003800063E770E00E947605FFCF20EA3FE004C0FB
:10039000F9013197F1F701970097D1F7089524E01B
:1003A00030E004C0F9013197F1F701970097D1F7D8
:1003B000089589B182958F708095817008954C99C8
:1003C000FECF8EE190E020EA3FE0F9013197F1F7AE
:1003D0000197D9F74C9BFECF8EE190E020EA3FE0F9
:1003E000F9013197F1F70197D9F70895A29A089585
:1003F000A29808958230A8F1482F425061307105CB
:1004000039F16130710528F06230710509F04EC094
:100410000FC081B121E030E002C0220F331F4A95A6
:10042000E2F72095822381B982B1282322B9089569
:1004300031B181E090E002C0880F991F4A95E2F740
:10044000282F2095232321B922B1822B82B9089528
:1004500081B102C0660F771F4A95E2F7862B81B9FA
:100460000895813091F46130710569F06130710552
:1004700020F062307105D1F403C027982F980895B9
:1004800027982F9A0895279A08956130710569F089
:100490006130710520F06230710541F403C0249889
:1004A0002C98089524982C9A0895249A0895282F1A
:1004B00080FF02C0249A01C0249821FF02C0279A1D
:1004C00001C02798969587959695879581B9089547
:1004D000249905C080FF02C02C9A01C02C9827994E
:1004E00005C081FF02C02F9A01C02F98969587956D
:1004F0009695879540E050E0682F70E0E1E0F0E0ED
:1005000081B190E0042E02C0959587950A94E2F798
:1005100080FD1FC0CB01042E02C0959587950A94DB
:10052000E2F780FF0BC022B1CF01042E02C0880F7A
:10053000991F0A94E2F7282B22B90BC022B1CF01F0
:10054000042E02C0880F991F0A94E2F78095822337
:1005500082B94F5F5F4F4830510591F60895823060
:10056000B0F040B1282F30E02250304081E090E0E0
:10057000022E02C0880F991F0A94E2F750E08423EC
:10058000952302C0959587952A95E2F708958130C5
:1005900029F483B1881F8827881F089583B190E0CC
:1005A0008071907044E0959587954A95E1F708959C
:1005B0006623B9F0823078F042B1282F30E0225023
:1005C000304081E090E002C0880F991F2A95E2F741
:1005D000482B42B90895813011F42F9A08952C9A2E
:1005E0000895823080F042B1282F30E02250304010
:1005F00081E090E002C0880F991F2A95E2F780956C
:10060000842382B90895813011F42F9808952C988D
:1006100008959C01369527953695279522B945B1C1
:1006200090E09C012170307074E0220F331F7A95A6
:10063000E1F74F76422B827090709595879596954D
:10064000982F882797958795482B45B9089540B1ED
:1006500083B123B130E020713070B4E03595279537
:10066000BA95E1F750E0440F551F440F551F242B56
:10067000352B881F8827881F90E0880F991F282B0B
:10068000392BC9010895823068F0282F30E02250BC
:10069000304081E090E002C0880F991F2A95E2F770
:1006A00080B90895813011F480E801C080E183B9F8
:1006B000089528E088E190E00FB6F894A89580931B
:1006C00060000FBE20936000FFCF54985C9A9A9A06
:1006D000559A8FEF87B90E9438050E9449060E94FB
:1006E00098050E94B9060E94370A0E94560A0E9485
:1006F0000F0A0895982F990F9A7A86958575982BE9
:10070000892F880F880F8C7C969596959373892BEB
:100710008295F8945E9A88B981E090E00E94CF01BA
:100720005E98789408955F9A0E947A0382E390E03D
:100730000E94CF0108958F708A3010F4805D01C04F
:10074000895C0E94930308950F931F938C01812F5E
:1007500082958F700E949B03812F0E949B03802FA4
:1007600082958F700E949B03802F0E949B031F9194
:100770000F9108951F93182F82958F700E949B03ED
:10078000812F0E949B031F910895CF93DF93EC016B
:100790008A309105D8F18436910558F183E0C83E3E
:1007A000D807D0F087E2C031D80748F0CE0160E129
:1007B00077E20E94C60D862F805D0E949303CE01D2
:1007C00060E177E20E94C60D68EE73E00E94C60DFC
:1007D000862F805D0E949303CE0168EE73E00E9435
:1007E000C60D64E670E00E94C60D862F805D0E94F3
:1007F0009303CE0164E670E00E94C60D6AE070E0EB
:100800000E94C60D862F805D0E949303CE016AE090
:1008100070E00E94C60D805D0E949303DF91CF912E
:100820000895CF93DF93EC0197FD05C08BE20E9402
:100830009303CE0107C08DE20E9493038827992776
:100840008C1B9D0B0E94C503DF91CF9108950F93E0
:100850001F938C0160E177E20E94C60D862F805DB8
:100860000E949303C80160E177E20E94C60D68EE22
:1008700073E00E94C60D862F805D0E949303C8011D
:1008800068EE73E00E94C60D64E670E00E94C60D3B
:10089000862F805D0E949303C80164E670E00E9489
:1008A000C60D6AE070E00E94C60D862F805D0E9432
:1008B0009303C8016AE070E00E94C60D805D0E944B
:1008C00093031F910F910895CF93DF93EC0197FD50
:1008D00005C08BE20E949303CE0107C08DE20E9407
:1008E0009303882799278C1B9D0B0E942704DF9177
:1008F000CF9108951F93182F8A3098F0843630F0E6
:1009000064E60E94BA0D805D0E949303812F64E625
:100910000E94BA0D892F6AE00E94BA0D805D0E9484
:100920009303812F6AE00E94BA0D892F805D0E9497
:1009300093031F9108951F93182F87FD05C08BE225
:100940000E949303812F05C08DE20E949303812FA3
:1009500081950E947A041F9108951F93182F64E6D1
:100960000E94BA0D805D0E949303812F64E60E946D
:10097000BA0D892F6AE00E94BA0D805D0E94930330
:10098000812F6AE00E94BA0D892F805D0E94930337
:100990001F9108951F93182F87FD05C08BE20E94B9
:1009A0009303812F05C08DE20E949303812F8195CF
:1009B0000E94AD041F9108951F93CF93DF93EC0124
:1009C00010E003C01F5F0E949303FE01E10FF11DC1
:1009D00080818823B9F7DF91CF911F910895AAE014
:1009E000B0E0E5EFF4E00C94E60D7E010894E11C24
:1009F000F11CA70123E030E000E010E00E94170E98
:100A0000C7010E94DC042A96E6E00C94020E5F986F
:100A10000E947A0384E690E00E94CF010895282F77
:100A200030E086E0220F331F8A95E1F7862F61E1DF
:100A30000E94BA0D892F822B80680E9407050895B5
:100A400080EC0E940705089580E80E94070508953C
:100A500088E00E94070508958CE00E94070508952C
:100A600081E00E94070584EE9CE00E94CF0108957A
:100A7000569A579A5E988FE090E00E94C50188E3ED
:100A80000E94070584E293E10E94CF0188E30E945F
:100A9000070582E390E00E94CF0188E30E940705EA
:100AA00088E30E9407050E9428050E94300586E021
:100AB0000E9407050E942C0508958830B0F4E82FA5
:100AC000F0E0EE0FFF1FDF01A954BD4F88EF91E169
:100AD00011969C938E932D913C9188E893E1821B13
:100AE000930BE953FD4F9183808308958830F8F488
:100AF0002CE0629F9001112428543A4FE82FF0E037
:100B0000EE0FFF1FDF01A954BD4F4D915C9188E8A6
:100B100093E1841B950BF894DF01A954BD4F119606
:100B20003C932E93E953FD4F9183808378940895ED
:100B300020E030E068EF71E148E853E1F901EE0FA1
:100B4000FF1FDF01A954BD4F11967C936E938D91C9
:100B50009C91DA01A81BB90BE953FD4FB183A08327
:100B60002F5F3F4F2830310549F780919100826017
:100B700080939100809171008860809371007894D7
:100B8000089588B981E0982F9A95F1F75D9A982F8A
:100B90009A95F1F75D988A95F1F708951F920F9253
:100BA0000FB60F920BB60F9211242F933F934F93D2
:100BB0005F936F937F938F939F93AF93BF93EF93C5
:100BC000FF938091B3028130C9F480E00E94C10597
:100BD00080919C0090919D00E091B202F0E0EE0FB8
:100BE000FF1FE953FD4F20813181280F391F3093BA
:100BF0009D0020939C001092B30238C08091B202F5
:100C00008F5F8093B2028091B202883011F410920B
:100C1000B202E091B202F0E0EE0FFF1FE954FD4F87
:100C200080819181885F914159F02091B20281E0E9
:100C300090E002C0880F991F2A95E2F70E94C10533
:100C400020919C0030919D00E091B202F0E0EE0F07
:100C5000FF1FE954FD4F80819181820F931F909374
:100C60009D0080939C0081E08093B302FF91EF91FF
:100C7000BF91AF919F918F917F916F915F914F91B4
:100C80003F912F910F900BBE0F900FBE0F901F90B2
:100C90001895E0E8F0E081E080838BE080938100AC
:100CA0008DB1806C8DB9259A808180688083109287
:100CB0008900109288008DB18C608DB9269A808150
:100CC0008062808310928B0010928A0008958F3783
:100CD00029F4109288006D9A759808956D98759A08
:100CE000282F30E087FF08C08EB18F7380688EB9DF
:100CF000822F880F8F5F0AC08EB18F7380648EB988
:100D00008FE790E0821B930B880F991F80938800D8
:100D100008958FEF809388008EB18F738EB90895F8
:100D20008F3729F410928A006C9A749808956C9801
:100D3000749A282F30E087FF08C08EB1837F8460CB
:100D40008EB9822F880F8F5F0AC08EB1837F886033
:100D50008EB98FE790E0821B930B880F991F8093C9
:100D60008A0008958FEF80938A008EB1837F8EB9B9
:100D7000089580E680937C00EAE7F0E08081876850
:100D800080830895982F883010F08DEB089580E6C9
:100D900080937C0080917C00892B80937C008091E3
:100DA0007A00806480937A0080917A0086FDFCCF7F
:100DB000809179000895982F883018F02DEA3BE053
:100DC0001BC080E480937C0080917C00892B809301
:100DD0007C0080917A00806480937A0080917A0010
:100DE00086FDFCCF3091780020917900922F80E031
:100DF000232F30E0282B392BC9010895E9EBF0E0CF
:100E000080818D7F808380818160808382E1809377
:100E1000B800089584EA8093BC008091BC0087FFED
:100E2000FCCF8091B900887F08958093BB0084E84F
:100E30008093BC008091BC0087FFFCCF8091B900FB
:100E4000887F0895982F813011F484EC01C084E8E4
:100E50008093BC008091BC0087FFFCCF913031F4BF
:100E60008091B900887F803559F407C0992329F40F
:100E70008091B900887F883519F48091BB0008956E
:100E800080E0089584E98093BC000895982F84EA57
:100E90008093BC008091BC0087FFFCCF8091B9009B
:100EA000887F883011F0803109F59093BB0084E889
:100EB0008093BC008091BC0087FFFCCF8091B9007B
:100EC000887F883199F46093BB0084E88093BC00EC
:100ED0008091BC0087FFFCCF8091B900887F883269
:100EE00029F484E98093BC0081E0089580E00895AE
:100EF000982F84EA8093BC008091BC0087FFFCCFD0
:100F00008091B900887F883011F0803179F5909315
:100F1000BB0084E88093BC008091BC0087FFFCCFBD
:100F20008091B900887F883109F56093BB0084E81F
:100F30008093BC008091BC0087FFFCCF8091B900FA
:100F4000887F883299F47093BB0084E88093BC005A
:100F50008091BC0087FFFCCF8091B900887F8832E8
:100F600029F484E98093BC0081E0089580E008952D
:100F7000982F84EA8093BC008091BC0087FFFCCF4F
:100F80008091B900887F883011F08031B9F49F5F7B
:100F90009093BB0084E88093BC008091BC0087FFE5
:100FA000FCCF8091B900887F803441F480E00E94BA
:100FB0002207982F84E98093BC0001C090E0892F1C
:100FC0000895982F84EA8093BC008091BC0087FF2D
:100FD000FCCF8091B900887F883011F0803179F59D
:100FE0009093BB0084E88093BC008091BC0087FF95
:100FF000FCCF8091B900887F883109F56093BB00F0
:1010000084E88093BC008091BC0087FFFCCF809176
:10101000B900887F883299F44093BB0084E88093BC
:10102000BC008091BC0087FFFCCF8091B900887F15
:10103000883229F484E98093BC0081E0089580E03F
:101040000895982F84EA8093BC008091BC0087FFAC
:10105000FCCF8091B900887F883019F0803109F089
:101060003FC09093BB0084E88093BC008091BC009B
:1010700087FFFCCF8091B900887F883189F5609324
:10108000BB0084E88093BC008091BC0087FFFCCF4C
:101090008091B900887F883219F584EA8093BC007A
:1010A0008091BC0087FFFCCF8091B900887F883099
:1010B00011F08031A9F49F5F9093BB0084E8809386
:1010C000BC008091BC0087FFFCCF8091B900887F75
:1010D000803431F480E00E94220794E99093BC00B0
:1010E0000895982F84EA8093BC008091BC0087FF0C
:1010F000FCCF8091B900887F883011F08031B9F53C
:101100009093BB0084E88093BC008091BC0087FF73
:10111000FCCF8091B900887F883149F56093BB008E
:1011200084E88093BC008091BC0087FFFCCF809155
:10113000B900887F8832D9F4F90190E024E810C022
:1011400080818093BB002093BC008091BC0087FF0E
:10115000FCCF8091B9003196887F883241F49F5F3F
:10116000941770F384E98093BC0081E0089580E0D7
:101170000895CF92DF92FF920F931F93CF93DF9347
:10118000982F690184EA8093BC008091BC0087FF9E
:10119000FCCF8091B900887F883019F0803109F048
:1011A00057C09093BB0084E88093BC008091BC0042
:1011B00087FFFCCF8091B900887F883109F048C053
:1011C0006093BB0084E88093BC008091BC0087FFE3
:1011D000FCCF8091B900887F8832D1F584EA809372
:1011E000BC008091BC0087FFFCCF8091B900887F54
:1011F000883011F0803161F59F5F9093BB0084E8E7
:101200008093BC008091BC0087FFFCCF8091B90027
:10121000887F8034E9F4FF24C42FD0E0219706C0F2
:1012200081E00E942207F8018083F3948F2D90E0E3
:101230008601080F191F8C179D0794F380E00E9408
:101240002207F801808384E98093BC0081E001C01B
:1012500080E0DF91CF911F910F91FF90DF90CF90B1
:101260000895982F84EA8093BC008091BC0087FF8A
:10127000FCCF8091B900887F883019F0803109F067
:1012800045C09093BB0084E88093BC008091BC0073
:1012900087FFFCCF8091B900887F8831B9F57093C2
:1012A000BB0084E88093BC008091BC0087FFFCCF2A
:1012B0008091B900887F883249F56093BB0084E84B
:1012C0008093BC008091BC0087FFFCCF8091B90067
:1012D000887F8832D9F4F90190E024E810C0808139
:1012E0008093BB002093BC008091BC0087FFFCCFA3
:1012F0008091B9003196887F883241F49F5F9417BE
:1013000070F384E98093BC0081E0089580E0089543
:10131000CF92DF92FF920F931F93CF93DF93982F7B
:10132000690184EA8093BC008091BC0087FFFCCFF8
:101330008091B900887F883019F0803109F066C04B
:101340009093BB0084E88093BC008091BC0087FF31
:10135000FCCF8091B900887F883109F057C0709325
:10136000BB0084E88093BC008091BC0087FFFCCF69
:101370008091B900887F883209F048C06093BB0033
:1013800084E88093BC008091BC0087FFFCCF8091F3
:10139000B900887F8832D1F584EA8093BC008091BF
:1013A000BC0087FFFCCF8091B900887F883011F0A6
:1013B000803161F59F5F9093BB0084E88093BC000F
:1013C0008091BC0087FFFCCF8091B900887F80347A
:1013D000E9F4FF24C42FD0E0219706C081E00E94E9
:1013E0002207F8018083F3948F2D90E08601080F87
:1013F000191F8C179D0794F380E00E942207F801C3
:10140000808384E98093BC0081E001C080E0DF91AB
:10141000CF911F910F91FF90DF90CF90089580E2C0
:101420008093B60085E08093B10081E080937000E6
:101430001092B6021092B5021092B20078940895FC
:101440001F920F920FB60F9211248F939F9380914A
:10145000B5029091B60201969093B6028093B502C0
:101460009F918F910F900FBE0F901F901895F89439
:1014700087E68093C4001092C5001092C00086E0F9
:101480008093C20088E98093C10078940895809188
:10149000C00087FFFCCF8091C6000895982F8091EF
:1014A000C00085FFFCCF9093C6000895F89487E6AE
:1014B0008093CC001092CD001092C80086E08093FB
:1014C000CA0088E98093C900789408958091C80083
:1014D00087FFFCCF8091CE000895982F8091C8009F
:1014E00085FFFCCF9093CE0008952091D802922FD3
:1014F00080E02091D90230E0282B392BC9010895D2
:101500008091D70290E0FC013197E132F10508F0BB
:1015100082C0EA59FF4F0C94110E0E94F60185C05B
:101520000E94F80182C00E942C057FC00E942805FD
:101530007CC00E94300579C00E94240576C00E94BC
:10154000590373C00E94890670C00E94B2066DC024
:101550002091D802922F80E02091D90230E0822B96
:10156000932B0E94C50161C02091D802922F80E088
:101570002091D90230E0822B932B0E94CF0155C0DD
:1015800088ED92E050C02091D802922F80E0209107
:10159000D90230E0822B932B0E945D0546C020913A
:1015A000D8026091D902922F80E070E0682B792BED
:1015B000872F90E070E00E94760537C09091D802A6
:1015C0008091D90220E0822B90E00E9467062DC016
:1015D0009091D8028091D90220E0822B90E00E9465
:1015E000900623C02091D8026091D902922F80E00A
:1015F00070E0682B792B872F90E070E00E940F0538
:1016000014C00E94D901982F8091C00085FFFCCFA3
:101610009093C6000AC080E090E060E070E00E9415
:101620000F058CE592E00E94DC041092B40208954C
:101630001F920F920FB60F920BB60F9211242F9399
:101640003F934F935F936F937F938F939F93AF934A
:10165000BF93EF93FF939091C6008091B4028231C3
:1016600018F01092B4021BC08091B402E82FF0E091
:10167000E952FD4F90838F5F8093B4028091D7022F
:10168000843158F08091D702863119F4992339F4C6
:1016900004C08091B402833011F40E94800AFF914B
:1016A000EF91BF91AF919F918F917F916F915F91DA
:1016B0004F913F912F910F900BBE0F900FBE0F9047
:1016C0001F9018951F920F920FB60F920BB60F92A4
:1016D00011242F933F934F935F936F937F938F9337
:1016E0009F93AF93BF93EF93FF939091C600809128
:1016F000B402823118F01092B4021BC08091B4027F
:10170000E82FF0E0E952FD4F90838F5F8093B402A1
:101710008091D702843158F08091D702863119F434
:10172000992339F404C08091B402833011F40E94EB
:10173000800AFF91EF91BF91AF919F918F917F911F
:101740006F915F914F913F912F910F900BBE0F9032
:101750000FBE0F901F9018950F931F93082F1127FE
:1017600007FD10958FE790E0801B910B0E946706A4
:10177000C80181589F4F0E9490061F910F910895B4
:101780000F931F93082F10E001581F4FC8010E94AC
:101790006706C8010E9490061F910F9108950F934C
:1017A0001F93992787FD90950FE710E0081B190BF1
:1017B000C8010E946706C8010E9490061F910F9100
:1017C00008950E9489060E94B20608951F920F9202
:1017D0000FB60F920BB60F9211242F933F934F9396
:1017E0005F936F937F938F939F93AF93BF93EF9389
:1017F000FF93F8940E94E10B0E9430050E9424059B
:101800008DE692E00E94DC040E94200583E792E0CE
:101810000E94DC040E94300580E00E94CF0B789487
:10182000FF91EF91BF91AF919F918F917F916F91B8
:101830005F914F913F912F910F900BBE0F900FBE74
:101840000F901F901895FF920F931F930E942405ED
:101850008EE792E00E94DC0482E30E94CF0B00E05E
:101860003DC080E090E00E94C206182F81E090E029
:101870000E94C206F82E81E090E062E070E00E94D3
:101880000F05812F90E00E94AD0481E090E069E0B7
:1018900070E00E940F058F2D90E00E94AD04133878
:1018A00068F00E94890681E090E062E070E00E94AA
:1018B0000F058FE892E00E94DC04016082E88F153A
:1018C00068F40E94B20681E090E069E070E00E9456
:1018D0000F058FE892E00E94DC040260033008F2FA
:1018E0001F910F91FF900895DF92EF92FF920F9357
:1018F0001F93D82EE62E0E94240583E992E00E94D1
:10190000DC0480E090E066E070E00E940F058E2D20
:1019100090E00E94AD0484EA92E00E94200581E0FC
:1019200090E06BE070E00E940F0580E090E00E9484
:10193000AD0400E024C08D2D90E00E94C206182F57
:1019400081E090E063E070E00E940F05812F90E05D
:101950000E94AD04FF2029F4133888F0FF24F3948B
:101960000EC0163408F40F5F81E090E06BE070E089
:101970000E940F05802F90E00E94AD04FF240E15F9
:10198000D1F61F910F91FF90EF90DF900895DF92B5
:10199000EF92FF920F931F93D82EE62E0E942405FC
:1019A00083E992E00E94DC0480E090E066E070E071
:1019B0000E940F058E2D90E00E94AD0484EA92E013
:1019C0000E94200581E090E06BE070E00E940F052E
:1019D00080E090E00E94AD0400E024C08D2D90E0F6
:1019E0000E94C206182F81E090E063E070E00E9440
:1019F0000F05812F90E00E94AD04FF2081F4133881
:101A000088F00F5F81E090E06BE070E00E940F05CE
:101A1000802F90E00E94AD04FF24F39403C016349D
:101A200008F4FF240E15D1F61F910F91FF90EF904F
:101A3000DF90089586E490E00E9467068BE490E0D2
:101A40000E94900680E061E00E94C70C86E40E943C
:101A5000CF0B0895F89488E20E94CF0B82E390E0C8
:101A60000E94C50180E50E94CF0B82E390E00E94B6
:101A7000C50188E70E94CF0B82E065E00E94C70C99
:101A800078940E94E10B82E30E94C00B0E94230C19
:101A900082E30E94CF0B08950E9430050E94240526
:101AA00089EA92E00E94DC0486E40E94CF0B82E087
:101AB00062E00E94C70C88E20E94AC0B80E061E00B
:101AC0000E94C70C0E94E10B80EA90E00E94900601
:101AD00082E061E00E94C70C8CE30E94CF0B8CE295
:101AE00091E00E94C5010E94E10B8EE190E00E940E
:101AF000C50180E00E94CF0B08951F93182F8CE33F
:101B00000E94CF0B82E061E00E94C70C812F8250BF
:101B1000823020F486E990E00E94C5010E94E10B2A
:101B200088E20E94AC0B80E062E00E94C70C11309A
:101B300011F0133039F48CE30E94C00B88EC90E074
:101B40000E94C5010E94230C0E94E10B88E20E94C2
:101B5000AC0B84E690E00E94C50182E30E94C00BBA
:101B60008CE291E00E94C5010E94230C0E94E10BCF
:101B70001F910895991B79E004C0991F961708F0EA
:101B8000961B881F7A95C9F780950895AA1BBB1BE1
:101B900051E107C0AA1FBB1FA617B70710F0A61B6D
:101BA000B70B881F991F5A95A9F780959095BC018E
:101BB000CD0108952F923F924F925F926F927F9244
:101BC0008F929F92AF92BF92CF92DF92EF92FF924D
:101BD0000F931F93CF93DF93CDB7DEB7CA1BDB0BF9
:101BE0000FB6F894DEBF0FBECDBF09942A8839889E
:101BF00048885F846E847D848C849B84AA84B984A5
:101C0000C884DF80EE80FD800C811B81AA81B981B0
:101C1000CE0FD11D0FB6F894DEBF0FBECDBFED01C4
:101C20000895EE0FFF1F0590F491E02D0994DF92C7
:101C3000EF92FF920F931F93CF93DF937A01D02EF1
:101C4000122F283008F017E0A701212F00E00E9492
:101C5000A10E682FF7015191252F50FF04C053FDAD
:101C600002C08DE209C0D1FE02C08BE205C0D0FCEB
:101C700002C0C70104C080E2D7018C93CF01482F76
:101C8000392F23FF03C066E171E004C022FF0BC0BF
:101C90006EE071E0D2FE02C06C5F7F4F842F932F05
:101CA0000E94790F45C0F7012181DC012D9321337A
:101CB00009F05F7E1123A9F0E701842F932FFC0127
:101CC000912F2EE28A812183915021963196282FDF
:101CD0009923C1F71150812F90E00196A80FB91FE9
:101CE0002D93D2FC02C085E601C085E4962FFD014C
:101CF000819367FF07C08DE211968C93DF011196E7
:101D000091950AC0662329F454FF03C0DF018DE2D8
:101D100002C0DF018BE28D9380E302C08F5F9A5097
:101D20009A30E4F7FD018193905D11969C931182A6
:101D3000C701DF91CF911F910F91FF90EF90DF903E
:101D40000895283008F027E03327DA01990F311D74
:101D500087FD916000966105710539F432602E5F50
:101D60003D9330E32A95E1F708959F3F30F08038A6
:101D70007105610509F03C5F3C5F3D93913008F0CF
:101D80008068911DDF93CF931F930F93FF92EF9283
:101D9000192F987F9695E92F96959695E90FFF272D
:101DA000E858FE4F99273327EE24FF24A701E701C7
:101DB00005900894079428F4360FE71EF81E491F73
:101DC000511D660F771F881F991F0694A1F7059074
:101DD000079428F4E70EF81E491F561FC11D770F00
:101DE000881F991F661F0694A1F70590079428F491
:101DF000F80E491F561FC71FD11D880F991F661F58
:101E0000771F0694A1F70590079420F4490F561FF9
:101E1000C71FD81F990F661F771F881F0694A9F741
:101E200084911095177041F0D695C79557954795B1
:101E3000F794E7941A95C1F7EEE1F1E068941590F4
:101E4000159135916591959105907FE27395E11813
:101E5000F10A430B560BC90BD009C0F7E10CF11E78
:101E6000431F561FC91FD01D7EF4703311F48A958D
:101E7000E6CFE894015030F0080F0AF4002702176B
:101E800008F4202F2395022F7A3328F079E37D93ED
:101E90002A95E9F710C07D932A9589F606949795BF
:101EA0006795379517951794E118F10A430B560B70
:101EB000C90BD00998F023957E9173957A3308F079
:101EC00070E37C932013B8F77E9170617D9330F0BE
:101ED000839571E37D9370E32A95E1F71124EF90E8
:101EE000FF900F911F91CF91DF91992787FD9095DA
:101EF0000895FB01DC0105900D920020E1F70895A3
:041F0000F894FFCF83
:101F04002020202054617065426F742056312E3099
:101F14002020005354415254202D20525455524EE7
:101F240000525455524E202D20504C4F57005254BD
:101F340055524E0052434F524E455200504C4F574B
:101F440000504C4F57202D20525455524E0054618E
:101F54007065426F742057696E732100434D4420AD
:101F6400556E7265636F676E697A6564004F6820A9
:101F74004E6F004920616D20537475636B004C658E
:101F8400667420207C202020526967687420004FEA
:101F94004E2000436F756E742020202020206C6931
:101FA4006E65730056616C3A005475726E696E67A3
:021FB40021000A
:00000001FF
