:100000000C940C010C9434010C9434010C943401C4
:100010000C9434010C9434010C9434010C9434018C
:100020000C9434010C9434010C9434010C9434017C
:100030000C9434010C9434010C9434010C94730A24
:100040000C9434010C9434010C9434010C9434015C
:100050000C9434010C9434010C9434010C9434014C
:100060000C9434010C94B50B0C9434010C943401B1
:100070000C9434010C9434010C9434010C9434012C
:100080000C9434010C9434010C941A060C94340131
:100090000C946B0B0C9434010C9434010C943401CB
:1000A0000C9434010C9434010C9434010C943401FC
:1000B0000C9434010C9434010C9434010C943401EC
:1000C0000C9434010C9434010C943401E00AE30ADA
:1000D0005E0B5E0BE60AE90AEC0AEF0A540B5E0BB4
:1000E000F20AF50AF80A5E0B5E0B5E0B5E0B5E0B06
:1000F0005E0BFB0A070B130B540B540B160B5E0B1A
:100100005E0B5E0B5E0B220B310B450B3B0B696EDE
:100110006600494E46006E616E004E414E00004042
:100120007A10F35A00A0724E18090010A5D4E80006
:1001300000E87648170000E40B54020000CA9A3B1E
:10014000000000E1F50500008096980000004042A4
:100150000F000000A0860100000010270000000032
:10016000E803000000006400000000000A00000036
:1001700000000100000000002C76D888DC674F08E2
:1001800023DFC1DFAE59E1B1B796E5E3E453C63AE8
:10019000E651997696E8E6C28426EB898C9B62ED5F
:1001A000407C6FFCEFBC9C9F40F2BAA56FA5F49019
:1001B000055A2AF75C936B6CF9676DC11BFCE0E490
:1001C0000D47FEF520E6B500D0ED902E03009435E6
:1001D00077050080841E080000204E0A000000C839
:1001E0000C333333330F986E12831141EF8D21148A
:1001F000893BE65516CFFEE6DB18D1844B381BF75A
:100200007C1D901DA4BBE424203284725E228100F8
:10021000C9F124ECA1E53D2711241FBECFEFD1E2A7
:10022000DEBFCDBF14BE88E10FB6F89480936000A6
:10023000109260000FBE12E0A0E0B2E0E6E8FBE141
:1002400000E00BBF02C007900D92A834B107D9F7A8
:1002500012E0A8E4B2E001C01D92AF37B107E1F7A8
:100260000E94B7010C94C10D0C94000080E090E056
:1002700008950F931F93082F112707FD10958FE7FF
:1002800090E0801B910B0E94BA06C80181589F4FD5
:100290000E94E3061F910F9108950F931F939927D2
:1002A00087FD90950FE710E0081B190BC8010E940D
:1002B000BA06C8010E94E3061F910F9108950E949B
:1002C000DC060E9405070895DF92EF92FF920F93DC
:1002D0001F93D82EE62E0E94700580E092E00E94C7
:1002E000280580E090E066E070E00E945B058E2DBE
:1002F00090E00E94F90481E192E00E946C0581E0A7
:1003000090E06BE070E00E945B0580E090E00E946E
:10031000F90400E024C08D2D90E00E941507182FED
:1003200081E090E063E070E00E945B05812F90E047
:100330000E94F904FF2081F4113A88F00F5F81E0F8
:1003400090E06BE070E00E945B05802F90E00E94DF
:10035000F904FF24F39403C01C3808F4FF240E159D
:10036000D1F61F910F91FF90EF90DF9008950E94BA
:10037000B103F8940E947C0586E192E00E94280572
:100380000E946C0578940E942B0286E490E00E9403
:10039000BA068AE590E00E94E30684EF91E00E94AD
:1003A00011028CE30E944D0182E061E00E94640131
:1003B00084E690E00E9411020E945F0180E590E0D7
:1003C0000E94BA0686E990E00E94E30680E062E0BF
:1003D0000E9464010E945F018AE590E00E94E306AA
:1003E00081E061E00E9464010E945F010E942B0293
:1003F0008CE30E944D0184E690E00E9411020E946D
:100400005F018CE30E944D0188EE93E00E9411028F
:100410000E945F010E947C0587E292E00E9428050D
:10042000FFCF20EA3FE004C0F9013197F1F70197CF
:100430000097D1F7089524E030E004C0F901319726
:10044000F1F701970097D1F7089589B182958F70E0
:100450008095817008954C99FECF8EE190E020EA5E
:100460003FE0F9013197F1F70197D9F74C9BFECFA7
:100470008EE190E020EA3FE0F9013197F1F7019732
:10048000D9F70895A29A0895A29808958230A8F104
:10049000482F42506130710539F16130710528F003
:1004A0006230710509F04EC00FC081B121E030E02B
:1004B00002C0220F331F4A95E2F72095822381B9AB
:1004C00082B1282322B9089531B181E090E002C0C1
:1004D000880F991F4A95E2F7282F2095232321B9E9
:1004E00022B1822B82B9089581B102C0660F771FB5
:1004F0004A95E2F7862B81B90895813091F46130F5
:10050000710569F06130710520F062307105D1F438
:1005100003C027982F98089527982F9A0895279A0F
:1005200008956130710569F06130710520F0623025
:10053000710541F403C024982C98089524982C9AAE
:100540000895249A0895282F80FF02C0249A01C09C
:10055000249821FF02C0279A01C027989695879575
:100560009695879581B90895249905C080FF02C0AA
:100570002C9A01C02C98279905C081FF02C02F9AA0
:1005800001C02F98969587959695879540E050E005
:10059000682F70E0E1E0F0E081B190E0042E02C04D
:1005A000959587950A94E2F780FD1FC0CB01042E34
:1005B00002C0959587950A94E2F780FF0BC022B19F
:1005C000CF01042E02C0880F991F0A94E2F7282B4E
:1005D00022B90BC022B1CF01042E02C0880F991F8F
:1005E0000A94E2F78095822382B94F5F5F4F4830CB
:1005F000510591F608958230B0F040B1282F30E0D7
:100600002250304081E090E0022E02C0880F991FF6
:100610000A94E2F750E08423952302C095958795CC
:100620002A95E2F70895813029F483B1881F88273D
:10063000881F089583B190E08071907044E0959593
:1006400087954A95E1F708956623B9F0823078F0EE
:1006500042B1282F30E02250304081E090E002C0CB
:10066000880F991F2A95E2F7482B42B908958130E7
:1006700011F42F9A08952C9A0895823080F042B197
:10068000282F30E02250304081E090E002C0880FF7
:10069000991F2A95E2F78095842382B908958130C5
:1006A00011F42F9808952C9808959C01369527955C
:1006B0003695279522B945B190E09C0121703070A4
:1006C00074E0220F331F7A95E1F74F76422B827048
:1006D0009070959587959695982F882797958795EB
:1006E000482B45B9089540B183B123B130E0207162
:1006F0003070B4E035952795BA95E1F750E0440F96
:10070000551F440F551F242B352B881F8827881F02
:1007100090E0880F991F282B392BC901089582304A
:1007200068F0282F30E02250304081E090E002C095
:10073000880F991F2A95E2F780B90895813011F446
:1007400080E801C080E183B9089528E088E190E065
:100750000FB6F894A895809360000FBE20936000B8
:10076000FFCF54985C9A9A9A559A8FEF87B90E9456
:1007700084050E949C060E94E4050E940C070E94CA
:100780008A0A0E94A90A0E94620A0895982F990F66
:100790009A7A86958575982B892F880F880F8C7C7F
:1007A000969596959373892B8295F8945E9A88B95D
:1007B00081E090E00E941B025E98789408955F9A11
:1007C0000E94C60382E390E00E941B0208958F708E
:1007D0008A3010F4805D01C0895C0E94DF030895B7
:1007E0000F931F938C01812F82958F700E94E703D6
:1007F000812F0E94E703802F82958F700E94E7036C
:10080000802F0E94E7031F910F9108951F93182FC7
:1008100082958F700E94E703812F0E94E7031F914A
:100820000895CF93DF93EC018A309105D8F1843697
:10083000910558F183E0C83ED807D0F087E2C03177
:10084000D80748F0CE0160E177E20E94700D862F54
:10085000805D0E94DF03CE0160E177E20E94700DAF
:1008600068EE73E00E94700D862F805D0E94DF03AA
:10087000CE0168EE73E00E94700D64E670E00E94A5
:10088000700D862F805D0E94DF03CE0164E670E06C
:100890000E94700D6AE070E00E94700D862F805DEE
:1008A0000E94DF03CE016AE070E00E94700D805D5F
:1008B0000E94DF03DF91CF910895CF93DF93EC0186
:1008C00097FD05C08BE20E94DF03CE0107C08DE2D9
:1008D0000E94DF03882799278C1B9D0B0E9411041F
:1008E000DF91CF9108950F931F938C0160E177E220
:1008F0000E94700D862F805D0E94DF03C80160E1B9
:1009000077E20E94700D68EE73E00E94700D862FF2
:10091000805D0E94DF03C80168EE73E00E94700DE5
:1009200064E670E00E94700D862F805D0E94DF03F8
:10093000C80164E670E00E94700D6AE070E00E94F9
:10094000700D862F805D0E94DF03C8016AE070E0B1
:100950000E94700D805D0E94DF031F910F9108952A
:10096000CF93DF93EC0197FD05C08BE20E94DF037C
:10097000CE0107C08DE20E94DF03882799278C1BD8
:100980009D0B0E947304DF91CF9108951F93182F40
:100990008A3098F0843630F064E60E94640D805D01
:1009A0000E94DF03812F64E60E94640D892F6AE0B4
:1009B0000E94640D805D0E94DF03812F6AE00E9427
:1009C000640D892F805D0E94DF031F9108951F939E
:1009D000182F87FD05C08BE20E94DF03812F05C021
:1009E0008DE20E94DF03812F81950E94C6041F9132
:1009F00008951F93182F64E60E94640D805D0E9485
:100A0000DF03812F64E60E94640D892F6AE00E9453
:100A1000640D805D0E94DF03812F6AE00E94640DF7
:100A2000892F805D0E94DF031F9108951F93182F67
:100A300087FD05C08BE20E94DF03812F05C08DE298
:100A40000E94DF03812F81950E94F9041F91089570
:100A50001F93CF93DF93EC0110E003C01F5F0E9450
:100A6000DF03FE01E10FF11D80818823B9F7DF91DB
:100A7000CF911F910895AAE0B0E0E1E4F5E00C9475
:100A8000900D7E010894E11CF11CA70123E030E0E9
:100A900000E010E00E94FF0BC7010E9428052A9683
:100AA000E6E00C94AC0D5F980E94C60384E690E0EB
:100AB0000E941B020895282F30E086E0220F331F8A
:100AC0008A95E1F7862F61E10E94640D892F822BC0
:100AD00080680E945305089580EC0E945305089594
:100AE00080E80E945305089588E00E945305089508
:100AF0008CE00E945305089581E00E94530584EE26
:100B00009CE00E941B020895569A579A5E988FE0C7
:100B100090E00E94110288E30E94530584E293E171
:100B20000E941B0288E30E94530582E390E00E942A
:100B30001B0288E30E94530588E30E9453050E942C
:100B400074050E947C0586E00E9453050E9478058A
:100B500008958830B0F4E82FF0E0EE0FFF1FDF01BA
:100B6000A35BBD4F88EF91E111969C938E932D91DD
:100B70003C9188E893E1821B930BE35AFD4F9183EC
:100B8000808308958830F8F42CE0629F900111244E
:100B900028543A4FE82FF0E0EE0FFF1FDF01A35B70
:100BA000BD4F4D915C9188E893E1841B950BF894BF
:100BB000DF01A35BBD4F11963C932E93E35AFD4F8B
:100BC000918380837894089520E030E068EF71E1AC
:100BD00048E853E1F901EE0FFF1FDF01A35BBD4FB2
:100BE00011967C936E938D919C91DA01A81BB90BA1
:100BF000E35AFD4FB183A0832F5F3F4F283031056B
:100C000049F78091910082608093910080917100FA
:100C10008860809371007894089588B981E0982F56
:100C20009A95F1F75D9A982F9A95F1F75D988A95C4
:100C3000F1F708951F920F920FB60F920BB60F9215
:100C400011242F933F938F939F93EF93FF93909152
:100C50004902913011F518B8892F8A95F1F75D9AFC
:100C6000892F8A95F1F75D98892F8A95F1F7809100
:100C70009C0090919D00E0914802F0E0EE0FFF1F74
:100C8000E35AFD4F20813181280F391F30939D0099
:100C900020939C001092490242C0809148028F5FCD
:100CA0008093480280914802883011F410924802E3
:100CB000E0914802F0E0EE0FFF1FE35BFD4F808103
:100CC0009181885F9141A9F08091480221E030E054
:100CD00002C0220F331F8A95E2F728B981E0982FCE
:100CE0009A95F1F75D9A982F9A95F1F75D988A9504
:100CF000F1F720919C0030919D00E0914802F0E0D6
:100D0000EE0FFF1FE35BFD4F80819181820F931FE8
:100D100090939D0080939C0081E080934902FF9115
:100D2000EF919F918F913F912F910F900BBE0F905C
:100D30000FBE0F901F901895E0E8F0E081E08083EF
:100D40008BE0809381008DB1806C8DB9259A808174
:100D50008068808310928900109288008DB18C6029
:100D60008DB9269A80818062808310928B001092C8
:100D70008A0008958F3729F4109288006D9A75982B
:100D800008956D98759A282F30E087FF08C08EB1BE
:100D90008F7380688EB9822F880F8F5F0AC08EB1E3
:100DA0008F7380648EB98FE790E0821B930B880F5E
:100DB000991F8093880008958FEF809388008EB1EB
:100DC0008F738EB908958F3729F410928A006C9A28
:100DD000749808956C98749A282F30E087FF08C0A3
:100DE0008EB1837F84608EB9822F880F8F5F0AC097
:100DF0008EB1837F88608EB98FE790E0821B930B62
:100E0000880F991F80938A0008958FEF80938A003E
:100E10008EB1837F8EB9089580E680937C00EAE7E7
:100E2000F0E08081876880830895982F883010F0E3
:100E30008DEB089580E680937C0080917C00892B67
:100E400080937C0080917A00806480937A00809106
:100E50007A0086FDFCCF809179000895982F883024
:100E600018F02DEA3BE01BC080E480937C00809169
:100E70007C00892B80937C0080917A008064809331
:100E80007A0080917A0086FDFCCF30917800209125
:100E90007900922F80E0232F30E0282B392BC901D5
:100EA0000895E9EBF0E080818D7F8083808181600F
:100EB000808382E18093B800089584EA8093BC0027
:100EC0008091BC0087FFFCCF8091B900887F089596
:100ED0008093BB0084E88093BC008091BC0087FFB6
:100EE000FCCF8091B900887F0895982F813011F44C
:100EF00084EC01C084E88093BC008091BC0087FF33
:100F0000FCCF913031F48091B900887F803559F45D
:100F100007C0992329F48091B900887F883519F496
:100F20008091BB00089580E0089584E98093BC001F
:100F30000895982F84EA8093BC008091BC0087FFBD
:100F4000FCCF8091B900887F883011F0803109F59D
:100F50009093BB0084E88093BC008091BC0087FF25
:100F6000FCCF8091B900887F883199F46093BB00F1
:100F700084E88093BC008091BC0087FFFCCF809107
:100F8000B900887F883229F484E98093BC0081E02D
:100F9000089580E00895982F84EA8093BC008091A2
:100FA000BC0087FFFCCF8091B900887F883011F0AA
:100FB000803179F59093BB0084E88093BC008091E8
:100FC000BC0087FFFCCF8091B900887F883109F58C
:100FD0006093BB0084E88093BC008091BC0087FFD5
:100FE000FCCF8091B900887F883299F47093BB0060
:100FF00084E88093BC008091BC0087FFFCCF809187
:10100000B900887F883229F484E98093BC0081E0AC
:10101000089580E00895982F84EA8093BC00809121
:10102000BC0087FFFCCF8091B900887F883011F029
:101030008031B9F49F5F9093BB0084E88093BC003B
:101040008091BC0087FFFCCF8091B900887F8034FD
:1010500041F480E00E947507982F84E98093BC00DA
:1010600001C090E0892F0895982F84EA8093BC00F6
:101070008091BC0087FFFCCF8091B900887F8830C9
:1010800011F0803179F59093BB0084E88093BC0027
:101090008091BC0087FFFCCF8091B900887F8831A8
:1010A00009F56093BB0084E88093BC008091BC008C
:1010B00087FFFCCF8091B900887F883299F44093F4
:1010C000BB0084E88093BC008091BC0087FFFCCF0C
:1010D0008091B900887F883229F484E98093BC002C
:1010E00081E0089580E00895982F84EA8093BC0001
:1010F0008091BC0087FFFCCF8091B900887F883049
:1011000019F0803109F03FC09093BB0084E88093D0
:10111000BC008091BC0087FFFCCF8091B900887F24
:10112000883189F56093BB0084E88093BC0080918E
:10113000BC0087FFFCCF8091B900887F883219F509
:1011400084EA8093BC008091BC0087FFFCCF809133
:10115000B900887F883011F08031A9F49F5F9093A7
:10116000BB0084E88093BC008091BC0087FFFCCF6B
:101170008091B900887F803431F480E00E94750747
:1011800094E99093BC000895982F84EA8093BC0062
:101190008091BC0087FFFCCF8091B900887F8830A8
:1011A00011F08031B9F59093BB0084E88093BC00C6
:1011B0008091BC0087FFFCCF8091B900887F883187
:1011C00049F56093BB0084E88093BC008091BC002B
:1011D00087FFFCCF8091B900887F8832D9F4F9016C
:1011E00090E024E810C080818093BB002093BC0075
:1011F0008091BC0087FFFCCF8091B9003196887F39
:10120000883241F49F5F941770F384E98093BC00A7
:1012100081E0089580E00895CF92DF92FF920F93CE
:101220001F93CF93DF93982F690184EA8093BC00CA
:101230008091BC0087FFFCCF8091B900887F883007
:1012400019F0803109F057C09093BB0084E8809377
:10125000BC008091BC0087FFFCCF8091B900887FE3
:10126000883109F048C06093BB0084E88093BC00DB
:101270008091BC0087FFFCCF8091B900887F8832C5
:10128000D1F584EA8093BC008091BC0087FFFCCF3D
:101290008091B900887F883011F0803161F59F5FBF
:1012A0009093BB0084E88093BC008091BC0087FFD2
:1012B000FCCF8091B900887F8034E9F4FF24C42FEB
:1012C000D0E0219706C081E00E947507F801808375
:1012D000F3948F2D90E08601080F191F8C179D073E
:1012E00094F380E00E947507F801808384E980937D
:1012F000BC0081E001C080E0DF91CF911F910F9190
:10130000FF90DF90CF900895982F84EA8093BC00DF
:101310008091BC0087FFFCCF8091B900887F883026
:1013200019F0803109F045C09093BB0084E88093A8
:10133000BC008091BC0087FFFCCF8091B900887F02
:101340008831B9F57093BB0084E88093BC0080912C
:10135000BC0087FFFCCF8091B900887F883249F5B7
:101360006093BB0084E88093BC008091BC0087FF41
:10137000FCCF8091B900887F8832D9F4F90190E0E0
:1013800024E810C080818093BB002093BC00809132
:10139000BC0087FFFCCF8091B9003196887F8832EE
:1013A00041F49F5F941770F384E98093BC0081E05F
:1013B000089580E00895CF92DF92FF920F931F93DC
:1013C000CF93DF93982F690184EA8093BC008091CA
:1013D000BC0087FFFCCF8091B900887F883019F06E
:1013E000803109F066C09093BB0084E88093BC0014
:1013F0008091BC0087FFFCCF8091B900887F883145
:1014000009F057C07093BB0084E88093BC008091C2
:10141000BC0087FFFCCF8091B900887F883209F03B
:1014200048C06093BB0084E88093BC008091BC00FE
:1014300087FFFCCF8091B900887F8832D1F584EA9C
:101440008093BC008091BC0087FFFCCF8091B900E5
:10145000887F883011F0803161F59F5F9093BB00E9
:1014600084E88093BC008091BC0087FFFCCF809112
:10147000B900887F8034E9F4FF24C42FD0E021979D
:1014800006C081E00E947507F8018083F3948F2DD8
:1014900090E08601080F191F8C179D0794F380E0D8
:1014A0000E947507F801808384E98093BC0081E085
:1014B00001C080E0DF91CF911F910F91FF90DF90ED
:1014C000CF90089580E28093B60085E08093B100CC
:1014D00081E08093700010924C0210924B021092A7
:1014E000B200789408951F920F920FB60F921124B4
:1014F0008F939F9380914B0290914C020196909311
:101500004C0280934B029F918F910F900FBE0F90D2
:101510001F901895F89487E68093C4001092C50038
:101520001092C00086E08093C20088E98093C100D9
:10153000789408958091C00087FFFCCF8091C60009
:101540000895982F8091C00085FFFCCF9093C6002E
:101550000895F89487E68093CC001092CD00109205
:10156000C80086E08093CA0088E98093C900789417
:1015700008958091C80087FFFCCF8091CE00089528
:10158000982F8091C80085FFFCCF9093CE000895DE
:1015900020916E02922F80E020916F0230E0282B84
:1015A000392BC901089580916D0290E0FC013197BB
:1015B000E132F10508F082C0EA59FF4F0C94BB0DEF
:1015C0000E94420285C00E94440282C00E947805A7
:1015D0007FC00E9474057CC00E947C0579C00E9477
:1015E000700576C00E94A50373C00E94DC0670C01F
:1015F0000E9405076DC020916E02922F80E020911D
:101600006F0230E0822B932B0E94110261C0209167
:101610006E02922F80E020916F0230E0822B932B9C
:101620000E941B0255C08EE692E050C020916E02CF
:10163000922F80E020916F0230E0822B932B0E944A
:10164000A90546C020916E0260916F02922F80E042
:1016500070E0682B792B872F90E070E00E94C20524
:1016600037C090916E0280916F0220E0822B90E053
:101670000E94BA062DC090916E0280916F0220E008
:10168000822B90E00E94E30623C020916E026091BD
:101690006F02922F80E070E0682B792B872F90E00B
:1016A00070E00E945B0514C00E942502982F809173
:1016B000C00085FFFCCF9093C6000AC080E090E098
:1016C00060E070E00E945B0587E392E00E942805DD
:1016D00010924A0208951F920F920FB60F920BB606
:1016E0000F9211242F933F934F935F936F937F93A8
:1016F0008F939F93AF93BF93EF93FF939091C60007
:1017000080914A02823118F010924A021BC08091E7
:101710004A02E82FF0E0E359FD4F90838F5F8093FA
:101720004A0280916D02843158F080916D028631B9
:1017300019F4992339F404C080914A02833011F4DA
:101740000E94D30AFF91EF91BF91AF919F918F912A
:101750007F916F915F914F913F912F910F900BBEB1
:101760000F900FBE0F901F9018951F920F920FB6FB
:101770000F920BB60F9211242F933F934F935F93C9
:101780006F937F938F939F93AF93BF93EF93FF9349
:101790009091C60080914A02823118F010924A025C
:1017A0001BC080914A02E82FF0E0E359FD4F90837F
:1017B0008F5F80934A0280916D02843158F080914E
:1017C0006D02863119F4992339F404C080914A02DC
:1017D000833011F40E94D30AFF91EF91BF91AF9132
:1017E0009F918F917F916F915F914F913F912F9139
:1017F0000F900BBE0F900FBE0F901F901895A0E09A
:10180000B0E0E5E0FCE00C948F0D7A01D02E122FB1
:10181000283008F017E0A701212F00E00E94850C76
:10182000682FF7015191252F50FF04C053FD02C0CE
:101830008DE209C0D1FE02C08BE205C0D0FC02C01F
:10184000C70104C080E2D7018C93CF01482F392F04
:1018500023FF03C066E171E004C022FF0BC06EE00D
:1018600071E0D2FE02C06C5F7F4F842F932F0E94E5
:101870005D0D45C0F7012181DC012D93213309F075
:101880005F7E1123A9F0E701842F932FFC01912F94
:101890002EE28A812183915021963196282F992317
:1018A000C1F71150812F90E00196A80FB91F2D9319
:1018B000D2FC02C085E601C085E4962FFD0181932C
:1018C00067FF07C08DE211968C93DF011196919509
:1018D0000AC0662329F454FF03C0DF018DE202C071
:1018E000DF018BE28D9380E302C08F5F9A509A30C4
:1018F000E4F7FD018193905D11969C931182C701DD
:10190000CDB7DEB7E7E00C94AB0D283008F027E048
:101910003327DA01990F311D87FD9160009661052B
:10192000710539F432602E5F3D9330E32A95E1F77B
:1019300008959F3F30F080387105610509F03C5FE4
:101940003C5F3D93913008F08068911DDF93CF9309
:101950001F930F93FF92EF92192F987F9695E92F7F
:1019600096959695E90FFF27E858FE4F992733275C
:10197000EE24FF24A701E70105900894079428F4BA
:10198000360FE71EF81E491F511D660F771F881F6F
:10199000991F0694A1F70590079428F4E70EF81E06
:1019A000491F561FC11D770F881F991F661F069478
:1019B000A1F70590079428F4F80E491F561FC71F7A
:1019C000D11D880F991F661F771F0694A1F70590F8
:1019D000079420F4490F561FC71FD81F990F661F81
:1019E000771F881F0694A9F784911095177041F00E
:1019F000D695C79557954795F794E7941A95C1F7EB
:101A0000EEE1F1E06894159015913591659195910D
:101A100005907FE27395E118F10A430B560BC90B51
:101A2000D009C0F7E10CF11E431F561FC91FD01D7E
:101A30007EF4703311F48A95E6CFE894015030F0CB
:101A4000080F0AF40027021708F4202F2395022F0D
:101A50007A3328F079E37D932A95E9F710C07D93D6
:101A60002A9589F606949795679537951795179453
:101A7000E118F10A430B560BC90BD00998F02395D6
:101A80007E9173957A3308F070E37C932013B8F756
:101A90007E9170617D9330F0839571E37D9370E367
:101AA0002A95E1F71124EF90FF900F911F91CF91AC
:101AB000DF91992787FD90950895FB01DC01059042
:101AC0000D920020E1F70895991B79E004C0991F59
:101AD000961708F0961B881F7A95C9F78095089588
:101AE000AA1BBB1B51E107C0AA1FBB1FA617B70744
:101AF00010F0A61BB70B881F991F5A95A9F7809560
:101B00009095BC01CD0108952F923F924F925F9224
:101B10006F927F928F929F92AF92BF92CF92DF92FD
:101B2000EF92FF920F931F93CF93DF93CDB7DEB762
:101B3000CA1BDB0B0FB6F894DEBF0FBECDBF0994F6
:101B40002A88398848885F846E847D848C849B844D
:101B5000AA84B984C884DF80EE80FD800C811B815B
:101B6000AA81B981CE0FD11D0FB6F894DEBF0FBE8A
:101B7000CDBFED010895EE0FFF1F0590F491E02D0C
:061B80000994F894FFCF68
:101B8600436F756E742020202020206C696E65736B
:101B96000056616C3A002020202054617065426F27
:101BA600742020202020005961792069742046691C
:101BB6006E697368656400434D4420556E726563B3
:081BC6006F676E697A65640027
:00000001FF
