:100000000C940C010C9434010C9434010C943401C4
:100010000C9434010C9434010C9434010C9434018C
:100020000C9434010C94F70A0C9434010C943401B0
:100030000C9434010C9434010C9434010C94320966
:100040000C9434010C9434010C9434010C9434015C
:100050000C9434010C9434010C9434010C9434014C
:100060000C9434010C94770A0C9434010C943401F0
:100070000C9434010C9434010C9434010C9434012C
:100080000C9434010C9434010C9490050C943401BC
:100090000C94310A0C9434010C9434010C94340106
:1000A0000C9434010C9434010C9434010C943401FC
:1000B0000C9434010C9434010C9434010C943401EC
:1000C0000C9434010C9434010C943401A309A60956
:1000D000240A240AA909AC09AF09B2091A0A240A98
:1000E000B509B809BB09240A240A240A240A240AE7
:1000F000240ABE09CB09D8091A0A1A0ADB09240AFC
:10010000240A240A240AE809F909090A010A696E7D
:100110006600494E46006E616E004E414E00004042
:100120007A10F35A00A0724E18090010A5D4E80006
:1001300000E87648170000E40B54020000CA9A3B1E
:10014000000000E1F50500008096980000004042A4
:100150000F000000A0860100000010270000000032
:10016000E803000000006400000000000A00000036
:1001700000000100000000002C76D888DC674F08E2
:1001800023DFC1DFAE59E1B1B796E5E3E453C63AE8
:10019000E651997696E8E6C28426EB898C9B62ED5F
:1001A000407C6FFCEFBC9C9F40F2BAA56FA5F49019
:1001B000055A2AF75C936B6CF9676DC11BFCE0E490
:1001C0000D47FEF520E6B500D0ED902E03009435E6
:1001D00077050080841E080000204E0A000000C839
:1001E0000C333333330F986E12831141EF8D21148A
:1001F000893BE65516CFFEE6DB18D1844B381BF75A
:100200007C1D901DA4BBE424203284725E228100F8
:10021000C9F124ECA1E53D2711241FBECFEFD1E2A7
:10022000DEBFCDBF14BE88E10FB6F89480936000A6
:10023000109260000FBE12E0A0E0B2E0EAECFCE138
:1002400000E00BBF02C007900D92AA37B107D9F7A3
:1002500012E0AAE7B2E001C01D92A13BB107E1F7AD
:100260000E9456010C94640E0C940000F894249A99
:100270002C98EBE6F0E0808180618083808180684B
:100280008083E8E6F0E0808181608083789408953F
:100290006FEF70E080E090E00E944805089563E70A
:1002A00070E080E090E00E9448050895CFEFD1E231
:1002B000DEBFCDBF0E941B03F8940E9436010E944E
:1002C000020580E092E00E94AB040E94F204789460
:1002D0000E9430030E94920C81E090E00E94710C19
:1002E0000E94370C80E090E00E94710C0E94470C45
:1002F00081E090E00E94710C0E94370C0E94020580
:1003000083E192E00E94AB04FFCF9C0106C080EA2B
:100310009FE00197F1F72150304021153105B9F7E1
:1003200008959C0106C084E090E00197F1F7215008
:10033000304021153105B9F7089589B1992724E096
:10034000969587952A95E1F78095909581709070A4
:100350000895A29A0895A29808958230A8F1482F8E
:1003600042506130710539F16130710528F0623019
:10037000710509F04EC00FC081B121E030E002C02C
:10038000220F331F4A95E2F72095822381B982B16B
:10039000282322B9089531B181E090E002C0880F8E
:1003A000991F4A95E2F7282F2095232321B922B1DE
:1003B000822B82B9089581B102C0660F771F4A95DA
:1003C000E2F7862B81B90895813091F4613071058F
:1003D00069F06130710520F062307105D1F403C01D
:1003E00027982F98089527982F9A0895279A089567
:1003F0006130710569F06130710520F0623071057E
:1004000041F403C024982C98089524982C9A0895B8
:10041000249A0895282F332720FF02C0249A01C070
:10042000249821FF02C0279A01C0279896958795A6
:100430009695879581B90895249905C080FF02C0DB
:100440002C9A01C02C98279905C081FF02C02F9AD1
:1004500001C02F98969587959695879540E050E036
:10046000682F772781B19927042E02C0959587952B
:100470000A94E2F780FD21C0CB01042E02C09595BD
:1004800087950A94E2F780FF0CC022B181E090E0EA
:10049000042E02C0880F991F0A94E2F7282B22B974
:1004A0000CC022B181E090E0042E02C0880F991F99
:1004B0000A94E2F78095822382B94F5F5F4F4830FC
:1004C000510581F608958230B0F040B1282F3327CE
:1004D0002250304081E090E0022E02C0880F991F28
:1004E0000A94E2F755278423952302C095958795B2
:1004F0002A95E2F706C0813031F483B1881F88273E
:10050000881F9927089583B199278071907054E0CE
:10051000969587955A95E1F708956623B9F082304C
:1005200078F042B1282F33272250304081E090E00C
:1005300002C0880F991F2A95E2F7482B42B9089507
:10054000813011F42F9A08952C9A0895823080F00A
:1005500042B1282F33272250304081E090E002C082
:10056000880F991F2A95E2F78095842382B9089510
:10057000813011F42F9808952C9808959C01369598
:1005800027953695279522B945B199279C01217069
:100590003070E4E0220F331FEA95E1F74F76422BEB
:1005A00082709070959587959695982F8827979546
:1005B0008795482B45B9089540B123B183B1992758
:1005C0008071907054E0959587955A95E1F755277D
:1005D000440F551F440F551F842B952B3327220F93
:1005E000232F221F330B3195220F331F822B932B86
:1005F0000895823068F0282F33272250304081E060
:1006000090E002C0880F991F2A95E2F780B90895FB
:10061000813011F480E801C080E183B9089588E158
:1006200090E028E00FB6F894A895809360000FBE84
:1006300020936000FFCF54985C9A9A9A559A8FEF56
:1006400087B90E940A050E9407060E946A050E9457
:1006500079060E9449090E9469090E9421090895AA
:100660004C99FECF2EE130E080EA9FE00197F1F750
:1006700021503040C9F74C9BFECF2EE130E080EA9C
:100680009FE00197F1F721503040C9F70895982F66
:10069000990F9A7A86958575982B892F880F880FE0
:1006A0008C7C969596959373892B8295F8945E9A97
:1006B00088B981E090E00E9491015E987894089555
:1006C0005F9A0E94470382E390E00E94910108959F
:1006D0008F708A3010F4805D01C0895C0E946003D5
:1006E00008950F931F938C01892F992782958F70FE
:1006F0000E946803812F99270E946803802F8295AA
:100700008F700E946803802F0E9468031F910F91D1
:1007100008951F93182F82958F700E946803812F70
:100720000E9468031F910895CF93DF93EC018A30F4
:100730009105D8F18436910558F183E0C83ED80779
:10074000D0F087E2C031D80748F0CE0160E177E20F
:100750000E94130ECB01805D0E946003CE0160E118
:1007600077E20E94130E68EE73E00E94130ECB0135
:10077000805D0E946003CE0168EE73E00E94130E5C
:1007800064E670E00E94130ECB01805D0E9460035E
:10079000CE0164E670E00E94130E6AE070E00E94F1
:1007A000130ECB01805D0E946003CE016AE070E011
:1007B0000E94130E805D0E946003DF91CF91089527
:1007C000CF93DF93EC0197FD05C08BE20E9460039D
:1007D000CE0107C08DE20E946003882799278C1BF9
:1007E0009D0B0E949403DF91CF9108950F931F9367
:1007F0008C0160E177E20E94130ECB01805D0E94C4
:100800006003C80160E177E20E94130E68EE73E0B6
:100810000E94130ECB01805D0E946003C80168EE48
:1008200073E00E94130E64E670E00E94130ECB0189
:10083000805D0E946003C80164E670E00E94130EB0
:100840006AE070E00E94130ECB01805D0E9460039D
:10085000C8016AE070E00E94130E805D0E94600390
:100860001F910F910895CF93DF93EC0197FD05C081
:100870008BE20E946003CE0107C08DE20E946003FC
:10088000882799278C1B9D0B0E94F603DF91CF913F
:1008900008951F93182F8A3098F0843630F064E65C
:1008A0000E94070E805D0E946003812F64E60E9413
:1008B000070E892F6AE00E94070E805D0E94600388
:1008C000812F6AE00E94070E892F805D0E946003DD
:1008D0001F9108951F93182F87FD05C08BE20E947A
:1008E0006003812F05C08DE20E946003812F8195F6
:1008F0000E9449041F9108951F93182F64E60E94D7
:10090000070E805D0E946003812F64E60E94070E3F
:10091000892F6AE00E94070E805D0E946003812F8C
:100920006AE00E94070E892F805D0E9460031F917C
:1009300008951F93182F87FD05C08BE20E94600366
:10094000812F05C08DE20E946003812F81950E9456
:100950007C041F9108950F931F93CF93DF938C0115
:10096000C0E0D0E002C00E946003F801EC0FF11D6E
:10097000808121968823B9F7DF91CF911F910F9144
:100980000895AAE0B0E0E7ECF4E00C94330E00E048
:1009900010E023E030E07E010894E11CF11CA70187
:1009A0000E94A20CC7010E94AB04E6E02A960C94B8
:1009B0004F0E5F980E94470384E690E00E949101E9
:1009C0000895282F332746E0220F331F4A95E1F779
:1009D000862F61E10E94070E892F822B80680E947A
:1009E000D904089580EC0E94D904089580E80E94FB
:1009F000D904089588E00E94D90408958CE00E94EB
:100A0000D904089581E00E94D90484EE9CE00E94FC
:100A100091010895569A579A5E988FE090E00E944F
:100A2000850188E30E94D90484E293E10E94910148
:100A300088E30E94D90482E390E00E94910188E358
:100A40000E94D90488E30E94D9040E94FA040E94FB
:100A5000020586E00E94D9040E94FE0408958830B1
:100A6000B0F4E82FFF27EE0FFF1FDF01A158BD4FA5
:100A700088EF91E111969C938E932D913C9188E89B
:100A800093E1821B930BE157FD4F9183808308957F
:100A90008830F8F42CE0629F9001112428543A4FDA
:100AA000E82FFF27EE0FFF1FDF01A158BD4F4D912B
:100AB0005C9188E893E1841B950BF894DF01A158C1
:100AC000BD4F11963C932E93E157FD4F9183808348
:100AD00078940895CF93DF93C0E0D0E08C2F0E94EC
:100AE0002F052196C830D105C9F780919100826009
:100AF0008093910080917100886080937100789458
:100B0000DF91CF91089588B981E0982F9A95F1F7F8
:100B10005D9A982F9A95F1F75D988A95F1F7089567
:100B20001F920F920FB60F9211242F933F934F9362
:100B30005F936F937F938F939F93AF93BF93EF9345
:100B4000FF9380917B028130C9F480E00E9483058D
:100B500080919C0090919D00E0917A02FF27EE0F1A
:100B6000FF1FE157FD4F20813181280F391F30933E
:100B70009D0020939C0010927B0238C080917A02E5
:100B80008F5F80937A0280917A02883011F41092FC
:100B90007A02E0917A02FF27EE0FFF1FE158FD4F26
:100BA00080819181885F914159F020917A0281E0A2
:100BB00090E002C0880F991F2A95E2F70E948305F2
:100BC00020919C0030919D00E0917A02FF27EE0F6A
:100BD000FF1FE158FD4F80819181820F931F9093F9
:100BE0009D0080939C0081E080937B02FF91EF91B8
:100BF000BF91AF919F918F917F916F915F914F9135
:100C00003F912F910F900FBE0F901F901895E0E825
:100C1000F0E081E080838BE0809381008DB1806C77
:100C20008DB9259A80818068808310928900109206
:100C300088008DB18C608DB9269A80818062808316
:100C400010928B0010928A0008958F3729F4109229
:100C500088006D9A759808956D98759A282F332796
:100C600087FF09C08EB18F7380688EB9220F331F42
:100C7000822F8F5F0AC08EB18F7380648EB98FE729
:100C800090E0821B930B880F991F80938800089532
:100C90008FEF809388008EB18F738EB908958F3750
:100CA00029F410928A006C9A749808956C98749A3A
:100CB000282F332787FF09C08EB1837F84608EB9C8
:100CC000220F331F822F8F5F0AC08EB1837F88600F
:100CD0008EB98FE790E0821B930B880F991F80934A
:100CE0008A0008958FEF80938A008EB1837F8EB93A
:100CF000089580E680937C00EAE7F0E080818768D1
:100D000080830895982F883018F08DEB90E0089537
:100D100080E680937C0080917C00892B80937C000E
:100D200080917A00806480937A0080917A0086FDB9
:100D3000FCCF8091790099270895982F883018F07A
:100D40008DEA9BE0089580E480937C0080917C0094
:100D5000892B80937C0080917A00806480937A0054
:100D600080917A0086FDFCCF2091780080917900F7
:100D70009927982F88273327822B932B0895E9EB07
:100D8000F0E080818D7F808380818160808382E13B
:100D90008093B800089584EA8093BC008091BC00E1
:100DA00087FFFCCF8091B9009927887F90700895C4
:100DB0008093BB0084E88093BC008091BC0087FFD7
:100DC000FCCF8091B9009927887F90700895982F63
:100DD000813011F484EC01C084E88093BC008091E0
:100DE000BC0087FFFCCF913031F48091B900887F3F
:100DF000803561F407C0992329F48091B900887F78
:100E0000883521F48091BB009927089580E090E017
:100E1000089584E98093BC0008951F93982F162F9E
:100E200084EA8093BC008091BC0087FFFCCF809156
:100E3000B900887F883011F0803181F4892F0E94B9
:100E4000D806883159F4812F0E94D806883231F4AF
:100E500084E98093BC0081E090E002C080E090E0F3
:100E60001F910895A0E0B0E0E8E3F7E00C94310EA4
:100E7000182FEB01042F690184EA8093BC00809154
:100E8000BC0087FFFCCF8091B900887F883019F0C3
:100E9000803109F046C0812F0E94D806883109F0C0
:100EA00040C08D2F99270E94D8068832D1F58C2F0B
:100EB0000E94D8068832A9F584EA8093BC0080910C
:100EC000BC0087FFFCCF8091B900887F883011F08B
:100ED000803139F5812F8F5F0E94D806803409F563
:100EE000EE24FF24C02FDD27219705C081E00E945A
:100EF000E706F80180838E2D0894E11CF11C9927E8
:100F00008601080F191F8C179D0784F380E00E944B
:100F1000E706F801808384E98093BC0081E090E0DB
:100F200002C080E090E0E8E0CDB7DEB70C944D0E53
:100F3000FF920F931F93CF93DF93982FEB01F42E23
:100F4000890184EA8093BC008091BC0087FFFCCFBC
:100F50008091B900887F883011F0803109F5892FA0
:100F60000E94D8068831E1F48D2F99270E94D80677
:100F70008832B1F48C2F0E94D806883289F4E801B7
:100F800010E006C089910E94D806883249F41F5F9C
:100F90001F15C1F784E98093BC0081E090E002C096
:100FA00080E090E0E5E0CDB7DEB70C94500EA0E015
:100FB000B0E0EDEDF7E00C94300E082F162FB42EB4
:100FC000690184EA8093BC008091BC0087FFFCCF5C
:100FD0008091B900887F883019F0803109F03FC0D6
:100FE000802F0E94D8068831D1F5812F0E94D80623
:100FF0008832A9F584EA8093BC008091BC0087FF09
:10100000FCCF8091B900887F883011F0803139F5AC
:10101000802F8F5F0E94D806803409F5EE24FF24CC
:10102000CB2DDD27219705C081E00E94E706F8015E
:1010300080838E2D0894E11CF11C99278601080FEE
:10104000191F8C179D0784F380E00E94E706F801C2
:10105000808384E98093BC0081E090E002C080E05E
:1010600090E0E9E0CDB7DEB70C944C0E0F931F93E0
:10107000CF93DF93982F162F042FE90184EA8093F2
:10108000BC008091BC0087FFFCCF8091B900887FB5
:10109000883011F08031D1F4892F0E94D806883130
:1010A000A9F4812F0E94D806883281F410E006C08E
:1010B00089910E94D806883249F41F5F1017C1F742
:1010C00084E98093BC0081E090E002C080E090E081
:1010D000DF91CF911F910F9108950F931F93082FC8
:1010E000162F84EA8093BC008091BC0087FFFCCF60
:1010F0008091B900887F883011F0803121F5802FF0
:101100000E94D8068831F9F4812F0E94D8068832CF
:10111000D1F484EA8093BC008091BC0087FFFCCFAF
:101120008091B900887F883011F0803161F4802F80
:101130008F5F0E94D806803431F480E00E94E70679
:1011400094E99093BC0099271F910F9108950F93F4
:101150001F93982F162F042F84EA8093BC00809150
:10116000BC0087FFFCCF8091B900887F883011F0E8
:101170008031A9F4892F0E94D806883181F4812F0B
:101180000E94D806883259F4802F0E94D8068832EF
:1011900031F484E98093BC0081E090E002C080E0FB
:1011A00090E01F910F910895982F84EA8093BC00DE
:1011B0008091BC0087FFFCCF8091B900887F883088
:1011C00011F0803171F4892F8F5F0E94D80680342E
:1011D00041F480E00E94E70694E99093BC009927CF
:1011E000089580E090E00895CF93DF93982FEB016E
:1011F00084EA8093BC008091BC0087FFFCCF809183
:10120000B900887F883011F08031B1F4892F0E94B5
:10121000D806883189F48C2F0E94D806883261F470
:101220008D2F99270E94D806883231F484E9809363
:10123000BC0081E090E002C080E090E0DF91CF91BF
:10124000089580E28093B60085E08093B10081E04C
:101250008093700010927E0210927D021092B20074
:10126000789408951F920F920FB60F9211248F93C6
:101270009F9380917D0290917E02019690937E02D1
:1012800080937D029F918F910F900FBE0F901F90C2
:101290001895F89487E68093C4001092C5001092C8
:1012A000C00086E08093C20088E98093C1007894F2
:1012B00008958091C00087FFFCCF8091C6009927D8
:1012C0000895982F8091C00085FFFCCF9093C600B1
:1012D0000895F89487E68093CC001092CD00109288
:1012E000C80086E08093CA0088E98093C90078949A
:1012F00008958091C80087FFFCCF8091CE00992788
:101300000895982F8091C80085FFFCCF9093CE0060
:1013100008958091A0029927982F88272091A102F3
:101320003327822B932B089580919F029927AA2718
:10133000BB27FC013197E132F10508F085C0EA597D
:10134000FF4F0C945E0E0E94A90188C00E94AB0161
:1013500085C00E94FE0482C00E94FA047FC00E94E1
:1013600002057CC00E94F60479C00E940F0376C07B
:101370000E94480673C00E94720670C08091A0024D
:101380009927982F88272091A1023327822B932B0E
:101390000E94850163C08091A0029927982F882719
:1013A0002091A1023327822B932B0E94910156C0DA
:1013B00080EA92E051C08091A0029927982F882757
:1013C0002091A1023327822B932B0E942F0546C028
:1013D0008091A0022091A1029927982F8827332776
:1013E000822B932B682F7727892F99270E944805F6
:1013F00035C08091A0028091A10299270E94250604
:101400002DC08091A0028091A10299270E944F06D1
:1014100025C08091A0022091A1029927982F8827AA
:101420003327822B932B682F7727892F99270E94A8
:10143000E10414C00E949D019C018091C00085FFC1
:10144000FCCF2093C6000AC060E070E080E090E02E
:101450000E94E10483E292E00E94AB0410927C02BD
:1014600008951F920F920FB60F9211242F933F935E
:101470004F935F936F937F938F939F93AF93BF939C
:10148000EF93FF939091C60080917C02823118F017
:1014900010927C021BC080917C02E82FFF27E1564E
:1014A000FD4F90838F5F80937C0280919F028431F7
:1014B00058F080919F02863119F4992339F404C0C1
:1014C00080917C02833011F40E949409FF91EF9186
:1014D000BF91AF919F918F917F916F915F914F914C
:1014E0003F912F910F900FBE0F901F9018951F9254
:1014F0000F920FB60F9211242F933F934F935F9348
:101500006F937F938F939F93AF93BF93EF93FF93CB
:101510009091C60080917C02823118F010927C027A
:101520001BC080917C02E82FFF27E156FD4F90837E
:101530008F5F80937C0280919F02843158F080916C
:101540009F02863119F4992339F404C080917C02FA
:10155000833011F40E949409FF91EF91BF91AF91F4
:101560009F918F917F916F915F914F913F912F91BB
:101570000F900FBE0F901F9018950F931F93082F79
:10158000112707FD10958FE790E0801B910B0E94BB
:101590002506C80181589F4F0E944F061F910F9149
:1015A00008950F931F93082F112701581F4FC8014B
:1015B0000E942506C8010E944F061F910F910895B1
:1015C0000F931F93992787FD90950FE710E0081B55
:1015D000190BC8010E942506C8010E944F061F91E1
:1015E0000F9108950E9448060E94720608951F9266
:1015F0000F920FB60F9211242F933F934F935F9347
:101600006F937F938F939F93AF93BF93EF93FF93CA
:10161000F8940E94F20A0E9402050E94F60484E3F4
:1016200092E00E94AB040E94F2048AE392E00E94DE
:10163000AB0480EA90E00E94250680EA90E00E94D8
:101640004F068EEE92E00E9485010E94020580E026
:101650000E94E00A7894FF91EF91BF91AF919F9122
:101660008F917F916F915F914F913F912F910F904B
:101670000FBE0F901F901895FF920F931F93CF935B
:10168000DF930E94F60485E492E00E94AB0482E3BB
:101690000E94E00A00E0C6E5D2E080E090E00E940F
:1016A0008206182F81E090E00E948206F82E62E008
:1016B00070E081E090E00E94E104812F99270E9470
:1016C0007C0469E070E081E090E00E94E1048F2DED
:1016D00099270E947C04133860F00E94480662E05B
:1016E00070E081E090E00E94E104CE010E94AB0432
:1016F000016082E88F1560F40E94720669E070E074
:1017000081E090E00E94E104CE010E94AB040260FF
:10171000033018F2E5E0CDB7DEB70C94500EEF922F
:10172000FF920F931F93CF93DF93182FF62E0E94F3
:10173000F6048AE592E00E94AB0466E070E080E087
:1017400090E00E94E1048F2D99270E947C048BE693
:1017500092E00E94F2046BE070E081E090E00E9471
:10176000E10480E090E00E947C0400E0C12FDD27CE
:1017700023C0CE010E948206182F63E070E081E052
:1017800090E00E94E104812F99270E947C04EE20C2
:1017900029F4133888F0EE24E3940EC0163408F4CC
:1017A0000F5F6BE070E081E090E00E94E104802F29
:1017B00099270E947C04EE240F15D9F6E6E0CDB7F8
:1017C000DEB70C944F0EEF92FF920F931F93CF93BF
:1017D000DF93182FF62E0E94F6048AE592E00E940D
:1017E000AB0466E070E080E090E00E94E1048F2DA1
:1017F00099270E947C048BE692E00E94F2046BE041
:1018000070E081E090E00E94E10480E090E00E94BE
:101810007C0400E0C12FDD2723C0CE010E94820698
:10182000182F63E070E081E090E00E94E104812FD6
:1018300099270E947C04EE2081F4133888F00F5F12
:101840006BE070E081E090E00E94E104802F992736
:101850000E947C04EE24E39403C0163408F4EE24C2
:101860000F15D9F6E6E0CDB7DEB70C944F0EF8941D
:1018700088E70E94E00A64E082E00E94E30B78942B
:1018800061E082E00E94E30B0E94F20A08950E9448
:10189000F20A0E9402050E94F60480E792E00E948C
:1018A000AB0486E40E94E00A62E082E00E94E30B5F
:1018B00088E20E94BD0A61E081E00E94E30B80E5BE
:1018C00090E00E94250680E991E00E9485010E9437
:1018D000F20A80E50E94E00A61E082E00E94E30BE8
:1018E00008951F93182F8CE30E94E00A61E082E0C4
:1018F0000E94E30B0E94F20A88E20E94BD0A62E0A5
:1019000080E00E94E30B112339F08CE30E94D10A9E
:1019100088EC90E00E9485010E943C0B0E94F20A34
:101920001F91089586E490E00E94250680E590E0EE
:101930000E944F0661E082E00E94E30B86E40E9471
:10194000E00A0895A0E0B0E0E8EAFCE00C94320E72
:101950007A01D02E122F283008F017E000E0212F56
:10196000A7010E94280DBC01F7010191402F00FF43
:1019700004C003FD02C08DE20BC0D1FE04C08BE2A7
:10198000E701888307C0D0FC02C0970104C080E251
:10199000D7018C939F0143FF03C066E171E004C04F
:1019A00042FF0AC06EE071E0D2FE02C06C5F7F4F62
:1019B000C9010E94000E46C08081E90189938133EC
:1019C00009F00F7E1123B1F0A701D901812F2EE27A
:1019D000FA019281FD01218381504F5F5F4F119683
:1019E000292F8823A9F7FE0131961150E10FF11D2F
:1019F0009193EF01D2FE02C085E401C085E6262F57
:101A0000FE01819367FF06C08DE28983DF01119695
:101A100021950CC0662339F404FF05C08DE289834B
:101A2000DF01119603C08BE28193DF0180E302C0E6
:101A30008F5F2A502A30E4F7FD018193205DED018C
:101A400029831182C701E7E0CDB7DEB70C944E0EB3
:101A5000283008F027E03327DA01990F311D87FD80
:101A6000916000966105710539F432602E5F3D93F7
:101A700030E32A95E1F708959F3F30F080387105F3
:101A8000610509F03C5F3C5F3D93913008F0806850
:101A9000911DDF93CF931F930F93FF92EF92192F16
:101AA000987F9695E92F96959695E90FFF27E85828
:101AB000FE4F99273327EE24FF24A701E701059065
:101AC0000894079428F4360FE71EF81E491F511D8D
:101AD000660F771F881F991F0694A1F7059007943A
:101AE00028F4E70EF81E491F561FC11D770F881FE7
:101AF000991F661F0694A1F70590079428F4F80E25
:101B0000491F561FC71FD11D880F991F661F771FBA
:101B10000694A1F70590079420F4490F561FC71F9C
:101B2000D81F990F661F771F881F0694A9F7849105
:101B30001095177041F0D695C79557954795F7942E
:101B4000E7941A95C1F7EEE1F1E0689415901591CC
:101B500035916591959105907FE27395E118F10AB1
:101B6000430B560BC90BD009C0F7E10CF11E431F04
:101B7000561FC91FD01D7EF4703311F48A95E6CF2D
:101B8000E894015030F0080F0AF40027021708F417
:101B9000202F2395022F7A3328F079E37D932A951D
:101BA000E9F710C07D932A9589F606949795679575
:101BB000379517951794E118F10A430B560BC90B8B
:101BC000D00998F023957E9173957A3308F070E3ED
:101BD0007C932013B8F77E9170617D9330F08395EC
:101BE00071E37D9370E32A95E1F71124EF90FF9064
:101BF0000F911F91CF91DF91992787FD90950895BF
:101C0000FB01DC0105900D920020E1F70895991B7E
:101C100079E004C0991F961708F0961B881F7A95E3
:101C2000C9F780950895AA1BBB1B51E107C0AA1FE5
:101C3000BB1FA617B70710F0A61BB70B881F991F6D
:101C40005A95A9F780959095BC01CD0108952F92E2
:101C50003F924F925F926F927F928F929F92AF923C
:101C6000BF92CF92DF92EF92FF920F931F93CF9389
:101C7000DF93CDB7DEB7CA1BDB0B0FB6F894DEBF20
:101C80000FBECDBF09942A88398848885F846E8446
:101C90007D848C849B84AA84B984C884DF80EE8090
:101CA000FD800C811B81AA81B981CE0FD11D0FB699
:101CB000F894DEBF0FBECDBFED010895EE0FFF1FFC
:0A1CC0000590F491E02D0994FFCF88
:101CCA002020202054617065426F742056312E30D6
:101CDA002020005961792069742046696E69736809
:101CEA00656400434D4420556E7265636F676E6983
:101CFA007A6564004F68204E6F004920616D205359
:101D0A007475636B004C65667420207C2020205219
:101D1A006967687420004F4E2000436F756E742007
:101D2A0020202020206C696E65730056616C3A0091
:0A1D3A005475726E696E6721000097
:00000001FF
