:100000000C940C010C9434010C9434010C943401C4
:100010000C9434010C9434010C9434010C9434018C
:100020000C9434010C9434010C9434010C9434017C
:100030000C9434010C9434010C9434010C94E30AB4
:100040000C9434010C9434010C9434010C9434015C
:100050000C9434010C9434010C9434010C9434014C
:100060000C9434010C94250C0C9434010C94340140
:100070000C9434010C9434010C9434010C9434012C
:100080000C9434010C9434010C9491060C943401BA
:100090000C94DB0B0C9434010C9434010C9434015B
:1000A0000C9434010C9434010C9434010C943401FC
:1000B0000C9434010C9434010C9434010C943401EC
:1000C0000C9434010C9434010C943401500B530BF8
:1000D000CE0BCE0B560B590B5C0B5F0BC40BCE0B30
:1000E000620B650B680BCE0BCE0BCE0BCE0BCE0B83
:1000F000CE0B6B0B770B830BC40BC40B860BCE0B99
:10010000CE0BCE0BCE0B920BA10BB50BAB0B696ECE
:100110006600494E46006E616E004E414E00004042
:100120007A10F35A00A0724E18090010A5D4E80006
:1001300000E87648170000E40B54020000CA9A3B1E
:10014000000000E1F50500008096980000004042A4
:100150000F000000A0860100000010270000000032
:10016000E803000000006400000000000A00000036
:1001700000000100000000002C76D888DC674F08E2
:1001800023DFC1DFAE59E1B1B796E5E3E453C63AE8
:10019000E651997696E8E6C28426EB898C9B62ED5F
:1001A000407C6FFCEFBC9C9F40F2BAA56FA5F49019
:1001B000055A2AF75C936B6CF9676DC11BFCE0E490
:1001C0000D47FEF520E6B500D0ED902E03009435E6
:1001D00077050080841E080000204E0A000000C839
:1001E0000C333333330F986E12831141EF8D21148A
:1001F000893BE65516CFFEE6DB18D1844B381BF75A
:100200007C1D901DA4BBE424203284725E228100F8
:10021000C9F124ECA1E53D2711241FBECFEFD1E2A7
:10022000DEBFCDBF14BE88E10FB6F89480936000A6
:10023000109260000FBE12E0A0E0B2E0E0E1F3E255
:1002400000E00BBF02C007900D92A03BB107D9F7A9
:1002500012E0A0EBB2E001C01D92A83EB107E1F7A9
:100260000E9459020C9486110C940000F894249A70
:100270002C98EBE6F0E0808180618083808180684B
:100280008083E8E6F0E0808181608083789408953F
:10029000BF92CF92DF92EF92FF920F931F930E9433
:1002A000E70580E092E00E949F0581E090E062E037
:1002B00070E00E94D20580E090E00E94700581E02D
:1002C00090E066E070E00E94D20580E090E00E943D
:1002D000700581E090E06CE070E00E94D20580E063
:1002E00090E00E94700510E0DD24EE24FF2481E000
:1002F00090E00E948507082F80E090E00E9485072B
:10030000B82E82E090E00E948507C82E80E090E041
:1003100062E070E00E94D2058C2D90E00E94700592
:1003200080E090E067E070E00E94D205802F90E0CE
:100330000E94700580E090E06CE070E00E94D205C1
:100340008B2D90E00E947005112371F584E68C15C9
:1003500060F4D39481E090E062E070E00E94D20506
:100360008D2D90E00E94700514E0053660F0E39456
:1003700081E090E067E070E00E94D2058E2D90E071
:100380000E947005116084E68B1508F0B0CFF394DD
:1003900081E090E06CE070E00E94D2058F2D90E04B
:1003A0000E9470051260A3CF113019F584E68B15F9
:1003B00060F4F39481E090E069E070E00E94D2057F
:1003C0008F2D90E00E94700513E084E68C1560F498
:1003D000D39481E090E062E070E00E94D2058D2D20
:1003E00090E00E9470051460023308F080CF1E7FF9
:1003F0007ECF123019F5053660F0E39481E090E08D
:1004000063E070E00E94D2058E2D90E00E9470059E
:1004100013E084E68C1560F4D39481E090E062E010
:1004200070E00E94D2058D2D90E00E94700514604E
:1004300081E38B1508F45BCF1D7F59CF1430F1F4A5
:100440000B3A60F0E39481E090E067E070E00E9496
:10045000D2058E2D90E00E94700515E084E68B1584
:10046000A0F4F39481E090E06CE070E00E94D2058B
:100470008F2D90E00E947005126007C0023308F4CF
:100480001E7F81E38B1508F01D7F81E38C1508F436
:100490002ECF1B7F2CCF80E090E06FEF70E00E94AA
:1004A0003906089580E090E063E770E00E94390625
:1004B00008950E942804F89480E090E060E070E0E5
:1004C0000E94BD0281E090E060E070E00E94BD0209
:1004D0000E94F30580E192E00E949F050E94E305DF
:1004E000789480E090E063E770E00E9439060E9413
:1004F000A2020E94F50D0E94890F0E94820E0E94A6
:10050000490F0E94F30583E292E00E949F05FFCF0E
:1005100020EA3FE004C0F9013197F1F70197009715
:10052000D1F7089524E030E004C0F9013197F1F7E4
:1005300001970097D1F7089589B182958F708095C2
:10054000817008954C99FECF8EE190E020EA3FE063
:10055000F9013197F1F70197D9F74C9BFECF8EE166
:1005600090E020EA3FE0F9013197F1F70197D9F7E0
:100570000895A29A0895A29808958230A8F1482F6C
:1005800042506130710539F16130710528F06230F7
:10059000710509F04EC00FC081B121E030E002C00A
:1005A000220F331F4A95E2F72095822381B982B149
:1005B000282322B9089531B181E090E002C0880F6C
:1005C000991F4A95E2F7282F2095232321B922B1BC
:1005D000822B82B9089581B102C0660F771F4A95B8
:1005E000E2F7862B81B90895813091F4613071056D
:1005F00069F06130710520F062307105D1F403C0FB
:1006000027982F98089527982F9A0895279A089544
:100610006130710569F06130710520F0623071055B
:1006200041F403C024982C98089524982C9A089596
:10063000249A0895282F80FF02C0249A01C024988C
:1006400021FF02C0279A01C0279896958795969515
:10065000879581B90895249905C080FF02C02C9A1E
:1006600001C02C98279905C081FF02C02F9A01C0B4
:100670002F98969587959695879540E050E0682F3E
:1006800070E0E1E0F0E081B190E0042E02C09595C9
:1006900087950A94E2F780FD1FC0CB01042E02C0AB
:1006A000959587950A94E2F780FF0BC022B1CF01A0
:1006B000042E02C0880F991F0A94E2F7282B22B952
:1006C0000BC022B1CF01042E02C0880F991F0A94DB
:1006D000E2F78095822382B94F5F5F4F4830510522
:1006E00091F608958230B0F040B1282F30E02250CA
:1006F000304081E090E0022E02C0880F991F0A94DA
:10070000E2F750E08423952302C0959587952A95BA
:10071000E2F70895813029F483B1881F8827881F64
:10072000089583B190E08071907044E0959587952D
:100730004A95E1F708956623B9F0823078F042B126
:10074000282F30E02250304081E090E002C0880F36
:10075000991F2A95E2F7482B42B90895813011F488
:100760002F9A08952C9A0895823080F042B1282F54
:1007700030E02250304081E090E002C0880F991FA5
:100780002A95E2F78095842382B90895813011F487
:100790002F9808952C9808959C01369527953695A5
:1007A000279522B945B190E09C012170307074E02A
:1007B000220F331F7A95E1F74F76422B82709070AB
:1007C000959587959695982F882797958795482B87
:1007D00045B9089540B183B123B130E02071307044
:1007E000B4E035952795BA95E1F750E0440F551FD1
:1007F000440F551F242B352B881F8827881F90E016
:10080000880F991F282B392BC9010895823068F071
:10081000282F30E02250304081E090E002C0880F65
:10082000991F2A95E2F780B90895813011F480E884
:1008300001C080E183B9089528E088E190E00FB617
:10084000F894A895809360000FBE20936000FFCFBE
:1008500054985C9A9A9A559A8FEF87B90E94FB0533
:100860000E940C070E945B060E947C070E94FA0A05
:100870000E94190B0E94D20A0895982F990F9A7A14
:1008800086958575982B892F880F880F8C7C969577
:1008900096959373892B8295F8945E9A88B981E036
:1008A00090E00E9492025E98789408955F9A0E9468
:1008B0003D0482E390E00E94920208958F708A3096
:1008C00010F4805D01C0895C0E94560408950F9366
:1008D0001F938C01812F82958F700E945E04812F5F
:1008E0000E945E04802F82958F700E945E04802F8C
:1008F0000E945E041F910F9108951F93182F8295F7
:100900008F700E945E04812F0E945E041F910895E3
:10091000CF93DF93EC018A309105D8F184369105AD
:1009200058F183E0C83ED807D0F087E2C031D8073D
:1009300048F0CE0160E177E20E94B90F862F805D1A
:100940000E945604CE0160E177E20E94B90F68EE82
:1009500073E00E94B90F862F805D0E945604CE017D
:1009600068EE73E00E94B90F64E670E00E94B90F70
:10097000862F805D0E945604CE0164E670E00E94DE
:10098000B90F6AE070E00E94B90F862F805D0E9467
:100990005604CE016AE070E00E94B90F805D0E94AB
:1009A0005604DF91CF910895CF93DF93EC0197FD2B
:1009B00005C08BE20E945604CE0107C08DE20E9462
:1009C0005604882799278C1B9D0B0E948804DF9171
:1009D000CF9108950F931F938C0160E177E20E94FD
:1009E000B90F862F805D0E945604C80160E177E24E
:1009F0000E94B90F68EE73E00E94B90F862F805DE8
:100A00000E945604C80168EE73E00E94B90F64E6C4
:100A100070E00E94B90F862F805D0E945604C801C5
:100A200064E670E00E94B90F6AE070E00E94B90FBE
:100A3000862F805D0E945604C8016AE070E00E9423
:100A4000B90F805D0E9456041F910F910895CF93B6
:100A5000DF93EC0197FD05C08BE20E945604CE01A6
:100A600007C08DE20E945604882799278C1B9D0B96
:100A70000E94EA04DF91CF9108951F93182F8A30C6
:100A800098F0843630F064E60E94AD0F805D0E94DD
:100A90005604812F64E60E94AD0F892F6AE00E9400
:100AA000AD0F805D0E945604812F6AE00E94AD0F59
:100AB000892F805D0E9456041F9108951F93182F5F
:100AC00087FD05C08BE20E945604812F05C08DE290
:100AD0000E945604812F81950E943D051F91089523
:100AE0001F93182F64E60E94AD0F805D0E9456048C
:100AF000812F64E60E94AD0F892F6AE00E94AD0F3E
:100B0000805D0E945604812F6AE00E94AD0F892FFC
:100B1000805D0E9456041F9108951F93182F87FD32
:100B200005C08BE20E945604812F05C08DE20E9411
:100B30005604812F81950E9470051F9108951F937F
:100B4000CF93DF93EC0110E003C01F5F0E945604B7
:100B5000FE01E10FF11D80818823B9F7DF91CF916C
:100B60001F910895AAE0B0E0E8EBF5E00C94EC0FDB
:100B70007E010894E11CF11CA70123E030E000E0B5
:100B800010E00E941D10C7010E949F052A96E6E012
:100B90000C9408105F980E943D0484E690E00E9447
:100BA00092020895282F30E086E0220F331F8A95A5
:100BB000E1F7862F61E10E94AD0F892F822B8068BB
:100BC0000E94CA05089580EC0E94CA05089580E835
:100BD0000E94CA05089588E00E94CA0508958CE025
:100BE0000E94CA05089581E00E94CA0584EE9CE037
:100BF0000E9492020895569A579A5E988FE090E06C
:100C00000E94880288E30E94CA0584E293E10E9460
:100C1000920288E30E94CA0582E390E00E94920259
:100C200088E30E94CA0588E30E94CA050E94EB057A
:100C30000E94F30586E00E94CA050E94EF05089510
:100C40008830B0F4E82FF0E0EE0FFF1FDF01AB5467
:100C5000BD4F88EF91E111969C938E932D913C911D
:100C600088E893E1821B930BEB53FD4F91838083C4
:100C700008958830F8F42CE0629F900111242854E4
:100C80003A4FE82FF0E0EE0FFF1FDF01AB54BD4FEE
:100C90004D915C9188E893E1841B950BF894DF01FA
:100CA000AB54BD4F11963C932E93EB53FD4F918364
:100CB00080837894089520E030E068EF71E148E89F
:100CC00053E1F901EE0FFF1FDF01AB54BD4F119649
:100CD0007C936E938D919C91DA01A81BB90BEB5319
:100CE000FD4FB183A0832F5F3F4F2830310549F777
:100CF0008091910082608093910080917100886062
:100D0000809371007894089588B981E0982F9A951E
:100D1000F1F75D9A982F9A95F1F75D988A95F1F71A
:100D200008951F920F920FB60F920BB60F921124D7
:100D30002F933F934F935F936F937F938F939F93E3
:100D4000AF93BF93EF93FF938091B1028130C9F4C9
:100D500080E00E94840680919C0090919D00E0912B
:100D6000B002F0E0EE0FFF1FEB53FD4F2081318109
:100D7000280F391F30939D0020939C001092B102E0
:100D800038C08091B0028F5F8093B0028091B00232
:100D9000883011F41092B002E091B002F0E0EE0F52
:100DA000FF1FEB54FD4F80819181885F914159F085
:100DB0002091B00281E090E002C0880F991F2A952F
:100DC000E2F70E94840620919C0030919D00E09102
:100DD000B002F0E0EE0FFF1FEB54FD4F80819181D8
:100DE000820F931F90939D0080939C0081E08093DD
:100DF000B102FF91EF91BF91AF919F918F917F9140
:100E00006F915F914F913F912F910F900BBE0F907B
:100E10000FBE0F901F901895E0E8F0E081E080830E
:100E20008BE0809381008DB1806C8DB9259A808193
:100E30008068808310928900109288008DB18C6048
:100E40008DB9269A80818062808310928B001092E7
:100E50008A0008958F3729F4109288006D9A75984A
:100E600008956D98759A282F30E087FF08C08EB1DD
:100E70008F7380688EB9822F880F8F5F0AC08EB102
:100E80008F7380648EB98FE790E0821B930B880F7D
:100E9000991F8093880008958FEF809388008EB10A
:100EA0008F738EB908958F3729F410928A006C9A47
:100EB000749808956C98749A282F30E087FF08C0C2
:100EC0008EB1837F84608EB9822F880F8F5F0AC0B6
:100ED0008EB1837F88608EB98FE790E0821B930B81
:100EE000880F991F80938A0008958FEF80938A005E
:100EF0008EB1837F8EB9089580E680937C00EAE707
:100F0000F0E08081876880830895982F883010F002
:100F10008DEB089580E680937C0080917C00892B86
:100F200080937C0080917A00806480937A00809125
:100F30007A0086FDFCCF809179000895982F883043
:100F400018F02DEA3BE01BC080E480937C00809188
:100F50007C00892B80937C0080917A008064809350
:100F60007A0080917A0086FDFCCF30917800209144
:100F70007900922F80E0232F30E0282B392BC901F4
:100F80000895E9EBF0E080818D7F8083808181602E
:100F9000808382E18093B800089584EA8093BC0046
:100FA0008091BC0087FFFCCF8091B900887F0895B5
:100FB0008093BB0084E88093BC008091BC0087FFD5
:100FC000FCCF8091B900887F0895982F813011F46B
:100FD00084EC01C084E88093BC008091BC0087FF52
:100FE000FCCF913031F48091B900887F803559F47D
:100FF00007C0992329F48091B900887F883519F4B6
:101000008091BB00089580E0089584E98093BC003E
:101010000895982F84EA8093BC008091BC0087FFDC
:10102000FCCF8091B900887F883011F0803109F5BC
:101030009093BB0084E88093BC008091BC0087FF44
:10104000FCCF8091B900887F883199F46093BB0010
:1010500084E88093BC008091BC0087FFFCCF809126
:10106000B900887F883229F484E98093BC0081E04C
:10107000089580E00895982F84EA8093BC008091C1
:10108000BC0087FFFCCF8091B900887F883011F0C9
:10109000803179F59093BB0084E88093BC00809107
:1010A000BC0087FFFCCF8091B900887F883109F5AB
:1010B0006093BB0084E88093BC008091BC0087FFF4
:1010C000FCCF8091B900887F883299F47093BB007F
:1010D00084E88093BC008091BC0087FFFCCF8091A6
:1010E000B900887F883229F484E98093BC0081E0CC
:1010F000089580E00895982F84EA8093BC00809141
:10110000BC0087FFFCCF8091B900887F883011F048
:101110008031B9F49F5F9093BB0084E88093BC005A
:101120008091BC0087FFFCCF8091B900887F80341C
:1011300041F480E00E94E507982F84E98093BC0089
:1011400001C090E0892F0895982F84EA8093BC0015
:101150008091BC0087FFFCCF8091B900887F8830E8
:1011600011F0803179F59093BB0084E88093BC0046
:101170008091BC0087FFFCCF8091B900887F8831C7
:1011800009F56093BB0084E88093BC008091BC00AB
:1011900087FFFCCF8091B900887F883299F4409313
:1011A000BB0084E88093BC008091BC0087FFFCCF2B
:1011B0008091B900887F883229F484E98093BC004B
:1011C00081E0089580E00895982F84EA8093BC0020
:1011D0008091BC0087FFFCCF8091B900887F883068
:1011E00019F0803109F03FC09093BB0084E88093F0
:1011F000BC008091BC0087FFFCCF8091B900887F44
:10120000883189F56093BB0084E88093BC008091AD
:10121000BC0087FFFCCF8091B900887F883219F528
:1012200084EA8093BC008091BC0087FFFCCF809152
:10123000B900887F883011F08031A9F49F5F9093C6
:10124000BB0084E88093BC008091BC0087FFFCCF8A
:101250008091B900887F803431F480E00E94E507F6
:1012600094E99093BC000895982F84EA8093BC0081
:101270008091BC0087FFFCCF8091B900887F8830C7
:1012800011F08031B9F59093BB0084E88093BC00E5
:101290008091BC0087FFFCCF8091B900887F8831A6
:1012A00049F56093BB0084E88093BC008091BC004A
:1012B00087FFFCCF8091B900887F8832D9F4F9018B
:1012C00090E024E810C080818093BB002093BC0094
:1012D0008091BC0087FFFCCF8091B9003196887F58
:1012E000883241F49F5F941770F384E98093BC00C7
:1012F00081E0089580E00895CF92DF92FF920F93EE
:101300001F93CF93DF93982F690184EA8093BC00E9
:101310008091BC0087FFFCCF8091B900887F883026
:1013200019F0803109F057C09093BB0084E8809396
:10133000BC008091BC0087FFFCCF8091B900887F02
:10134000883109F048C06093BB0084E88093BC00FA
:101350008091BC0087FFFCCF8091B900887F8832E4
:10136000D1F584EA8093BC008091BC0087FFFCCF5C
:101370008091B900887F883011F0803161F59F5FDE
:101380009093BB0084E88093BC008091BC0087FFF1
:10139000FCCF8091B900887F8034E9F4FF24C42F0A
:1013A000D0E0219706C081E00E94E507F801808324
:1013B000F3948F2D90E08601080F191F8C179D075D
:1013C00094F380E00E94E507F801808384E980932C
:1013D000BC0081E001C080E0DF91CF911F910F91AF
:1013E000FF90DF90CF900895982F84EA8093BC00FF
:1013F0008091BC0087FFFCCF8091B900887F883046
:1014000019F0803109F045C09093BB0084E88093C7
:10141000BC008091BC0087FFFCCF8091B900887F21
:101420008831B9F57093BB0084E88093BC0080914B
:10143000BC0087FFFCCF8091B900887F883249F5D6
:101440006093BB0084E88093BC008091BC0087FF60
:10145000FCCF8091B900887F8832D9F4F90190E0FF
:1014600024E810C080818093BB002093BC00809151
:10147000BC0087FFFCCF8091B9003196887F88320D
:1014800041F49F5F941770F384E98093BC0081E07E
:10149000089580E00895CF92DF92FF920F931F93FB
:1014A000CF93DF93982F690184EA8093BC008091E9
:1014B000BC0087FFFCCF8091B900887F883019F08D
:1014C000803109F066C09093BB0084E88093BC0033
:1014D0008091BC0087FFFCCF8091B900887F883164
:1014E00009F057C07093BB0084E88093BC008091E2
:1014F000BC0087FFFCCF8091B900887F883209F05B
:1015000048C06093BB0084E88093BC008091BC001D
:1015100087FFFCCF8091B900887F8832D1F584EABB
:101520008093BC008091BC0087FFFCCF8091B90004
:10153000887F883011F0803161F59F5F9093BB0008
:1015400084E88093BC008091BC0087FFFCCF809131
:10155000B900887F8034E9F4FF24C42FD0E02197BC
:1015600006C081E00E94E507F8018083F3948F2D87
:1015700090E08601080F191F8C179D0794F380E0F7
:101580000E94E507F801808384E98093BC0081E034
:1015900001C080E0DF91CF911F910F91FF90DF900C
:1015A000CF90089580E28093B60085E08093B100EB
:1015B00081E0809370001092B4021092B3021092F6
:1015C000B200789408951F920F920FB60F921124D3
:1015D0008F939F938091B3029091B4020196909360
:1015E000B4028093B3029F918F910F900FBE0F9022
:1015F0001F901895F89487E68093C4001092C50058
:101600001092C00086E08093C20088E98093C100F8
:10161000789408958091C00087FFFCCF8091C60028
:101620000895982F8091C00085FFFCCF9093C6004D
:101630000895F89487E68093CC001092CD00109224
:10164000C80086E08093CA0088E98093C900789436
:1016500008958091C80087FFFCCF8091CE00089547
:10166000982F8091C80085FFFCCF9093CE000895FD
:101670002091D602922F80E02091D70230E0282BD3
:10168000392BC90108958091D50290E0FC01319772
:10169000E132F10508F082C0EA59FF4F0C941710AF
:1016A0000E94B90285C00E94BB0282C00E94EF0561
:1016B0007FC00E94EB057CC00E94F30579C00E94A8
:1016C000E70576C00E941C0473C00E944C0770C0DE
:1016D0000E9475076DC02091D602922F80E0209164
:1016E000D70230E0822B932B0E94880261C02091A8
:1016F000D602922F80E02091D70230E0822B932BEC
:101700000E94920255C086ED92E050C02091D60210
:10171000922F80E02091D70230E0822B932B0E9401
:10172000200646C02091D6026091D702922F80E019
:1017300070E0682B792B872F90E070E00E943906CB
:1017400037C09091D6028091D70220E0822B90E0A2
:101750000E942A072DC09091D6028091D70220E0E6
:10176000822B90E00E94530723C02091D602609103
:10177000D702922F80E070E0682B792B872F90E0C2
:1017800070E00E94D20514C00E949C02982F8091A4
:10179000C00085FFFCCF9093C6000AC080E090E0B7
:1017A00060E070E00E94D20581E392E00E949F0514
:1017B0001092B20208951F920F920FB60F920BB6BD
:1017C0000F9211242F933F934F935F936F937F93C7
:1017D0008F939F93AF93BF93EF93FF939091C60026
:1017E0008091B202823118F01092B2021BC0809137
:1017F000B202E82FF0E0EB52FD4F90838F5F8093B1
:10180000B2028091D502843158F08091D5028631A0
:1018100019F4992339F404C08091B202833011F491
:101820000E94430BFF91EF91BF91AF919F918F91D8
:101830007F916F915F914F913F912F910F900BBED0
:101840000F900FBE0F901F9018951F920F920FB61A
:101850000F920BB60F9211242F933F934F935F93E8
:101860006F937F938F939F93AF93BF93EF93FF9368
:101870009091C6008091B202823118F01092B202AB
:101880001BC08091B202E82FF0E0EB52FD4F908335
:101890008F5F8093B2028091D502843158F080919D
:1018A000D502863119F4992339F404C08091B2022B
:1018B000833011F40E94430BFF91EF91BF91AF91E0
:1018C0009F918F917F916F915F914F913F912F9158
:1018D0000F900BBE0F900FBE0F901F901895EF92B8
:1018E000FF920F931F93E82EF62E10E00EC08E2D60
:1018F00090E00E948507002329F4853630F01F5FB1
:1019000001E003C0863408F400E01F1581F71F9141
:101910000F91FF90EF900895EF92FF920F931F9316
:10192000E82E00E023C080E090E00E948507182F99
:1019300081E090E00E948507F82E153650F0EE20E9
:1019400019F00E944C0704C08FE790E00E942A071C
:10195000016084E68F1550F4EE2019F00E9475079F
:1019600004C08FE790E00E94530702600330D8F272
:101970001F910F91FF90EF9008951F9383E090E0E7
:101980000E948507182F86E490E00E942A0784E6CB
:1019900090E00E94530780E991E00E94880280EA6B
:1019A00090E00E94530705C083E090E00E94850705
:1019B000182F1531C8F780E090E00E94770F1F9133
:1019C000089584EB90E00E942A0781E990E00E944C
:1019D000530788EC90E00E94880280E062E00E9459
:1019E0006F0C8CE390E00E94680F8CE291E00E9403
:1019F00088028CE390E00E94770F81E00E948C0CBB
:101A000082E390E00E94680F88EC90E00E948802D8
:101A100082E390E00E94770F81E00E948C0C0E948C
:101A2000890F08951F93182FF89486E490E00E9480
:101A3000770F82E390E00E94530784E690E00E94D3
:101A4000880281E0612F0E946F0C82E390E00E9487
:101A5000880281E00E948C0C82E390E00E94680F73
:101A600088EC90E00E94880282E390E00E94770F69
:101A700081E00E948C0C78940E94890F1F91089538
:101A800086E490E00E94770F88EC90E00E94880244
:101A900082E390E00E94770F81E00E948C0C82E349
:101AA00090E00E94680F88EC90E00E94880282E338
:101AB00090E00E94770F81E00E948C0C0E94890FB9
:101AC0008CE390E00E94680F88EC90E00E9488020E
:101AD00080EA90E00E942A0788EC90E00E94530779
:101AE00080E061E00E946F0C81E00E948C0C82E338
:101AF00090E00E94680F88EC90E00E94880286E4E3
:101B000090E00E94770F81E00E948C0C0E94890F68
:101B100088EC90E00E94880208951F93182FF89493
:101B200088E790E00E948E0F87E090E00E942A07ED
:101B300085E090E00E94530782E0612F0E946F0CC5
:101B400078940E94890F153039F482E390E00E9466
:101B5000770F81E00E948C0C1F9108950F931F93C3
:101B60008CE390E00E942A078CE390E00E945307E8
:101B700082E090E00E948507082F83E090E00E94B9
:101B80008507182F0E94F3051D3250F4063418F40F
:101B90008DE290E0EBCF053638F386E490E0E6CFB7
:101BA0000E94890F1F910F9108950E94F30582E40E
:101BB00092E00E949F050E94400D0E94F3058AE476
:101BC00092E00E949F0582E00E94120D0E94F305A0
:101BD00085E592E00E949F050E94400D0E94F3055A
:101BE00080E692E00E949F05089581E08093E702DD
:101BF0000E94F30581E090E060E070E00E949F05A4
:101C000086E490E00E942A078BE490E00E9453074C
:101C100080E061E00E946F0C86E490E00E94770F04
:101C200008950E94F3050E94E70589E692E00E946C
:101C30009F0586E490E00E94770F82E062E00E94B8
:101C40006F0C88E290E00E94540F80E061E00E94F7
:101C50006F0C0E94890F84EB90E00E94530782E092
:101C600061E00E946F0C8CE390E00E94770F8CE2A1
:101C700091E00E9488020E94890F08951F93182FF7
:101C800082E390E00E94770F82E061E00E946F0C97
:101C9000812F90E00E9488020E94890F88E290E0E4
:101CA0000E94540F80E062E00E946F0C8CE390E091
:101CB0000E94680F8EE591E00E94880288E290E021
:101CC0000E94770F81E00E948C0C0E94890F88E2AD
:101CD00090E00E94540F84E690E00E94880282E324
:101CE00090E00E94680F8CE291E00E94880288E2F6
:101CF00090E00E94770F81E00E948C0C0E94890F77
:101D00001F9108950F931F930E94F30582E792E0BD
:101D10000E949F0586E90E943E0E0E94F30580E81E
:101D200092E00E949F0585E00E948D0D0E94F305C0
:101D30000DE812E0C8010E949F0580E00E943E0E5F
:101D40000E94F30582E492E00E949F050E94110E1A
:101D50000E94F305C8010E949F0586E90E943E0E7D
:101D60000E94F30583E992E00E949F0585E00E94AE
:101D70008D0D0E94F30588E992E00E949F0584E69C
:101D80000E943E0E1F910F9108951F93F8948CE3CB
:101D900090E00E94770F80E090E00E947203892B10
:101DA00031F481E090E00E947203892BA1F380E07E
:101DB00090E00E947203892B19F00E94750708C0F9
:101DC00081E090E00E947203892B11F00E944C0781
:101DD00084EF91E00E94880282E390E00E94680F05
:101DE00010E08AE090E00E94880280E090E00E948B
:101DF000850785369105BCF082E390E00E94770F5D
:101E000080E090E00E947203892B31F481E090E041
:101E10000E947203892BA1F30E94F30585EA92E0E8
:101E20000E949F0519E61F5F1436D8F21636B0F0EF
:101E30000E944B0288EE93E00E94880282E390E0C9
:101E40000E94680F84E690E00E94880281E490E09E
:101E50000E94770F88EE93E00E9488020E94890F0B
:101E600080ED97E00E9488020E94520280E991E092
:101E70000E94880282ED90E00E942A0788EC90E0A0
:101E80000E94530784EF91E00E94880278941F918A
:101E900008950E94AE0D0E94C50E0E94BD0C0E94C6
:101EA000AE0D0E94BD0CF5CF0F931F93082F112785
:101EB00007FD10958FE790E0801B910B0E942A0789
:101EC000C80181589F4F0E9453071F910F91089599
:101ED0000F931F93082F10E001581F4FC8010E9455
:101EE0002A07C8010E9453071F910F9108950F936D
:101EF0001F93992787FD90950FE710E0081B190B9A
:101F0000C8010E942A07C8010E9453071F910F9120
:101F100008950E944C070E9475070895FF920F9341
:101F20001F93F82E63E10E94AD0F082F11E00FC040
:101F30001F9DC0011124602F70E00E94CD0F862FDD
:101F40000E94770F83E190E00E9488021F5F0117D3
:101F500078F71F910F91FF900895991B79E004C0C5
:101F6000991F961708F0961B881F7A95C9F78095D8
:101F70000895AA1BBB1B51E107C0AA1FBB1FA617D0
:101F8000B70710F0A61BB70B881F991F5A95A9F722
:101F900080959095BC01CD01089597FB092E0726E9
:101FA0000AD077FD04D0E5DF06D000201AF4709542
:101FB00061957F4F0895F6F7909581959F4F08950D
:101FC0002F923F924F925F926F927F928F929F9249
:101FD000AF92BF92CF92DF92EF92FF920F931F9337
:101FE000CF93DF93CDB7DEB7CA1BDB0B0FB6F894E8
:101FF000DEBF0FBECDBF09942A88398848885F8428
:102000006E847D848C849B84AA84B984C884DF8098
:10201000EE80FD800C811B81AA81B981CE0FD11D7C
:102020000FB6F894DEBF0FBECDBFED010895EE0FE1
:10203000FF1F0590F491E02D0994DF92EF92FF923B
:102040000F931F93CF93DF937A01D02E122F283056
:1020500008F017E0A701212F00E00E94A710682FC9
:10206000F7015191252F50FF04C053FD02C08DE2AE
:1020700009C0D1FE02C08BE205C0D0FC02C0C7017E
:1020800004C080E2D7018C93CF01482F392F23FF62
:1020900003C066E171E004C022FF0BC06EE071E096
:1020A000D2FE02C06C5F7F4F842F932F0E947F115E
:1020B00045C0F7012181DC012D93213309F05F7EBA
:1020C0001123A9F0E701842F932FFC01912F2EE219
:1020D0008A812183915021963196282F9923C1F727
:1020E0001150812F90E00196A80FB91F2D93D2FCBB
:1020F00002C085E601C085E4962FFD01819367FF4C
:1021000007C08DE211968C93DF01119691950AC05C
:10211000662329F454FF03C0DF018DE202C0DF0112
:102120008BE28D9380E302C08F5F9A509A30E4F780
:10213000FD018193905D11969C931182C701DF91FF
:10214000CF911F910F91FF90EF90DF90089528306D
:1021500008F027E03327DA01990F311D87FD9160E0
:1021600000966105710539F432602E5F3D9330E3CE
:102170002A95E1F708959F3F30F080387105610599
:1021800009F03C5F3C5F3D93913008F08068911D01
:10219000DF93CF931F930F93FF92EF92192F987FA6
:1021A0009695E92F96959695E90FFF27E858FE4FEB
:1021B00099273327EE24FF24A701E701059008940F
:1021C000079428F4360FE71EF81E491F511D660FAD
:1021D000771F881F991F0694A1F70590079428F48C
:1021E000E70EF81E491F561FC11D770F881F991F44
:1021F000661F0694A1F70590079428F4F80E491F6E
:10220000561FC71FD11D880F991F661F771F069481
:10221000A1F70590079420F4490F561FC71FD81F38
:10222000990F661F771F881F0694A9F78491109550
:10223000177041F0D695C79557954795F794E79451
:102240001A95C1F7EEE1F1E068941590159135917A
:102250006591959105907FE27395E118F10A430B22
:10226000560BC90BD009C0F7E10CF11E431F561FD6
:10227000C91FD01D7EF4703311F48A95E6CFE8941F
:10228000015030F0080F0AF40027021708F4202F3D
:102290002395022F7A3328F079E37D932A95E9F785
:1022A00010C07D932A9589F6069497956795379582
:1022B00017951794E118F10A430B560BC90BD00977
:1022C00098F023957E9173957A3308F070E37C93B0
:1022D0002013B8F77E9170617D9330F0839571E3A0
:1022E0007D9370E32A95E1F71124EF90FF900F9111
:1022F0001F91CF91DF91992787FD90950895FB015C
:10230000DC0105900D920020E1F70895F894FFCFCD
:10231000463A202020523A2020204C3A202020000B
:102320002020202054617065426F742056312E3079
:1023300020200054617065426F742057696E7321CC
:1023400000434D4420556E7265636F676E697A6510
:10235000640052434F524E455200506C6F772049F3
:102360006E6E6572005475726E20496E6E657200F5
:10237000436F6E74696E7565005475726E696E6731
:1023800021005354415254202D20525455524E0096
:10239000525455524E202D20504C4F5700525455F8
:1023A000524E00504C4F5700504C4F57202D20524A
:1023B0005455524E00464F554E44204C494E450010
:00000001FF
