:100000000C940B010C9433010C9433010C943301C8
:100010000C9433010C9433010C9433010C94330190
:100020000C9433010C9433010C9433010C94330180
:100030000C9433010C9433010C9433010C94CA08D2
:100040000C9433010C9433010C9433010C94330160
:100050000C9433010C9433010C9433010C94330150
:100060000C9433010C94F8090C9433010C94330173
:100070000C9433010C9433010C9433010C94330130
:100080000C9433010C9433010C945D050C943301F2
:100090000C94B2090C9433010C9433010C94330189
:1000A0000C9433010C9433010C9433010C94330100
:1000B0000C9433010C9433010C9433010C943301F0
:1000C0000C9433010C9433010C9433013B093E0929
:1000D000A509A5094109440947094A099B09A50938
:1000E0004D095009A509A509A509A509A509A5094D
:1000F000A509530960096D099B099B097009A509A8
:10010000A509A509A5097D0982098A09696E660004
:10011000494E46006E616E004E414E0000407A101E
:10012000F35A00A0724E18090010A5D4E80000E8A8
:100130007648170000E40B54020000CA9A3B000006
:1001400000E1F505000080969800000040420F0095
:100150000000A08601000000102700000000E80356
:10016000000000006400000000000A000000000021
:100170000100000000002C76D888DC674F0823DFE0
:10018000C1DFAE59E1B1B796E5E3E453C63AE651B3
:10019000997696E8E6C28426EB898C9B62ED407CDA
:1001A0006FFCEFBC9C9F40F2BAA56FA5F490055A76
:1001B0002AF75C936B6CF9676DC11BFCE0E40D479B
:1001C000FEF520E6B500D0ED902E030094357705BE
:1001D0000080841E080000204E0A000000C80C3376
:1001E0003333330F986E12831141EF8D2114893B05
:1001F000E65516CFFEE6DB18D1844B381BF77C1D85
:10020000901DA4BBE424203284725E228100C9F1D7
:1002100024ECA1E53D2711241FBECFEFD1E2DEBFC4
:10022000CDBF14BE88E10FB6F894809360001092A1
:1002300060000FBE12E0A0E0B2E0E2E0F8E100E012
:100240000BBF02C007900D92A035B107D9F712E09D
:10025000A0E5B2E001C01D92AB36B107E1F70E9404
:1002600035010C94000C0C940000CFEFD1E2DEBFFE
:10027000CDBF0E94FD020E94E40480E092E00E9453
:100280008D040E94D40481E192E00E948D0488EEE6
:1002900093E00E946701CAE0D0E001E212E00E9410
:1002A000E404C8010E948D04CE010E942B0488EE54
:1002B00093E00E94670121978FEFCF3FD80779F72E
:1002C0000E94E4048CE292E00E948D04FFCF9C0126
:1002D00006C080EA9FE00197F1F7215030402115D8
:1002E0003105B9F708959C0106C084E090E00197BC
:1002F000F1F72150304021153105B9F7089589B142
:10030000992724E0969587952A95E1F78095909511
:10031000817090700895A29A0895A29808958230ED
:10032000A8F1482F42506130710539F161307105F3
:1003300028F06230710509F04EC00FC081B121E094
:1003400030E002C0220F331F4A95E2F72095822346
:1003500081B982B1282322B9089531B181E090E0BA
:1003600002C0880F991F4A95E2F7282F2095232372
:1003700021B922B1822B82B9089581B102C0660FE2
:10038000771F4A95E2F7862B81B90895813091F461
:100390006130710569F06130710520F062307105DE
:1003A000D1F403C027982F98089527982F9A08957D
:1003B000279A08956130710569F06130710520F068
:1003C0006230710541F403C024982C980895249854
:1003D0002C9A0895249A0895282F332720FF02C0CD
:1003E000249A01C0249821FF02C0279A01C02798AF
:1003F000969587959695879581B90895249905C016
:1004000080FF02C02C9A01C02C98279905C081FF5B
:1004100002C02F9A01C02F9896958795969587953B
:1004200040E050E0682F772781B19927042E02C061
:10043000959587950A94E2F780FD21C0CB01042EA3
:1004400002C0959587950A94E2F780FF0CC022B10F
:1004500081E090E0042E02C0880F991F0A94E2F711
:10046000282B22B90CC022B181E090E0042E02C0FA
:10047000880F991F0A94E2F78095822382B94F5F13
:100480005F4F4830510581F608958230B0F040B199
:10049000282F33272250304081E090E0022E02C006
:1004A000880F991F0A94E2F755278423952302C0E9
:1004B000959587952A95E2F706C0813031F483B18E
:1004C000881F8827881F9927089583B199278071ED
:1004D000907054E0969587955A95E1F708956623B4
:1004E000B9F0823078F042B1282F332722503040C3
:1004F00081E090E002C0880F991F2A95E2F7482B0F
:1005000042B90895813011F42F9A08952C9A0895D4
:10051000823080F042B1282F33272250304081E0D2
:1005200090E002C0880F991F2A95E2F780958423F6
:1005300082B90895813011F42F9808952C98089568
:100540009C01369527953695279522B945B199276F
:100550009C0121703070E4E0220F331FEA95E1F72F
:100560004F76422B82709070959587959695982F2F
:10057000882797958795482B45B9089540B123B1B1
:1005800083B199278071907054E0959587955A951D
:10059000E1F75527440F551F440F551F842B952B0A
:1005A0003327220F232F221F330B3195220F331FA6
:1005B000822B932B0895823068F0282F3327225006
:1005C000304081E090E002C0880F991F2A95E2F741
:1005D00080B90895813011F480E801C080E183B9C9
:1005E000089588E190E028E00FB6F894A8958093EC
:1005F00060000FBE20936000FFCF54985C9A9A9AD7
:10060000559A8FEF87B90E94EC040E94D4050E948E
:1006100041050E9411060E94E1080E9401090E9402
:10062000B90808954C99FECF2EE130E080EA9FE0B2
:100630000197F1F721503040C9F74C9BFECF2EE1D6
:1006400030E080EA9FE00197F1F721503040C9F790
:100650000895982F990F9A7A86958575982B892FEA
:10066000880F880F8C7C969596959373892B82952D
:10067000F8945E9A88B981E090E00E9473015E98D8
:10068000789408955F9A0E94290382E390E00E9483
:10069000730108958F708A3010F4805D01C0895C09
:1006A0000E94420308950F931F938C01892F99276D
:1006B00082958F700E944A03812F99270E944A03D6
:1006C000802F82958F700E944A03802F0E944A03D8
:1006D0001F910F9108951F93182F82958F700E947C
:1006E0004A03812F0E944A031F910895CF93DF93FD
:1006F000EC018A309105D8F18436910558F183E0F8
:10070000C83ED807D0F087E2C031D80748F0CE0104
:1007100060E177E20E94AF0BCB01805D0E94420353
:10072000CE0160E177E20E94AF0B68EE73E00E94B9
:10073000AF0BCB01805D0E944203CE0168EE73E0F7
:100740000E94AF0B64E670E00E94AF0BCB01805DAE
:100750000E944203CE0164E670E00E94AF0B6AE0A3
:1007600070E00E94AF0BCB01805D0E944203CE017E
:100770006AE070E00E94AF0B805D0E944203DF914F
:10078000CF910895CF93DF93EC0197FD05C08BE2E5
:100790000E944203CE0107C08DE20E9442038827D7
:1007A00099278C1B9D0B0E947603DF91CF910895B2
:1007B0000F931F938C0160E177E20E94AF0BCB0196
:1007C000805D0E944203C80160E177E20E94AF0BA6
:1007D00068EE73E00E94AF0BCB01805D0E94420384
:1007E000C80168EE73E00E94AF0B64E670E00E94FF
:1007F000AF0BCB01805D0E944203C80164E670E04C
:100800000E94AF0B6AE070E00E94AF0BCB01805DED
:100810000E944203C8016AE070E00E94AF0B805D55
:100820000E9442031F910F910895CF93DF93EC0133
:1008300097FD05C08BE20E944203CE0107C08DE206
:100840000E944203882799278C1B9D0B0E94D80386
:10085000DF91CF9108951F93182F8A3098F0843636
:1008600030F064E60E94A30B805D0E944203812F5A
:1008700064E60E94A30B892F6AE00E94A30B805DAF
:100880000E944203812F6AE00E94A30B892F805DA2
:100890000E9442031F9108951F93182F87FD05C0E2
:1008A0008BE20E944203812F05C08DE20E94420329
:1008B000812F81950E942B041F9108951F93182F5B
:1008C00064E60E94A30B805D0E944203812F64E6D0
:1008D0000E94A30B892F6AE00E94A30B805D0E94F7
:1008E0004203812F6AE00E94A30B892F805D0E9442
:1008F00042031F9108951F93182F87FD05C08BE2B7
:100900000E944203812F05C08DE20E944203812F85
:1009100081950E945E041F9108950F931F93CF93BA
:10092000DF938C01C0E0D0E002C00E944203F801D6
:10093000EC0FF11D808121968823B9F7DF91CF91CB
:100940001F910F910895AAE0B0E0E9EAF4E00C9459
:10095000CF0B00E010E023E030E07E010894E11CC2
:10096000F11CA7010E943E0AC7010E948D04E6E027
:100970002A960C94EB0B5F980E94290384E690E082
:100980000E9473010895282F332746E0220F331F5A
:100990004A95E1F7862F61E10E94A30B892F822BF4
:1009A00080680E94BB04089580EC0E94BB040895F7
:1009B00080E80E94BB04089588E00E94BB0408956B
:1009C0008CE00E94BB04089581E00E94BB0484EE89
:1009D0009CE00E9473010895569A579A5E988FE0A2
:1009E00090E00E94670188E30E94BB0484E293E1E7
:1009F0000E94730188E30E94BB0482E390E00E949E
:100A0000730188E30E94BB0488E30E94BB040E9438
:100A1000DC040E94E40486E00E94BB040E94E0041F
:100A20000895882391F488EF91E190935602809382
:100A30005502209155023091560280E49CE9821BB8
:100A4000930B909358028093570208958823C1F422
:100A50008CE0689FC001112488549A4F4091550240
:100A60005091560220E43CE9241B350BF8949093F6
:100A7000560280935502309358022093570278947F
:100A8000089580E00E941105E1E9F0E08081826034
:100A90008083E1E7F0E08081886080837894089526
:100AA00088B981E0982F9A95F1F75D9A982F9A95D9
:100AB000F1F75D988A95F1F708951F920F920FB69E
:100AC0000F9211242F933F934F935F936F937F93D4
:100AD0008F939F93AF93BF93EF93FF9380915102B6
:100AE0008130C9F480E00E94500580919C00909173
:100AF0009D00E0915002FF27EE0FFF1FE95AFD4FC6
:100B000020813181280F391F30939D0020939C0054
:100B10001092510238C0809150028F5F8093500232
:100B200080915002813011F410925002E0915002F5
:100B3000FF27EE0FFF1FEB5AFD4F80819181885FE9
:100B4000914159F02091500281E090E002C0880F5D
:100B5000991F2A95E2F70E94500520919C00309140
:100B60009D00E0915002FF27EE0FFF1FEB5AFD4F53
:100B700080819181820F931F90939D0080939C00B0
:100B800081E080935102FF91EF91BF91AF919F91CE
:100B90008F917F916F915F914F913F912F910F9026
:100BA0000FBE0F901F901895E0E8F0E081E0808381
:100BB0008BE0809381008DB1806C8DB9259A808106
:100BC00080688083109289001092880008958F3782
:100BD00029F4109288006D9A759808956D98759A09
:100BE000282F332787FF09C08EB18F7380688EB995
:100BF000220F331F822F8F5F0AC08EB18F738064E4
:100C00008EB98FE790E0821B930B880F991F80931A
:100C1000880008958FEF809388008EB18F738EB90E
:100C2000089580E680937C00EAE7F0E080818768A1
:100C300080830895982F883018F08DEB90E0089508
:100C400080E680937C0080917C00892B80937C00DF
:100C500080917A00806480937A0080917A0086FD8A
:100C6000FCCF8091790099270895982F883018F04B
:100C70008DEA9BE0089580E480937C0080917C0065
:100C8000892B80937C0080917A00806480937A0025
:100C900080917A0086FDFCCF2091780080917900C8
:100CA0009927982F88273327822B932B0895E9EBD8
:100CB000F0E080818D7F808380818160808382E10C
:100CC0008093B800089584EA8093BC008091BC00B2
:100CD00087FFFCCF8091B9009927887F9070089595
:100CE0008093BB0084E88093BC008091BC0087FFA8
:100CF000FCCF8091B9009927887F90700895982F34
:100D0000813011F484EC01C084E88093BC008091B0
:100D1000BC0087FFFCCF913031F48091B900887F0F
:100D2000803561F407C0992329F48091B900887F48
:100D3000883521F48091BB009927089580E090E0E8
:100D4000089584E98093BC0008951F93982F162F6F
:100D500084EA8093BC008091BC0087FFFCCF809127
:100D6000B900887F883011F0803181F4892F0E948A
:100D70007006883159F4812F0E947006883231F450
:100D800084E98093BC0081E090E002C080E090E0C4
:100D90001F910895A0E0B0E0E0EDF6E00C94CD0BDB
:100DA000182FEB01042F690184EA8093BC00809125
:100DB000BC0087FFFCCF8091B900887F883019F094
:100DC000803109F046C0812F0E947006883109F0F9
:100DD00040C08D2F99270E9470068832D1F58C2F44
:100DE0000E9470068832A9F584EA8093BC00809145
:100DF000BC0087FFFCCF8091B900887F883011F05C
:100E0000803139F5812F8F5F0E947006803409F59B
:100E1000EE24FF24C02FDD27219705C081E00E942A
:100E20007F06F80180838E2D0894E11CF11C992720
:100E30008601080F191F8C179D0784F380E00E941C
:100E40007F06F801808384E98093BC0081E090E014
:100E500002C080E090E0E8E0CDB7DEB70C94E90B8B
:100E6000FF920F931F93CF93DF93982FEB01F42EF4
:100E7000890184EA8093BC008091BC0087FFFCCF8D
:100E80008091B900887F883011F0803109F5892F71
:100E90000E9470068831E1F48D2F99270E94700618
:100EA0008832B1F48C2F0E947006883289F4E801F0
:100EB00010E006C089910E947006883249F41F5FD5
:100EC0001F15C1F784E98093BC0081E090E002C067
:100ED00080E090E0E5E0CDB7DEB70C94EC0BA0E04D
:100EE000B0E0E5E7F7E00C94CC0B082F162FB42EFA
:100EF000690184EA8093BC008091BC0087FFFCCF2D
:100F00008091B900887F883019F0803109F03FC0A6
:100F1000802F0E9470068831D1F5812F0E947006C3
:100F20008832A9F584EA8093BC008091BC0087FFD9
:100F3000FCCF8091B900887F883011F0803139F57D
:100F4000802F8F5F0E947006803409F5EE24FF2405
:100F5000CB2DDD27219705C081E00E947F06F80197
:100F600080838E2D0894E11CF11C99278601080FBF
:100F7000191F8C179D0784F380E00E947F06F801FB
:100F8000808384E98093BC0081E090E002C080E02F
:100F900090E0E9E0CDB7DEB70C94E80B0F931F9318
:100FA000CF93DF93982F162F042FE90184EA8093C3
:100FB000BC008091BC0087FFFCCF8091B900887F86
:100FC000883011F08031D1F4892F0E947006883169
:100FD000A9F4812F0E947006883281F410E006C0C7
:100FE00089910E947006883249F41F5F1017C1F77B
:100FF00084E98093BC0081E090E002C080E090E052
:10100000DF91CF911F910F9108950F931F93082F98
:10101000162F84EA8093BC008091BC0087FFFCCF30
:101020008091B900887F883011F0803121F5802FC0
:101030000E9470068831F9F4812F0E947006883270
:10104000D1F484EA8093BC008091BC0087FFFCCF80
:101050008091B900887F883011F0803161F4802F51
:101060008F5F0E947006803431F480E00E947F061A
:1010700094E99093BC0099271F910F9108950F93C5
:101080001F93982F162F042F84EA8093BC00809121
:10109000BC0087FFFCCF8091B900887F883011F0B9
:1010A0008031A9F4892F0E947006883181F4812F44
:1010B0000E947006883259F4802F0E947006883290
:1010C00031F484E98093BC0081E090E002C080E0CC
:1010D00090E01F910F910895982F84EA8093BC00AF
:1010E0008091BC0087FFFCCF8091B900887F883059
:1010F00011F0803171F4892F8F5F0E947006803467
:1011000041F480E00E947F0694E99093BC00992707
:10111000089580E090E00895CF93DF93982FEB013E
:1011200084EA8093BC008091BC0087FFFCCF809153
:10113000B900887F883011F08031B1F4892F0E9486
:101140007006883189F48C2F0E947006883261F411
:101150008D2F99270E947006883231F484E980939C
:10116000BC0081E090E002C080E090E0DF91CF9190
:10117000089580E28093B60085E08093B10081E01D
:101180008093700010925402109253021092B20099
:10119000789408951F920F920FB60F9211248F9397
:1011A0009F93809153029091540201969093540220
:1011B000809353029F918F910F900FBE0F901F90BD
:1011C0001895F89487E68093C4001092C500109299
:1011D000C00086E08093C20088E98093C1007894C3
:1011E00008958091C00087FFFCCF8091C6009927A9
:1011F0000895982F8091C00085FFFCCF9093C60082
:101200000895F89487E68093CC001092CD00109258
:10121000C80086E08093CA0088E98093C90078946A
:1012200008958091C80087FFFCCF8091CE00992758
:101230000895982F8091C80085FFFCCF9093CE0031
:10124000089580915A029927982F882720915B0250
:101250003327822B932B0895809159029927AA272F
:10126000BB27FC013197E032F10508F06EC0EA5966
:10127000FF4F0C94FA0B0E948B0171C00E948D01EC
:101280006EC00E94E0046BC00E94DC0468C00E9433
:10129000E40465C00E94D80462C00E94F1025FC0ED
:1012A0000E940A065CC080915A029927982F8827CD
:1012B00020915B023327822B932B0E9467014FC042
:1012C00080915A029927982F882720915B02332713
:1012D000822B932B0E94730142C08AE592E03DC0AD
:1012E00080915A029927982F882720915B023327F3
:1012F000822B932B0E94110532C080915A0280915B
:101300005B022DC080915A0280915B0299270E9456
:10131000E70525C080915A0220915B029927982FFA
:1013200088273327822B932B682F7727892F99279C
:101330000E94C30414C00E947F019C018091C000E0
:1013400085FFFCCF2093C6000AC060E070E080E01B
:1013500090E00E94C3048EE392E00E948D041092FC
:10136000520208951F920F920FB60F9211242F93DD
:101370003F934F935F936F937F938F939F93AF931D
:10138000BF93EF93FF939091C600809152028231F8
:1013900018F0109252021BC080915202E82FFF27D2
:1013A000E75AFD4F90838F5F8093520280915902DC
:1013B000843158F080915902863119F4992339F417
:1013C00004C080915202833011F40E942C09FF91D5
:1013D000EF91BF91AF919F918F917F916F915F91AD
:1013E0004F913F912F910F900FBE0F901F90189526
:1013F0001F920F920FB60F9211242F933F934F938A
:101400005F936F937F938F939F93AF93BF93EF936C
:10141000FF939091C60080915202823118F0109291
:1014200052021BC080915202E82FFF27E75AFD4F5E
:1014300090838F5F8093520280915902843158F0DB
:1014400080915902863119F4992339F404C08091AE
:101450005202833011F40E942C09FF91EF91BF9149
:10146000AF919F918F917F916F915F914F913F913C
:101470002F910F900FBE0F901F901895A0E0B0E035
:10148000E4E4FAE00C94CE0B7A01D02E122F28302F
:1014900008F017E000E0212FA7010E94C40ABC0158
:1014A000F7010191402F00FF04C003FD02C08DE24F
:1014B0000BC0D1FE04C08BE2E701888307C0D0FCDB
:1014C00002C0970104C080E2D7018C939F0143FFC3
:1014D00003C064E171E004C042FF0AC06CE071E047
:1014E000D2FE02C06C5F7F4FC9010E949C0B46C0B8
:1014F0008081E9018993813309F00F7E1123B1F0D6
:10150000A701D901812F2EE2FA019281FD012183E9
:1015100081504F5F5F4F1196292F8823A9F7FE0155
:1015200031961150E10FF11D9193EF01D2FE02C0EF
:1015300085E401C085E6262FFE01819367FF06C082
:101540008DE28983DF01119621950CC0662339F461
:1015500004FF05C08DE28983DF01119603C08BE291
:101560008193DF0180E302C08F5F2A502A30E4F7C5
:10157000FD018193205DED0129831182C701E7E020
:10158000CDB7DEB70C94EA0B283008F027E03327FC
:10159000DA01990F311D87FD916000966105710593
:1015A00039F432602E5F3D9330E32A95E1F70895D8
:1015B0009F3F30F080387105610509F03C5F3C5F6A
:1015C0003D93913008F08068911DDF93CF931F9376
:1015D0000F93FF92EF92192F987F9695E92F96958A
:1015E0009695E90FFF27EA58FE4F99273327EE24F7
:1015F000FF24A701E70105900894079428F4360F0B
:10160000E71EF81E491F511D660F771F881F991F7F
:101610000694A1F70590079428F4E70EF81E491FD9
:10162000561FC11D770F881F991F661F0694A1F7CB
:101630000590079428F4F80E491F561FC71FD11DA7
:10164000880F991F661F771F0694A1F705900794CE
:1016500020F4490F561FC71FD81F990F661F771F09
:10166000881F0694A9F784911095177041F0D695BC
:10167000C79557954795F794E7941A95C1F7ECE10C
:10168000F1E06894159015913591659195910590CB
:101690007FE27395E118F10A430B560BC90BD00991
:1016A000C0F7E10CF11E431F561FC91FD01D7EF469
:1016B000703311F48A95E6CFE894015030F0080FAA
:1016C0000AF40027021708F4202F2395022F7A33FB
:1016D00028F079E37D932A95E9F710C07D932A9548
:1016E00089F6069497956795379517951794E1189D
:1016F000F10A430B560BC90BD00998F023957E9144
:1017000073957A3308F070E37C932013B8F77E91D9
:1017100070617D9330F0839571E37D9370E32A953A
:10172000E1F71124EF90FF900F911F91CF91DF917E
:10173000992787FD90950895FB01DC0105900D9296
:101740000020E1F70895991B79E004C0991F9617CE
:1017500008F0961B881F7A95C9F780950895AA1BF3
:10176000BB1B51E107C0AA1FBB1FA617B70710F08C
:10177000A61BB70B881F991F5A95A9F780959095BE
:10178000BC01CD0108952F923F924F925F926F92CC
:101790007F928F929F92AF92BF92CF92DF92EF9201
:1017A000FF920F931F93CF93DF93CDB7DEB7CA1B82
:1017B000DB0B0FB6F894DEBF0FBECDBF09942A88AD
:1017C000398848885F846E847D848C849B84AA8455
:1017D000B984C884DF80EE80FD800C811B81AA81E2
:1017E000B981CE0FD11D0FB6F894DEBF0FBECDBFAD
:1017F000ED010895EE0FFF1F0590F491E02D09947F
:02180000FFCF18
:10180200202020586970686F7320312E30202020EC
:101812000020526F626F4164646963742E636F6D5E
:101822000054206D696E7573203A20005F5F285363
:1018320070686572652D626F74295F5F5F00434D4A
:101842004420556E7265636F676E697A6564000045
:00000001FF
