:100000000C940C010C9434010C9434010C943401C4
:100010000C9434010C9434010C9434010C9434018C
:100020000C9434010C9434010C9434010C9434017C
:100030000C9434010C9434010C9434010C94C709D1
:100040000C9434010C9434010C9434010C9434015C
:100050000C9434010C9434010C9434010C9434014C
:100060000C9434010C94090B0C9434010C9434015D
:100070000C9434010C9434010C9434010C9434012C
:100080000C9434010C9434010C946E050C943401DE
:100090000C94BF0A0C9434010C9434010C94340178
:1000A0000C9434010C9434010C9434010C943401FC
:1000B0000C9434010C9434010C9434010C943401EC
:1000C0000C9434010C9434010C943401340A370A32
:1000D000B20AB20A3A0A3D0A400A430AA80AB20A18
:1000E000460A490A4C0AB20AB20AB20AB20AB20A6B
:1000F000B20A4F0A5B0A670AA80AA80A6A0AB20A81
:10010000B20AB20AB20A760A850A990A8F0A696E99
:100110006600494E46006E616E004E414E00004042
:100120007A10F35A00A0724E18090010A5D4E80006
:1001300000E87648170000E40B54020000CA9A3B1E
:10014000000000E1F50500008096980000004042A4
:100150000F000000A0860100000010270000000032
:10016000E803000000006400000000000A00000036
:1001700000000100000000002C76D888DC674F08E2
:1001800023DFC1DFAE59E1B1B796E5E3E453C63AE8
:10019000E651997696E8E6C28426EB898C9B62ED5F
:1001A000407C6FFCEFBC9C9F40F2BAA56FA5F49019
:1001B000055A2AF75C936B6CF9676DC11BFCE0E490
:1001C0000D47FEF520E6B500D0ED902E03009435E6
:1001D00077050080841E080000204E0A000000C839
:1001E0000C333333330F986E12831141EF8D21148A
:1001F000893BE65516CFFEE6DB18D1844B381BF75A
:100200007C1D901DA4BBE424203284725E228100F8
:10021000C9F124ECA1E53D2711241FBECFEFD1E2A7
:10022000DEBFCDBF14BE88E10FB6F89480936000A6
:10023000109260000FBE12E0A0E0B2E0EEE2FAE140
:1002400000E00BBF02C007900D92A035B107D9F7AF
:1002500012E0A0E5B2E001C01D92A738B107E1F7B6
:100260000E9436010C94150D0C940000CF93DF937F
:100270000E9405030E94D00480E092E00E947C046A
:100280000E94C00481E192E00E947C0488EE93E029
:100290000E946501CAE0D0E00E94D00481E292E0B1
:1002A0000E947C04CE010E941A0488EE93E00E9412
:1002B000650121978FEFCF3FD80771F70E94D004D7
:1002C0008CE292E00E947C04FFCF20EA3FE004C071
:1002D000F9013197F1F701970097D1F7089524E0DC
:1002E00030E004C0F9013197F1F701970097D1F799
:1002F000089589B182958F708095817008954C9989
:10030000FECF8EE190E020EA3FE0F9013197F1F76E
:100310000197D9F74C9BFECF8EE190E020EA3FE0B9
:10032000F9013197F1F70197D9F70895A29A089545
:10033000A29808958230A8F1482F4250613071058B
:1003400039F16130710528F06230710509F04EC055
:100350000FC081B121E030E002C0220F331F4A9567
:10036000E2F72095822381B982B1282322B908952A
:1003700031B181E090E002C0880F991F4A95E2F701
:10038000282F2095232321B922B1822B82B90895E9
:1003900081B102C0660F771F4A95E2F7862B81B9BB
:1003A0000895813091F46130710569F06130710513
:1003B00020F062307105D1F403C027982F9808957A
:1003C00027982F9A0895279A08956130710569F04A
:1003D0006130710520F06230710541F403C024984A
:1003E0002C98089524982C9A0895249A0895282FDB
:1003F00080FF02C0249A01C0249821FF02C0279ADE
:1004000001C02798969587959695879581B9089507
:10041000249905C080FF02C02C9A01C02C9827990E
:1004200005C081FF02C02F9A01C02F98969587952D
:100430009695879540E050E0682F70E0E1E0F0E0AD
:1004400081B190E0042E02C0959587950A94E2F759
:1004500080FD1FC0CB01042E02C0959587950A949C
:10046000E2F780FF0BC022B1CF01042E02C0880F3B
:10047000991F0A94E2F7282B22B90BC022B1CF01B1
:10048000042E02C0880F991F0A94E2F780958223F8
:1004900082B94F5F5F4F4830510591F60895823021
:1004A000B0F040B1282F30E02250304081E090E0A1
:1004B000022E02C0880F991F0A94E2F750E08423AD
:1004C000952302C0959587952A95E2F70895813086
:1004D00029F483B1881F8827881F089583B190E08D
:1004E0008071907044E0959587954A95E1F708955D
:1004F0006623B9F0823078F042B1282F30E02250E4
:10050000304081E090E002C0880F991F2A95E2F701
:10051000482B42B90895813011F42F9A08952C9AEE
:100520000895823080F042B1282F30E022503040D0
:1005300081E090E002C0880F991F2A95E2F780952C
:10054000842382B90895813011F42F9808952C984E
:1005500008959C01369527953695279522B945B182
:1005600090E09C012170307074E0220F331F7A9567
:10057000E1F74F76422B827090709595879596950E
:10058000982F882797958795482B45B9089540B1AE
:1005900083B123B130E020713070B4E035952795F8
:1005A000BA95E1F750E0440F551F440F551F242B17
:1005B000352B881F8827881F90E0880F991F282BCC
:1005C000392BC9010895823068F0282F30E022507D
:1005D000304081E090E002C0880F991F2A95E2F731
:1005E00080B90895813011F480E801C080E183B9B9
:1005F000089528E088E190E00FB6F894A8958093DC
:1006000060000FBE20936000FFCF54985C9A9A9AC6
:10061000559A8FEF87B90E94D8040E94F0050E9476
:1006200038050E9460060E94DE090E94FD090E94B2
:10063000B6090895982F990F9A7A86958575982B03
:10064000892F880F880F8C7C969596959373892BAC
:100650008295F8945E9A88B981E090E00E946F01DB
:100660005E98789408955F9A0E941A0382E390E05E
:100670000E946F0108958F708A3010F4805D01C070
:10068000895C0E94330308950F931F938C01812F7F
:1006900082958F700E943B03812F0E943B03802F25
:1006A00082958F700E943B03802F0E943B031F9115
:1006B0000F9108951F93182F82958F700E943B030E
:1006C000812F0E943B031F910895CF93DF93EC018C
:1006D0008A309105D8F18436910558F183E0C83EFF
:1006E000D807D0F087E2C031D80748F0CE0160E1EA
:1006F00077E20E94C40C862F805D0E943303CE01F6
:1007000060E177E20E94C40C68EE73E00E94C40CC2
:10071000862F805D0E943303CE0168EE73E00E9455
:10072000C40C64E670E00E94C40C862F805D0E94B9
:100730003303CE0164E670E00E94C40C6AE070E00E
:100740000E94C40C862F805D0E943303CE016AE0B4
:1007500070E00E94C40C805D0E943303DF91CF9152
:100760000895CF93DF93EC0197FD05C08BE20E94C3
:100770003303CE0107C08DE20E94330388279927F7
:100780008C1B9D0B0E946503DF91CF9108950F9301
:100790001F938C0160E177E20E94C40C862F805D7C
:1007A0000E943303C80160E177E20E94C40C68EE46
:1007B00073E00E94C40C862F805D0E943303C80141
:1007C00068EE73E00E94C40C64E670E00E94C40C02
:1007D000862F805D0E943303C80164E670E00E94AA
:1007E000C40C6AE070E00E94C40C862F805D0E94F9
:1007F0003303C8016AE070E00E94C40C805D0E946F
:1008000033031F910F910895CF93DF93EC0197FD70
:1008100005C08BE20E943303CE0107C08DE20E9427
:100820003303882799278C1B9D0B0E94C703DF91F8
:10083000CF9108951F93182F8A3098F0843630F0A6
:1008400064E60E94B80C805D0E943303812F64E649
:100850000E94B80C892F6AE00E94B80C805D0E944B
:100860003303812F6AE00E94B80C892F805D0E94BB
:1008700033031F9108951F93182F87FD05C08BE246
:100880000E943303812F05C08DE20E943303812F24
:1008900081950E941A041F9108951F93182F64E6F2
:1008A0000E94B80C805D0E943303812F64E60E9491
:1008B000B80C892F6AE00E94B80C805D0E94330357
:1008C000812F6AE00E94B80C892F805D0E9433035B
:1008D0001F9108951F93182F87FD05C08BE20E947A
:1008E0003303812F05C08DE20E943303812F819550
:1008F0000E944D041F9108951F93CF93DF93EC0145
:1009000010E003C01F5F0E943303FE01E10FF11DE1
:1009100080818823B9F7DF91CF911F910895AAE0D4
:10092000B0E0E5E9F4E00C94E40C7E010894E11CED
:10093000F11CA70123E030E000E010E00E94530B1F
:10094000C7010E947C042A96E6E00C94000D5F9893
:100950000E941A0384E690E00E946F010895282FF8
:1009600030E086E0220F331F8A95E1F7862F61E1A0
:100970000E94B80C892F822B80680E94A7040895DA
:1009800080EC0E94A704089580E80E94A7040895BF
:1009900088E00E94A70408958CE00E94A7040895AF
:1009A00081E00E94A70484EE9CE00E946F010895FC
:1009B000569A579A5E988FE090E00E94650188E30E
:1009C0000E94A70484E293E10E946F0188E30E94E1
:1009D000A70482E390E00E946F0188E30E94A704CD
:1009E00088E30E94A7040E94C8040E94D00486E005
:1009F0000E94A7040E94CC0408958830B0F4E82F28
:100A0000F0E0EE0FFF1FDF01AB5ABD4F88EF91E121
:100A100011969C938E932D913C9188E893E1821BD3
:100A2000930BEB59FD4F9183808308958830F8F440
:100A30002CE0629F9001112428543A4FE82FF0E0F7
:100A4000EE0FFF1FDF01AB5ABD4F4D915C9188E85F
:100A500093E1841B950BF894DF01AB5ABD4F1196BF
:100A60003C932E93EB59FD4F9183808378940895A6
:100A700020E030E068EF71E148E853E1F901EE0F62
:100A8000FF1FDF01AB5ABD4F11967C936E938D9182
:100A90009C91DA01A81BB90BEB59FD4FB183A083E0
:100AA0002F5F3F4F2830310549F7809191008260D8
:100AB0008093910080917100886080937100789498
:100AC000089588B981E0982F9A95F1F75D9A982F4B
:100AD0009A95F1F75D988A95F1F708951F920F9214
:100AE0000FB60F920BB60F9211242F933F938F9353
:100AF0009F93EF93FF9390915102913011F518B8A5
:100B0000892F8A95F1F75D9A892F8A95F1F75D987B
:100B1000892F8A95F1F780919C0090919D00E0913A
:100B20005002F0E0EE0FFF1FEB59FD4F20813181A5
:100B3000280F391F30939D0020939C001092510282
:100B400042C0809150028F5F80935002809150028A
:100B5000883011F410925002E0915002F0E0EE0F54
:100B6000FF1FEB5AFD4F80819181885F9141A9F071
:100B70008091500221E030E002C0220F331F8A959D
:100B8000E2F728B981E0982F9A95F1F75D9A982FAE
:100B90009A95F1F75D988A95F1F720919C00309134
:100BA0009D00E0915002F0E0EE0FFF1FEB5AFD4F69
:100BB00080819181820F931F90939D0080939C0070
:100BC00081E080935102FF91EF919F918F913F912E
:100BD0002F910F900BBE0F900FBE0F901F90189586
:100BE000E0E8F0E081E080838BE0809381008DB1CC
:100BF000806C8DB9259A80818068808310928900ED
:100C0000109288008DB18C608DB9269A80818062A7
:100C1000808310928B0010928A0008958F3729F4F8
:100C2000109288006D9A759808956D98759A282F7E
:100C300030E087FF08C08EB18F7380688EB9822F35
:100C4000880F8F5F0AC08EB18F7380648EB98FE773
:100C500090E0821B930B880F991F80938800089562
:100C60008FEF809388008EB18F738EB908958F3780
:100C700029F410928A006C9A749808956C98749A6A
:100C8000282F30E087FF08C08EB1837F84608EB943
:100C9000822F880F8F5F0AC08EB1837F88608EB9E4
:100CA0008FE790E0821B930B880F991F80938A0037
:100CB00008958FEF80938A008EB1837F8EB9089557
:100CC00080E680937C00EAE7F0E08081876880839B
:100CD0000895982F883010F08DEB089580E680936A
:100CE0007C0080917C00892B80937C0080917A002D
:100CF000806480937A0080917A0086FDFCCF809199
:100D000079000895982F883018F02DEA3BE01BC039
:100D100080E480937C0080917C00892B80937C0010
:100D200080917A00806480937A0080917A0086FDB9
:100D3000FCCF3091780020917900922F80E0232F12
:100D400030E0282B392BC9010895E9EBF0E08081D0
:100D50008D7F808380818160808382E18093B80071
:100D6000089584EA8093BC008091BC0087FFFCCF8B
:100D70008091B900887F08958093BB0084E88093B8
:100D8000BC008091BC0087FFFCCF8091B900887FB8
:100D90000895982F813011F484EC01C084E8809389
:100DA000BC008091BC0087FFFCCF913031F4809172
:100DB000B900887F803559F407C0992329F48091C0
:100DC000B900887F883519F48091BB00089580E0D0
:100DD000089584E98093BC000895982F84EA809355
:100DE000BC008091BC0087FFFCCF8091B900887F58
:100DF000883011F0803109F59093BB0084E880932E
:100E0000BC008091BC0087FFFCCF8091B900887F37
:100E1000883199F46093BB0084E88093BC00809192
:100E2000BC0087FFFCCF8091B900887F883229F40D
:100E300084E98093BC0081E0089580E00895982FB4
:100E400084EA8093BC008091BC0087FFFCCF809136
:100E5000B900887F883011F0803179F59093BB001C
:100E600084E88093BC008091BC0087FFFCCF809118
:100E7000B900887F883109F56093BB0084E88093CE
:100E8000BC008091BC0087FFFCCF8091B900887FB7
:100E9000883299F47093BB0084E88093BC00809101
:100EA000BC0087FFFCCF8091B900887F883229F48D
:100EB00084E98093BC0081E0089580E00895982F34
:100EC00084EA8093BC008091BC0087FFFCCF8091B6
:100ED000B900887F883011F08031B9F49F5F90931A
:100EE000BB0084E88093BC008091BC0087FFFCCFEE
:100EF0008091B900887F803441F480E00E94C90667
:100F0000982F84E98093BC0001C090E0892F089558
:100F1000982F84EA8093BC008091BC0087FFFCCFAF
:100F20008091B900887F883011F0803179F59093F5
:100F3000BB0084E88093BC008091BC0087FFFCCF9D
:100F40008091B900887F883109F56093BB0084E8FF
:100F50008093BC008091BC0087FFFCCF8091B900DA
:100F6000887F883299F44093BB0084E88093BC006A
:100F70008091BC0087FFFCCF8091B900887F8832C8
:100F800029F484E98093BC0081E0089580E008950D
:100F9000982F84EA8093BC008091BC0087FFFCCF2F
:100FA0008091B900887F883019F0803109F03FC006
:100FB0009093BB0084E88093BC008091BC0087FFC5
:100FC000FCCF8091B900887F883189F56093BB00A0
:100FD00084E88093BC008091BC0087FFFCCF8091A7
:100FE000B900887F883219F584EA8093BC0080912B
:100FF000BC0087FFFCCF8091B900887F883011F05A
:101000008031A9F49F5F9093BB0084E88093BC007B
:101010008091BC0087FFFCCF8091B900887F80342D
:1010200031F480E00E94C90694E99093BC000895D1
:10103000982F84EA8093BC008091BC0087FFFCCF8E
:101040008091B900887F883011F08031B9F5909394
:10105000BB0084E88093BC008091BC0087FFFCCF7C
:101060008091B900887F883149F56093BB0084E89E
:101070008093BC008091BC0087FFFCCF8091B900B9
:10108000887F8832D9F4F90190E024E810C080818B
:101090008093BB002093BC008091BC0087FFFCCFF5
:1010A0008091B9003196887F883241F49F5F941710
:1010B00070F384E98093BC0081E0089580E0089596
:1010C000CF92DF92FF920F931F93CF93DF93982FCE
:1010D000690184EA8093BC008091BC0087FFFCCF4B
:1010E0008091B900887F883019F0803109F057C0AD
:1010F0009093BB0084E88093BC008091BC0087FF84
:10110000FCCF8091B900887F883109F048C0609396
:10111000BB0084E88093BC008091BC0087FFFCCFBB
:101120008091B900887F8832D1F584EA8093BC0031
:101130008091BC0087FFFCCF8091B900887F883008
:1011400011F0803161F59F5F9093BB0084E880933C
:10115000BC008091BC0087FFFCCF8091B900887FE4
:101160008034E9F4FF24C42FD0E0219706C081E049
:101170000E94C906F8018083F3948F2D90E08601C8
:10118000080F191F8C179D0794F380E00E94C90671
:10119000F801808384E98093BC0081E001C080E095
:1011A000DF91CF911F910F91FF90DF90CF90089525
:1011B000982F84EA8093BC008091BC0087FFFCCF0D
:1011C0008091B900887F883019F0803109F045C0DE
:1011D0009093BB0084E88093BC008091BC0087FFA3
:1011E000FCCF8091B900887F8831B9F57093BB003E
:1011F00084E88093BC008091BC0087FFFCCF809185
:10120000B900887F883249F56093BB0084E88093F9
:10121000BC008091BC0087FFFCCF8091B900887F23
:101220008832D9F4F90190E024E810C080818093DD
:10123000BB002093BC008091BC0087FFFCCF809155
:10124000B9003196887F883241F49F5F941770F31C
:1012500084E98093BC0081E0089580E00895CF92F6
:10126000DF92FF920F931F93CF93DF93982F690123
:1012700084EA8093BC008091BC0087FFFCCF809102
:10128000B900887F883019F0803109F066C09093EA
:10129000BB0084E88093BC008091BC0087FFFCCF3A
:1012A0008091B900887F883109F057C07093BB00E6
:1012B00084E88093BC008091BC0087FFFCCF8091C4
:1012C000B900887F883209F048C06093BB0084E889
:1012D0008093BC008091BC0087FFFCCF8091B90057
:1012E000887F8832D1F584EA8093BC008091BC006D
:1012F00087FFFCCF8091B900887F883011F0803162
:1013000061F59F5F9093BB0084E88093BC0080915F
:10131000BC0087FFFCCF8091B900887F8034E9F45E
:10132000FF24C42FD0E0219706C081E00E94C906A7
:10133000F8018083F3948F2D90E08601080F191F28
:101340008C179D0794F380E00E94C906F801808302
:1013500084E98093BC0081E001C080E0DF91CF91FF
:101360001F910F91FF90DF90CF90089580E28093BE
:10137000B60085E08093B10081E080937000109208
:101380005402109253021092B200789408951F9262
:101390000F920FB60F9211248F939F938091530257
:1013A00090915402019690935402809353029F911E
:1013B0008F910F900FBE0F901F901895F89487E6AD
:1013C0008093C4001092C5001092C00086E0809304
:1013D000C20088E98093C100789408958091C0008C
:1013E00087FFFCCF8091C6000895982F8091C000A0
:1013F00085FFFCCF9093C6000895F89487E680930C
:10140000CC001092CD001092C80086E08093CA00F4
:1014100088E98093C900789408958091C80087FF77
:10142000FCCF8091CE000895982F8091C80085FF51
:10143000FCCF9093CE00089520917602922F80E009
:101440002091770230E0282B392BC9010895809133
:10145000750290E0FC013197E132F10508F082C09D
:10146000EA59FF4F0C940F0D0E94960185C00E940F
:10147000980182C00E94CC047FC00E94C8047CC036
:101480000E94D00479C00E94C40476C00E94F90270
:1014900073C00E94300670C00E9459066DC0209132
:1014A0007602922F80E02091770230E0822B932BFE
:1014B0000E94650161C020917602922F80E0209108
:1014C000770230E0822B932B0E946F0155C086E794
:1014D00092E050C020917602922F80E02091770216
:1014E00030E0822B932B0E94FD0446C020917602AF
:1014F00060917702922F80E070E0682B792B872F24
:1015000090E070E00E94160537C0909176028091BD
:10151000770220E0822B90E00E940E062DC0909171
:1015200076028091770220E0822B90E00E943706BD
:1015300023C02091760260917702922F80E070E0C4
:10154000682B792B872F90E070E00E94AF0414C0C5
:101550000E947901982F8091C00085FFFCCF909365
:10156000C6000AC080E090E060E070E00E94AF0436
:101570008EE392E00E947C041092520208951F9222
:101580000F920FB60F920BB60F9211242F933F9329
:101590004F935F936F937F938F939F93AF93BF937B
:1015A000EF93FF939091C60080915202823118F020
:1015B000109252021BC080915202E82FF0E0EB58CB
:1015C000FD4F90838F5F809352028091750284312A
:1015D00058F080917502863119F4992339F404C0CA
:1015E00080915202833011F40E94270AFF91EF91FB
:1015F000BF91AF919F918F917F916F915F914F912B
:101600003F912F910F900BBE0F900FBE0F901F9028
:1016100018951F920F920FB60F920BB60F921124CE
:101620002F933F934F935F936F937F938F939F93EA
:10163000AF93BF93EF93FF939091C60080915202B6
:10164000823118F0109252021BC080915202E82F92
:10165000F0E0EB58FD4F90838F5F809352028091B2
:101660007502843158F080917502863119F49923FE
:1016700039F404C080915202833011F40E94270A89
:10168000FF91EF91BF91AF919F918F917F916F915A
:101690005F914F913F912F910F900BBE0F900FBE16
:1016A0000F901F901895A0E0B0E0E9E5FBE00C94E6
:1016B000E30C7A01D02E122F283008F017E0A70192
:1016C000212F00E00E94D90B682FF7015191252F9F
:1016D00050FF04C053FD02C08DE209C0D1FE02C01C
:1016E0008BE205C0D0FC02C0C70104C080E2D70174
:1016F0008C93CF01482F392F23FF03C066E171E09F
:1017000004C022FF0BC06EE071E0D2FE02C06C5F2D
:101710007F4F842F932F0E94B10C45C0F701218188
:10172000DC012D93213309F05F7E1123A9F0E7013D
:10173000842F932FFC01912F2EE28A8121839150D7
:1017400021963196282F9923C1F71150812F90E0CF
:101750000196A80FB91F2D93D2FC02C085E601C0E7
:1017600085E4962FFD01819367FF07C08DE21196F6
:101770008C93DF01119691950AC0662329F454FFDA
:1017800003C0DF018DE202C0DF018BE28D9380E3B5
:1017900002C08F5F9A509A30E4F7FD018193905D0B
:1017A00011969C931182C701CDB7DEB7E7E00C9488
:1017B000FF0C283008F027E03327DA01990F311D9C
:1017C00087FD916000966105710539F432602E5FE6
:1017D0003D9330E32A95E1F708959F3F30F080383C
:1017E0007105610509F03C5F3C5F3D93913008F065
:1017F0008068911DDF93CF931F930F93FF92EF9219
:10180000192F987F9695E92F96959695E90FFF27C2
:10181000E858FE4F99273327EE24FF24A701E7015C
:1018200005900894079428F4360FE71EF81E491F08
:10183000511D660F771F881F991F0694A1F7059009
:10184000079428F4E70EF81E491F561FC11D770F95
:10185000881F991F661F0694A1F70590079428F426
:10186000F80E491F561FC71FD11D880F991F661FED
:10187000771F0694A1F70590079420F4490F561F8F
:10188000C71FD81F990F661F771F881F0694A9F7D7
:1018900084911095177041F0D695C7955795479547
:1018A000F794E7941A95C1F7EEE1F1E0689415908A
:1018B000159135916591959105907FE27395E118A9
:1018C000F10A430B560BC90BD009C0F7E10CF11E0E
:1018D000431F561FC91FD01D7EF4703311F48A9523
:1018E000E6CFE894015030F0080F0AF40027021701
:1018F00008F4202F2395022F7A3328F079E37D9383
:101900002A95E9F710C07D932A9589F60694979554
:101910006795379517951794E118F10A430B560B05
:10192000C90BD00998F023957E9173957A3308F00E
:1019300070E37C932013B8F77E9170617D9330F053
:10194000839571E37D9370E32A95E1F71124EF907D
:10195000FF900F911F91CF91DF91992787FD90956F
:101960000895FB01DC0105900D920020E1F7089538
:10197000991B79E004C0991F961708F0961B881FE1
:101980007A95C9F780950895AA1BBB1B51E107C042
:10199000AA1FBB1FA617B70710F0A61BB70B881FFF
:1019A000991F5A95A9F780959095BC01CD0108958E
:1019B0002F923F924F925F926F927F928F929F925F
:1019C000AF92BF92CF92DF92EF92FF920F931F934D
:1019D000CF93DF93CDB7DEB7CA1BDB0B0FB6F894FE
:1019E000DEBF0FBECDBF09942A88398848885F843E
:1019F0006E847D848C849B84AA84B984C884DF80AF
:101A0000EE80FD800C811B81AA81B981CE0FD11D92
:101A10000FB6F894DEBF0FBECDBFED010895EE0FF7
:0E1A2000FF1F0590F491E02D0994F894FFCF7C
:101A2E00202020586970686F7320312E30202020BE
:101A3E000020526F626F4164646963742E636F6D30
:101A4E000054206D696E7573203A20005F5F285335
:101A5E0070686572652D626F74295F5F5F00434D1C
:101A6E004420556E7265636F676E697A6564000017
:00000001FF
